:020000040800F2
:10000000B0060020CD0100085D0700085507000874
:1000100059070008E3020008ED1C0008000000007A
:10002000000000000000000000000000350800088B
:1000300069040008000000005F07000821090008AB
:10004000E7010008E7010008E7010008E7010008F0
:10005000E7010008E7010008E7010008E7010008E0
:10006000E7010008E7010008E7010008E9020008CD
:100070000903000829030008490300086903000870
:1000800089030008A9030008E7010008E701000848
:10009000E7010008E7010008E7010008E7010008A0
:1000A000E7010008E7010008E7010008E701000890
:1000B000E7010008E7010008E7010008E701000880
:1000C000E7010008E7010008E7010008E701000870
:1000D000E7010008ED090008E7010008E701000852
:1000E000E7010008E7010008E7010008E701000850
:1000F000E7010008E7010008E7010008E701000840
:10010000E7010008E7010008E7010008E70100082F
:10011000E7010008E7010008E7010008E70100081F
:10012000C9030008E90300080D0400082D040008B5
:1001300000F002F800F03AF80AA090E8000C8244BF
:100140008344AAF10107DA4501D100F02FF8AFF29C
:10015000090EBAE80F0013F0010F18BFFB1A43F0A5
:10016000010318471C1C00003C1C0000103A24BF6F
:1001700078C878C1FAD8520724BF30C830C144BF0C
:1001800004680C607047000000230024002500264E
:10019000103A28BF78C1FBD8520728BF30C148BFEA
:1001A0000B6070471FB51FBD10B510BD00F058F8AB
:1001B0001146FFF7F7FF01F09BFD00F076F803B45E
:1001C000FFF7F2FF03BC00F07DF80000094880470C
:1001D00009480047FEE7FEE7FEE7FEE7FEE7FEE729
:1001E000FEE7FEE7FEE7FEE704480549054A064B41
:1001F000704700002509000831010008B000002008
:10020000B0060020B0020020B00200204FF0000233
:1002100000B5134694469646203922BFA0E80C50FC
:10022000A0E80C50B1F12001BFF4F7AF090728BFD7
:10023000A0E80C5048BF0CC05DF804EB890028BF53
:1002400040F8042B08BF704748BF20F8022B11F07C
:10025000804F18BF00F8012B7047704770477047F8
:10026000754600F02BF8AE4605006946534620F06F
:100270000700854618B020B5FFF7B6FFBDE820405F
:100280004FF000064FF000074FF000084FF0000B52
:1002900021F00701AC46ACE8C009ACE8C009ACE805
:1002A000C009ACE8C0098D46704710B50446AFF3ED
:1002B00000802046BDE81040FFF781BF004870472E
:1002C0004C00002001491820ABBEFEE726000200CA
:1002D000704700B585B0684600F042FA019805B055
:1002E00000BD00BFFEE7704710B50548006800F08C
:1002F0000F04034844602046FFF7F5FF10BD0000DF
:10030000000002407047000010B505480068C0F3C7
:1003100003142001024948602046FFF7F3FF10BD97
:10032000000002407047000010B505480068C0F3A7
:1003300003242002024948602046FFF7F3FF10BD66
:10034000000002407047000010B505480068C0F387
:1003500003342003024948602046FFF7F3FF10BD35
:10036000000002407047000010B505480068C0F367
:1003700003442004024948602046FFF7F3FF10BD04
:10038000000002407047000010B505480068C0F347
:1003900003542005024948602046FFF7F3FF10BDD3
:1003A000000002407047000010B505480068C0F327
:1003B00003642006024948602046FFF7F3FF10BDA2
:1003C000000002407047000010B50548006800F0CA
:1003D0000F040348001D04602046FFF7F3FF10BD23
:1003E000000402407047000010B506480068C0F3E2
:1003F000031420010349091D08602046FFF7F2FF9E
:1004000010BD0000000402407047000010B506480F
:100410000068C0F3032420020349091D0860204638
:10042000FFF7F2FF10BD00000004024010B50C48B9
:100430000068C0F3033434B120030949091D086082
:10044000204600F00FF806480068C0F3034434B1BA
:1004500020040349091D0860204600F004F810BD7F
:1004600000040240704770477047000018B500282C
:1004700044D0C0F34211C0F30322214B9B6903F027
:1004800001032BB91E4B9B6943F001031C4CA36174
:1004900000F48053A3B11B4BDB69009300F01F03F2
:1004A00001FA03F3009C9C43009400F01F0302FA3E
:1004B00003F3009C23430093124C009BE3611DE077
:1004C000104B5B68009300F01F0301FA03F3009CDC
:1004D0009C43009400F01F0302FA03F3009C2343A3
:1004E000009307210022009B23EA01630093009BF5
:1004F00043EA02630093034C009B636018BD000055
:10050000001002400000014001461D48814204D114
:100510001C488069C0F3800070471B48814204D1A9
:1005200018488069C0F3C000F6E71848814204D13A
:1005300014488069C0F30010EEE71548814204D1E9
:1005400010488069C0F34010E6E71248814204D1A8
:100550000C488069C0F38010DEE70F48814204D167
:1005600008488069C0F3C010D6E70C48814204D126
:1005700004488069C0F30020CEE70020CCE70000EB
:100580000008014000100240000C01400010014032
:100590000014014000180140001C014000200140EF
:1005A0002DE9F04105460C46174698460F2C02D916
:1005B0000020BDE8F0812846FFF7A6FF18B9012109
:1005C000284600F029F8B8F1000F10D1022F05D10C
:1005D000E8680121A1408843E86008E0032F06D1C4
:1005E00027F00107E8680121A1400843E860082CD2
:1005F00001D22E4601E0083C2E1D3068A2000F21DA
:1006000091408843306048EA8700A1008840316803
:10061000084330600120CCE7002945D0454A90428C
:1006200006D1454A926942F00402434B9A6180E048
:10063000424A904206D1404A926942F008023E4B3B
:100640009A6176E03E4A904206D13B4A926942F076
:100650001002394B9A616CE03A4A904206D1364A10
:10066000926942F02002344B9A6162E0364A90422D
:1006700006D1314A926942F040022F4B9A6158E00C
:10068000324A904206D12C4A926942F080022A4BAB
:100690009A614EE02E4A90424BD1274A926942F429
:1006A0008072254B9A6144E0224A904206D1224A48
:1006B000926922F00402204B9A613AE01F4A90426C
:1006C00006D11D4A926922F008021B4B9A6130E064
:1006D0001B4A904206D1184A926922F01002164B2A
:1006E0009A6126E0174A904206D1134A926922F095
:1006F0002002114B9A611CE0134A904206D10E4A27
:10070000926922F040020C4B9A6112E00F4A90422B
:1007100006D1094A926922F08002074B9A6108E0EB
:100720000B4A904205D1044A926922F48072024B2E
:100730009A6170470008014000100240000C01401F
:10074000001001400014014000180140001C01404D
:100750000020014000BFFEE700BFFEE77047704782
:1007600030B500210022002400232D4D6D6805F0D6
:100770000C0121B1042905D0082923D105E0294D18
:10078000056022E0274D05601FE0254D6D6805F4EA
:100790007012234D6D6805F48034022505EB9242FA
:1007A0001CB9214D554305600BE01D4D6D6805F4E6
:1007B00000351DB11C4D5543056002E0194D5543F0
:1007C000056002E0174D056000BF00BF144D6D6865
:1007D00005F0F0010909154D6B5C0568DD404560C9
:1007E0000F4D6D6805F4E061090A104D6B5C4568BA
:1007F000DD4085600A4D6D6805F46051C90A0B4DF6
:100800006B5C4568DD40C560054D6D6805F4404191
:10081000890B074D6B5CC568B5FBF3F5056130BD11
:100820000010024000127A0000093D000000002084
:1008300010000020704710B500F002F810BD000055
:100840000CB50020019000903348006840F48030DF
:100850003149086000BF3048006800F40030009063
:100860000198401C0190009818B90198B0F5A06F4C
:10087000F1D12948006800F4003010B10120009047
:1008800001E0002000900098012843D1234800682F
:1008900040F01000214908600846006820F003007D
:1008A00008600846006840F0020008601A48406886
:1008B000194948600846406848600846406840F466
:1008C000806048600846406820F47C104860084614
:1008D000406840F4E81048600846006840F08070C6
:1008E000086000BF0C48006800F000700028F9D0D4
:1008F0000948406820F003000749486008464068FE
:1009000040F00200486000BF0348406800F00C005F
:100910000828F9D10CBD0000001002400020024060
:100920007047000010B51348006840F001001149FD
:10093000086008464068104908400E49486008466B
:1009400000680E4908400B4908600846006820F41A
:10095000802008600846406820F4FE0048604FF49C
:100960001F008860FFF767FF4FF0006004490860D0
:1009700010BD0000001002400000FFF8FFFFF6FE6F
:1009800008ED00E070B504460D46034A29462046AE
:1009900000F080F870BD0000101D000808B5024886
:1009A00000F088FC009008BD101D000808B5024842
:1009B00000F083FC009008BD101D000810B502482F
:1009C00000F0C3FC10BD0000101D000808B502486F
:1009D00000F0BFFC009008BD101D000810B50248D3
:1009E00000F021FD10BD0000101D000810B50248E8
:1009F00000F01DFD10BD0000101D000810B50446DC
:100A00000249204600F04BFE10BD0000101D0008FA
:100A100010B504460249204600F0FEFE10BD00005D
:100A2000101D000870B504460D46034A29462046AD
:100A300001F006F870BD0000101D000870B50446F6
:100A40000D46034A2946204601F04BF870BD0000D0
:100A5000101D000810B504460249204601F085F833
:100A600010BD0000101D000870B504460D46164666
:100A7000034B32462946204601F0C5F870BD000000
:100A8000101D000810B5024801F0F2F810BD00007A
:100A9000101D00082DE9FE4F07460D461446206B39
:100AA000C07A00F0020018B94FF0FF30BDE8FE8FA9
:100AB0000020009080468346F8B2153806287CD284
:100AC000DFE800F0A3DC032C4E6CA5B1606B90F85E
:100AD000210010B16FF00100E8E70120616B81F89F
:100AE0002100616B81F820006068808940F08100FE
:100AF0006168888110E0606B90F8200060B16068E8
:100B0000808920F08000616888810020616B81F815
:100B10002000616B81F821000020C7E760688089B0
:100B200020F0C00061688881A06A88B1606B90F88D
:100B3000210068B16068808A20F080006168888246
:100B4000A16A0868016821F00101016000BF00BFCF
:100B50000020616B81F82000616B81F82100A5E71E
:100B60006068808920F0200061688881E06A80B137
:100B7000206B407968B16068808A20F0400061682D
:100B80008882E16A0868016821F00101016000BF04
:100B900000BF0021206B4171002087E760688089D9
:100BA00020F0E00061688881A06A98B1606B90F8DD
:100BB000210078B16068808A00E0C2E020F0800007
:100BC00061688882A16A0868016821F001010160FA
:100BD00000BF00BFE06A80B1206B407968B16068F7
:100BE000808A20F0400061688882E16A08680168B4
:100BF00021F00101016000BF00BF0021206B4171A5
:100C00000020616B81F8210050E7E06810B94FF0D7
:100C1000FF304BE7BDB1206BC068062806D0E26804
:100C20009188032310680222FFF7BAFC206BC07A78
:100C300040F00800216BC8726068808940F00800AD
:100C40006168888118E06068808920F00800616828
:100C50008881206BC07A20F00800216BC872206B5D
:100C6000C068062808D0E06830B1E26891880023A7
:100C700010681A46FFF794FC002017E7206910B9A6
:100C80004FF0FF3012E7E5B3206BC06806280AD0AA
:100C9000206BC068042806D0226991880023106860
:100CA0000122FFF77DFC206BC07A40F01000216B21
:100CB000C8726068808A40F001006168888260685C
:100CC000008A40F04000616808826068808940F0D6
:100CD000100061688881206B407918B1E06A08B122
:100CE000012000E0002028B96068808940F02000E1
:100CF000616888816068808940F00400616888814B
:100D00001DE0FFE76068808920F004006168888149
:100D1000206BC07A20F01000216BC872206BC06875
:100D200006280CD0206BC068042808D0206930B198
:100D300022699188002310681A46FFF731FC0020D1
:100D4000B4E600BF00BF206B407918B9606B90F823
:100D5000210010B16FF00100A8E66068808900F002
:100D6000080038B16068008800F0400010B96FF0EA
:100D700001009BE6F8B2152872D2DFE800F0C90B3B
:100D80000E1D20252AC9C9C9C9C9C9C9C9C9373B46
:100D9000697EB80001200290BDE02078C0F34000D9
:100DA00020B148F4006848F4807802E06FF0060053
:100DB0007CE602200290AEE06FF0060076E64BF093
:100DC000080B04200290A6E04BF0020B05200290D5
:100DD000A1E02078C0F3401010B14BF0200B02E0EE
:100DE0006FF0060062E60620029094E0616B4D838E
:100DF00000205BE6206BC068052824D015B360682E
:100E0000808A40F0040061688882D4F808A0FE4817
:100E1000B0FBFAFA012605E00AFB06F0A84200D969
:100E200002E0761CFF2EF7D900BFB6F5807F02D115
:100E30004FF0FF303AE66068008B20F0FF0030434F
:100E40006168088302E04FF0FF302FE600202DE6B6
:100E5000206BC06806280BD1FF2D02D9C01F25E6E4
:100E600056E06068008BC0B228436168088302E0E6
:100E70004FF0FF301AE6002018E6206BC068062805
:100E800030D1D4F808A0E048B0FBFAFA012619E006
:100E90000AFB06F040006421484305EB051101EB15
:100EA0004101B0EB410F0CD20AFB06F04000642177
:100EB000484305EB051101EB4511B0EB410F00D99B
:100EC00002E0761C402EE3D300BF402E02D14FF04B
:100ED000FF30EBE56068008B20F0FF003043616875
:100EE000088302E04FF0FF30E0E50020DEE5206BF4
:100EF000C068062807D14DB16068808A40F01000B4
:100F00006168888202E04FF0FF30CFE50020CDE538
:100F10006FF00300CAE500BF07F4E06060B1B0F510
:100F2000807F13D0B0F5E06F1DD107F4405010B9A9
:100F30006FF00800BAE519E007F4405028B148F016
:100F40002008009840F4805000900FE007F44050D3
:100F500010B16FF00800A9E548F02008009840F4AF
:100F60008050009002E06FF008009FE500BF07F49A
:100F7000405030B1B0F5805F04D0B0F5005F0BD1C8
:100F800005E00CE0009840F48060009007E00098D5
:100F900040F4C060009002E06FF0090086E500BFF9
:100FA00007F4404048B1B0F5804F07D0B0F5004F8E
:100FB00007D0B0F5404F0AD106E00BE048F40058E6
:100FC00008E048F4405805E048F4805802E06FF02B
:100FD0000A006BE500BF07F4403048B1B0F5803F30
:100FE00009D0B0F5003F13D0B0F5403F2ED11CE042
:100FF0004FF000092DE02078C0F3C01020B14FF46D
:1010000080394BF4807B02E06FF00B004EE520E06E
:101010002088C0F3002020B14FF400394BF4C06B9E
:1010200002E06FF00B0041E513E02078C0F3C01040
:1010300040B12088C0F3002020B14FF440394BF478
:10104000E06B02E06FF00B0030E502E06FF00B00A8
:101050002CE500BF029802281DD107F4802018B1AA
:10106000B0F5802F04D100E005E048F4806802E08C
:101070006FF00C001AE500BF07F4002018B1B0F5BE
:10108000002F04D100E005E048F4007802E06FF0A2
:101090000D000BE500BFA06800EBC00101EB0010E4
:1010A000A900B0FBF1F06421B0FBF1F1A06800EB06
:1010B000C00202EB0010AA00B0FBF2F0A26802EB43
:1010C000C20303EB0212AB00B2FBF3F26423B2FBE8
:1010D000F3F202EBC20303EB0212A0EB8200322216
:1010E00002EB00106422B0FBF2FA61F31F1AA06851
:1010F00000011FFA8AF1B0FBF1F0000901906421B0
:101100000198484305EB051101EB4101B0EB410F9C
:1011100009D264210198484305EB051101EB451103
:10112000B0EB410F02D86FF00700BFE46068808920
:1011300020F40050616888816168A1F808A00298D5
:10114000216BC860206BC0F81090206BC068062827
:1011500009D1E06830B1E268918803231068022267
:10116000FFF71EFA17E0206BC07A00F0080048B1C4
:10117000E06880B1E2689188032310680222FFF7DB
:101180000FFA08E0E06830B1E26891880023106847
:101190001A46FFF705FA00BF206BC068042802D08A
:1011A00006280BD100E000BF206930B12269918888
:1011B000002310681A46FFF7F3F918E0206BC07A95
:1011C00000F0100048B1206980B1226991880023A5
:1011D00010680122FFF7E4F908E0206930B12269C4
:1011E0009188002310681A46FFF7DAF900BF00BFA4
:1011F0006069D0B1206BC068022802D006280BD1EC
:1012000000BF6269918801E000CA9A3B032310681D
:101210000222FFF7C5F907E0626991880023106890
:101220001A46FFF7BDF900BF00BFA069A0B1B9F52C
:10123000803F02D0B9F5403F07D1A26991880323CE
:1012400010680222FFF7ACF906E0A269918800233A
:1012500010681A46FFF7A4F9E069A0B1B9F5003F9C
:1012600002D0B9F5403F07D1E269918800231068A8
:101270000122FFF795F906E0E269918800231068E2
:101280000122FFF78DF90098616888816168A1F8F3
:1012900010806168A1F814B06068808940F4005043
:1012A00061688881206BC07A40F00400216BC872AD
:1012B000002011E40146086870470CB5014601980A
:1012C00020F001000190086B006920B1086B0069F3
:1012D000B0F5803F0ED1C86960B1CB6998881A68B3
:1012E0009368C34003F0010323B9019820F0010083
:1012F000401C0190019820F002000190019820F01C
:1013000008000190019820F0040001900198009AD3
:1013100060F30002009201984208009862F34100D5
:10132000009001988208009862F382000090019872
:10133000C208009862F3C300009001980209009867
:1013400062F31F10009000980CBD0146486B0069C5
:1013500070470CB50146486B90F8210028B1019800
:1013600020F00100401C019008E04868008801223C
:1013700022EA9012019862F300000190086B427912
:10138000019862F341000190086B8279019862F341
:1013900082000190086BC279019862F3C30001904A
:1013A000086B027A019862F304100190086B427A8C
:1013B000019862F345100190086B827A019862F3FC
:1013C000861001900198009A60F300020092019843
:1013D0004208009862F3410000900198820800984A
:1013E00062F3820000900198C208009862F3C30083
:1013F000009001980209009862F30410009001988F
:101400004209009862F34510009001988209009803
:1014100062F3861000900198C209009862F3DF1011
:10142000009000980CBD0146486B406970472DE95B
:10143000F04104466068068800270025A84606F0AB
:101440002000616889890840002860D0206B4079BD
:1014500038B9606880880121206BC17145F0200592
:1014600055E0206BC068022806D1606BC069012876
:1014700002D16068808802E06068B0F80480606B28
:101480008268501C636B986082F80080606887896E
:1014900007F4806050B907F4805038B14FEA282132
:1014A000606B8268501C636B98601170606B0069A0
:1014B000401C616B0861606B0069616B0968884260
:1014C00025D16068808920F0100061688881002142
:1014D000206B4171206BC068022816D1606BC76910
:1014E0000020616BC861012F04D0022F05D0032FAB
:1014F00009D105E045F0010506E045F0020503E0ED
:1015000045F0040500E000BF01E045F0020506F0EB
:10151000100061688989084018B16068808845F0CA
:10152000400506F08000616889890840002863D082
:10153000606B90F8200030B16068808940F0010055
:101540006168888158E0606B4068616B49698842D6
:1015500022D0206BC068022807D1606BC0690228C6
:1015600003D1606BB0F81A8016E0606BC168481C4C
:10157000626BD06091F800806068878907F48060B2
:1015800050B907F4805038B1606BC168481C626B79
:10159000D060087848EA0028606B4069401C616BA5
:1015A00048616068A0F80480606B4068616B4969BD
:1015B000884221D16068808920F08000616888813C
:1015C0006068808940F04000616888810020616B1C
:1015D00081F82100206BC06802280BD1606BC069C4
:1015E000012809D1206BC07A00F0100020B945F025
:1015F000010501E045F0010506F0400061688989B8
:10160000084038B16068808920F0400061688881B6
:1016100045F0080506F0080030B1606880880121B7
:10162000206BC17145F0200506F0020030B1606802
:1016300080880121206B417245F4807506F001001D
:1016400030B1606880880121206B817245F400759B
:1016500006F4807050B16068008820F48070616882
:1016600008800121206B017245F0800506F40070AE
:1016700038B16068008820F400706168088045F423
:10168000806525B1206B006808B1012000E00020D2
:1016900018B1206B016828468847BDE8F08170B515
:1016A00005460C46206BC07A00F0010008B100200E
:1016B00070BD206B05600020216B08710021206B3C
:1016C0004171206B8171206BC171206B0172206BA5
:1016D0004172206B81720020216BC860616B81F8C0
:1016E00021002421606BFEF791FD608CFEF7BEFEA9
:1016F000E06820B1E16808680121FEF78DFF2069EC
:1017000020B1216908680121FEF786FF606920B1D8
:10171000616908680121FEF77FFFA06920B1A16916
:1017200008680121FEF778FFE06920B1E1690868E7
:101730000121FEF771FF0120216BC8720020B7E77D
:101740002F49884205D12F49C96841F480412D4A6B
:10175000D1602D49884205D12A49096941F40031F7
:10176000284A11612949884205D12649096941F46D
:101770008021244A11612649884205D121490969FD
:1017800041F400211F4A11612249884205D11D49B7
:10179000096941F480111B4A116100BF00BF00BFFD
:1017A00000BF1749884205D11649C96821F4804114
:1017B000144AD1601449884205D11249096921F4BB
:1017C0000031104A11611149884205D10D4909695A
:1017D00021F480210B4A11610D49884205D1094944
:1017E000096921F40021074A11610A49884205D19B
:1017F0000449096921F48011024A1161704700000F
:101800000038014000100240004400400048004001
:10181000004C00400050004070B505460C4625B114
:10182000012D71D0022D6ED171E06068FFF788FF45
:1018300094F92400002817DB00F01F0201219140D9
:10184000774A430942F8231000BF00BF00BFBFF32F
:101850004F8F00BF00BF00BF00BF00BF00BFBFF37E
:101860006F8F00BF00BF00BF00BF6E496068884235
:1018700005D16D48806920F480406B4988616B49CF
:101880006068884205D16848C06920F40030664924
:10189000C86167496068884205D16348C06920F41F
:1018A00080206149C86163496068884205D15E480B
:1018B000C06920F400205C49C8615F4960688842C3
:1018C00005D15948C06920F480105749C8610020EB
:1018D000216B08710021206B4171206B8171206B9D
:1018E000C171206B0172206B4172206B81720020EC
:1018F000616B81F82100206BC07A20F00200216B1F
:10190000C8728AE000E085E06FF0030070BD206BD4
:10191000C07A00F0010010B94FF0FF30F6E7206BFD
:10192000C07A00F0020008B10020EFE70020216B30
:1019300008710021206B4171206B8171206BC17196
:10194000206B0172206B4172206B81720020616BF1
:1019500081F82100616B4883616BC861616B81F81C
:101960002000216BC860216B08610320216BC872C5
:101970002C496068884205D12B48806940F480403A
:101980002949886129496068884205D12648C0698B
:1019900040F400302449C86125496068884205D177
:1019A0002148C06940F480201F49C861214960680E
:1019B000884205D11C48C06940F400201A49C8611A
:1019C0001D496068884205D11748C06940F48010FD
:1019D0001549C86194F92400002807DB00F01F02B4
:1019E00001219140154A430942F8231000BF94F9A0
:1019F0002400002809DB00F01F0201219140420968
:101A0000920002F1E022C2F8001100BF6068FFF707
:101A100097FE02E06FF0030078E700BF002075E753
:101A200080E100E000380140001002400044004026
:101A300000480040004C00400050004080E200E0C0
:101A40002DE9F04105460E46144605B11EB96FF06A
:101A50000400BDE8F081206BC07A00F0040010B9EA
:101A60004FF0FF30F5E7206B4079012801D1C01E0F
:101A7000EFE76068808920F0200061688881606BF2
:101A800006600021206B0172206B4172206BC171D6
:101A9000206B8172606B85600020616B08610121A1
:101AA000206B41716068808940F0300061688881F6
:101AB000206BC068022812D1606BC06978B902201F
:101AC000616BC861616B01F11A002246314600F07A
:101AD00008F80746B81C10B96FF00100B9E70020FC
:101AE000B7E72DE9F04105460E46144605B11EB98B
:101AF0006FF00400BDE8F081206BC07A00F00400B4
:101B000010B94FF0FF30F5E7606B90F8210010B18D
:101B10006FF00100EEE70120616B81F82100606B3E
:101B2000C560606B46600020616B4861206BC068D7
:101B3000022812D1606BC06978B90120616BC8615D
:101B4000616B01F1180022463146FFF779FF074625
:101B5000B81C10B96FF00100CCE76068808940F0D4
:101B60008000616888810020C4E770B5044634B104
:101B7000012C22D0022C3FD0032C3CD13DE0086B3D
:101B8000006920B1086B0069B0F5003F11D1886988
:101B900090B18D69AA88012328681BB10125954061
:101BA000056104E002F110050126AE40066100BFA8
:101BB00002E04FF0FF3070BD22E0086B006920B1F9
:101BC000086B0069B0F5003F11D1886990B18D694B
:101BD000AA88002328681BB101259540056104E00F
:101BE00002F110050126AE40066100BF02E04FF091
:101BF000FF30E0E704E000BF00BF4FF0FF30DAE75E
:101C000000BF0020D7E72DE9F04180460E46174679
:101C10001C46B8F1000F01D006B11FB96FF00400E7
:101C2000BDE8F081206BC07A00F0040010B94FF0DD
:101C3000FF30F5E7206BC068022814D10320616BE8
:101C4000C861224639463046FFF7FAFE05460DB117
:101C50002846E5E7224639464046FFF742FF05465B
:101C600025B12846DCE74FF0FF30D9E70020D7E761
:101C700010B50446E06830B1E2689188002310682E
:101C80001A46FEF78DFC206930B122699188002345
:101C900010681A46FEF784FC606930B16269918869
:101CA000002310681A46FEF77BFCA06930B1A269D8
:101CB0009188002310681A46FEF772FCE06930B183
:101CC000E2699188002310681A46FEF769FC208CAF
:101CD000FEF7CCFB0020216BC87210BD08B502488E
:101CE0000068009008BD0000FC1C000800BFFEE773
:101CF00010B5FEF7EEFA002010BD0000030202024C
:101D00000008014009000000000801400A0000002E
:101D1000390600000038014000A24A04001D0008F6
:101D2000081D000800000000000000000000000086
:101D3000220022002500000000000000000000003A
:101D40001400002028000020DD1C00089D09000868
:101D5000FD090008850A0008110A00083D0A00086C
:101D6000250A0008690A0008DD090008BD09000805
:101D700085090008CD090008550A0008AD090008CA
:101D8000A01D000800000020140000006C010008E5
:101D9000B41D0008140000209C0600008801000803
:101DA0000000000001020304010203040607080901
:041DB000020406081B
:0400000508000131BD
:00000001FF
