:020000040800F2
:10000000A8BA00208503000881720008B92E0008F4
:10001000117200088D1B0008F1A900080000000003
:10002000000000000000000000000000BD02000809
:10003000F9210008000000003503000871030008E2
:100040009F0300089F0300089F0300089F03000808
:100050009F0300089F0300089F0300089F030008F8
:100060009F0300089F0300089F03000879200008F1
:1000700099200008B9200008D9200008F9200008BC
:1000800019210008392100089F030008EDA7000886
:1000900005A90008911B00087D1C0008FD2100082F
:1000A0009F0300089F0300089F0300089F030008A8
:1000B0009F0300089F0300089F030008E52E000827
:1000C000D52E00089F0300089F0300089F03000827
:1000D0009F030008F98100086D8400089F03000851
:1000E0009F0300089F0300089F0300089F03000868
:1000F0009F0300089F0300089F0300089F03000858
:100100009F0300089F0300089F0300089F03000847
:100110009F0300089F0300089F0300089F03000837
:1001200059210008792100089D210008BD210008FF
:1001300000F002F800F06DF80AA090E8000C82448C
:100140008344AAF10107DA4501D100F062F8AFF269
:10015000090EBAE80F0013F0010F18BFFB1A43F0A5
:1001600001031847F8520100185301000A444FF0E8
:10017000000C10F8013B13F0070408BF10F8014B06
:100180001D1108BF10F8015B641E05D010F8016B4B
:10019000641E01F8016BF9D113F0080F1EBF10F8AF
:1001A000014BAD1C0C1B09D16D1E58BF01F801CBD2
:1001B000FAD505E014F8016B01F8016B6D1EF9D555
:1001C0009142D6D37047000000230024002500266A
:1001D000103A28BF78C1FBD8520728BF30C148BFAA
:1001E0000B607047662910F06486642900F0A281D4
:1001F000782900F0DB81002070471FB500F097FEE2
:1002000004000020002110F00BF8E0601FBD10B5C5
:1002100010BD00F08BFF1146FFF7EFFF0FB400F0A9
:100220000BF80FBC0DF0D4F800F088FA03B4FFF718
:10023000EEFF03BC00F074FF04B00DF009F90448B0
:1002400000210DF0EBF90DF015F900F077FA000040
:100250006051010880F309887047EFF30980704707
:10026000684680F3098804480078C00714BF02205C
:10027000032080F31488704720510108DFF818C06C
:10028000EFF305831B0618BF6047EFF31483DB070A
:1002900008BF604700DF704711DF0008DFF818C0B3
:1002A000EFF305831B0618BF6047EFF31483DB07EA
:1002B00008BF604700DF7047C1E10008EFF3098025
:1002C000816911F8021CF1B990E80F10E047EFF3D3
:1002D000098C8CE80700144B93E8060091420FD07C
:1002E00039B12CE9F00FC1F828C00CB40EF050FB66
:1002F0000CBC1A60D2F828C0BCE8F00F8CF3098857
:100300006FF0020E704710B5084A1268914209D882
:10031000074C54F8214090E80F10A047EFF3098CE8
:100320008CE80F0010BD000030030020F01800081A
:10033000F01800080EF0FEF90C4B93E8060091420D
:1003400010D0EFF3098C2CE9F00FC1F828C00CB4E1
:100350000EF01EFB0CBC1A60D2F828C0BCE8F00FEF
:100360008CF309886FF0020E704700003003002004
:100370000EF0D6FBE0E700000DF0F0F90EF0D0FB38
:10038000DAE700000948804709480047FEE7FEE732
:10039000FEE7FEE7FEE7FEE7FEE7FEE7FEE7FEE735
:1003A00004480549054A064B70470000E17E0008F5
:1003B00031010008A8B40020A8BA0020A8B6002087
:1003C000A8B600200048704748B4002053EA020C49
:1003D00000F069802DE9F04B4FF00006002B1FBFA5
:1003E000B3FA83F503FA05F424FA05F65E4012BF6A
:1003F0001643B2FA82F502FA05F4C5F120051EBFD4
:1004000022FA05FC44EA0C04203556EA044C4FEA73
:10041000144418BF641C4FF000084FF000099042CC
:1004200071EB030C39D3002919BFB1FA81F701FA36
:1004300007F6B0FA80F700FA07F6C7F120071EBFEB
:1004400020FA07FC46EA0C062037B6FBF4FCA7EBC3
:100450000507103F07F01F0BCBF120060CFA0BFB32
:100460002CFA06F644BFB3460026202FA4BF5E46F2
:100470004FF0000B5BEA060C08BF4FF0010B19EBC5
:100480000B09ABFB027C48EB0608C01B06FB02CC49
:100490000BFB03CC71EB0C01C1E70B460246414656
:1004A0004846BDE8F08B13B54FF000004FF0000157
:1004B000AFF30080BDE81C40704700000FB41CB5CE
:1004C000074B06AA7B4469460090059800F017FD8B
:1004D0000020694600F026FD1CBC5DF814FB0000FE
:1004E0005D0A000070B5044685690068C10601D543
:1004F000302600E02026C00707D070BDD4E90121D6
:1005000030469047206A401C20626D1EF6D570BDB3
:1005100070B5044685690078C00707D170BDD4E97D
:10052000012120209047206A401C20626D1EF6D5D4
:1005300070BD00002DE9F0410646002410687529C1
:10054000314616A510D0AFF30080002802DA4042F1
:1005500013A507E031688A0701D512A502E0490713
:1005600004D511A5012401E0AFF3008000210A2287
:1005700006F1240709E0B0FBF2FCB0FBF2F302FB4A
:100580001C00303078541846491C0028F3D123460B
:100590002A463046BDE8F04100F045BA00000000B0
:1005A0002D0000002B0000002000000070B5044664
:1005B0000D4621461068AFF300802188090502D559
:1005C0000F4A7A4402E00E4A7A440E32002104F1C6
:1005D000240305E000F00F060009965D5E54491CF7
:1005E0000028F7D120780023000704D5702D02D011
:1005F00009B1022311322046BDE8704000F013BA61
:100600000A4C01002DE9F05F894604464FF0000ACC
:10061000DFF824B1FB44C0F820A02046E1688847F9
:1006200000287DD0252806D0D4E901219047206AF2
:10063000401C2062F1E700255F462046E1688847BC
:100640002028064607DB312E05D2B81910F8200CF9
:1006500008B10543F1E7A80701D525F00405C4F862
:100660001CA00027C4F818A02A2E09D030460AF092
:100670004BFA38B304EB8708303EC8F8186019E02D
:1006800059F8041B204604EB87029161E168884712
:10069000012F064618D1E069002820DA25F0200550
:1006A0001DE0D8F8180000EB800006EB4000303861
:1006B000C8F818002046E168884706460AF024FA80
:1006C0000028EED1012F0AD02E2E08D12046E16855
:1006D00088477F1C0646022F45F02005C4DBA06931
:1006E000002803DA404245F00105A061E80701D087
:1006F00025F01005A6B1A6F14100192802D8203630
:1007000045F400654A463146204625604D46FFF7D0
:1007100069FD60B1012807D0ED1D25F0070000E05C
:1007200007E000F1080978E705F1040975E73046AC
:100730007AE7206ABDE8F09FE04B010010B504465F
:10074000AFF300802046BDE81040FFF76FBD30B525
:1007500005460B462A4613F8014B12F8010B08B167
:10076000A042F8D01CB1002802D06D1CF1E7284649
:1007700030BD40EA010310B59B070FD1042A0DD309
:1007800010C808C9121F9C42F8D020BA19BA884272
:1007900001D9012010BD4FF0FF3010BD1AB1D307B1
:1007A00003D0521C07E0002010BD10F8013B11F8E7
:1007B000014B1B1B07D110F8013B11F8014B1B1B10
:1007C00001D1921EF1D1184610BD10B5431C02E0B4
:1007D00010F8011B71B18107FAD14FF0013202C844
:1007E0008C1A8C4314EAC211F9D0C01A0A0603D03D
:1007F000C01E10BDC01A10BD0A0401D0801E10BD5D
:100800000902FCD0401E10BD421E12F8013F002B11
:10081000FBD111F8013B002B02F8013BF9D17047E5
:10082000032A40F2308010F0030C00F0158011F81C
:10083000013BBCF1020F624498BF11F801CB00F8F4
:10084000013B38BF11F8013BA2F1040298BF00F848
:1008500001CB38BF00F8013B11F0030300F0258005
:10086000083AC0F0088051F8043B083A51F804CB2C
:10087000A0E80810F5E7121D5CBF51F8043B40F8F2
:10088000043BAFF30080D20724BF11F8013B11F8FD
:1008900001CB48BF11F8012B24BF00F8013B00F841
:1008A00001CB48BF00F8012B704710B5203AC0F0CB
:1008B0000B80B1E81850203AA0E81850B1E8185061
:1008C000A0E81850BFF4F5AF5FEA027C24BFB1E89E
:1008D0001850A0E8185044BF18C918C0BDE810400F
:1008E0005FEA827C24BF51F8043B40F8043B08BF18
:1008F0007047D20728BF31F8023B48BF11F8012BDF
:1009000028BF20F8023B48BF00F8012B70474FF08A
:1009100000020429C0F0128010F0030C00F01B80CC
:10092000CCF1040CBCF1020F18BF00F8012BA8BFDA
:1009300020F8022BA1EB0C0100F00DB85FEAC17C9E
:1009400024BF00F8012B00F8012B48BF00F8012B51
:1009500070474FF0000200B5134694469646203982
:1009600022BFA0E80C50A0E80C50B1F12001BFF468
:10097000F7AF090728BFA0E80C5048BF0CC05DF8CE
:1009800004EB890028BF40F8042B08BF704748BF1C
:1009900020F8022B11F0804F18BF00F8012B704790
:1009A0004FF0013C50F8042B51F8043B9A4221D1FE
:1009B000A2EB0C03934313EACC1317D150F8042B8A
:1009C00051F8043B9A4215D1A2EB0C03934313EA6E
:1009D000CC130BD150F8042B51F8043B9A4209D1A7
:1009E000A2EB0C03934313EACC13DBD04FF00000CF
:1009F000704700BFD01A01BAB1FA81F101F01801B5
:100A000022FA01F0CB40C1F12001DBB2C0B2C01A22
:100A10002CFA01F3D11A914311EAC311E6D17047C0
:100A20007047704770472DE9F0470D46994692464A
:100A3000044600F124080168880604D5E06921F025
:100A40001001216000E00120A84201DD471B00E009
:100A50000027A1697A1902EB0900081AA061207821
:100A6000C00602D42046FFF73DFD002608E0D4E989
:100A700001211AF806009047206A401C761C20626B
:100A80004E45F4DB2078C0060AD52046FFF72AFD44
:100A900006E0D4E9012130209047206A401C206202
:100AA000381EA7F10107F4DC07E0D4E9012118F8AA
:100AB00005009047206A401C2062281EA5F1010510
:100AC000F3DC2046FFF724FD2078000602D5022043
:100AD000BDE8F0870120FBE770472DE9FF4F0C468A
:100AE0001E464FF0FF378BB0D2E90001DDF8608081
:100AF0000A908A46C1F30A5505B93D4600210846C9
:100B00004FF00000BAF1000F00F4400005DA00EBEE
:100B100080004FF4400101EA50004FEA9059B9F1CA
:100B2000010F00DDB9460A9850EA4A000ED044F69B
:100B30001050A5F2FF3545432F14B8F1000F1ED019
:100B40007542291E1EDDC9F100021CE0B8F1010F3B
:100B50004FF0000001D0302103E0F24305E02154C2
:100B6000401CB042FBDB30460022002121540B998F
:100B7000C1F80880C1E900200FB0BDE8F08FBD1BAF
:100B80006D1CDEE74A4600DA694206A800F05AFA10
:100B900006AB93E8070003AB83E8070050460A99C9
:100BA00000F0EAFA8DE80700A0F500501F38009029
:100BB0000398002D09DD42F21F014A46084403A9AB
:100BC0000390684600F049FD08E0A0F500504A4651
:100BD0001F3803A90390684600F053FD8DE8070015
:100BE0000004000C03D04FF0FF30410800E0104635
:100BF000B8F1000F03D00022009215461EE0751ECA
:100C000005D400F099F9303262556D1EF9D5B3461E
:100C10000122084302D000227F1C04E02078302803
:100C200001D100227F1E002A099786D01DE0112DD8
:100C300007DA00F081F9303262556D1C50EA01028A
:100C4000F5D1084302D00098C8B10EE00021681E1B
:100C500005E0235C625C63542254401E491C8142BF
:100C6000F7DBAB46A81B401E0990002004F80B00E0
:100C70000B98099AC0F80880C0E9002B7CE7112680
:100C80004FF0000859E72DE9F04F88460446D21D81
:100C900022F0070191B0D1E90001CDE90A0109F084
:100CA000C3FE02460B98C00F01D02D2007E020683C
:100CB000810701D52B2002E0202101EAC000032A90
:100CC000099001D0072A05DB03464146204600F083
:100CD00079F90BE12078800601D5E06900E0062073
:100CE000B8F1650F814606D0B8F1660F18D0B8F19B
:100CF000670F70D131E00020B9F1110F009001DBD6
:100D0000112301E009F101030AAA01A90CA8FFF7C8
:100D1000E4FEDDE90C70002609F10105834647E099
:100D200001204B4600904FF000470AAA01A90CA8E9
:100D3000FFF7D3FEDDE90DB00C995D46002610B932
:100D400009F101000D18B9EB050003D4C0F1FF361D
:100D500009F10105A5EB09002BE0B9F1010F01DA5A
:100D60004FF001090020B9F1110F0090484601DD54
:100D7000112300E003460AAA01A90CA8FFF7ADFE63
:100D8000DDE90C704D4600268346207800070AD422
:100D9000AB4500DA5D4601A8012D04DD411911F8CB
:100DA000011C302907D04F4502DA17F1040F04DA8D
:100DB000012082460FE06D1EEEE7002F02DCED1BE6
:100DC0003E4403E0781CA84200DD7D1CB81B00F106
:100DD000010A4FF000472078000703D4AA4501DB41
:100DE0004FF0FF3A0021B7F1004F0DF143088DF8A5
:100DF000431024D002202B23002F01DA7F422D2321
:100E00000A21021EA0F1010000DC5FB197FBF1FC9A
:100E100097FBF1F201FB1C7C17460CF1300C08F833
:100E200001CDEEE7A8F1010003702188090501D585
:100E3000452100E06521A0F1010800F8011C099896
:100E40000FA9A1EB0807FF1D00B10120411901EB1B
:100E5000EA70A1693844081A401EA0612078C006D3
:100E600002D42046FFF73EFB099828B1D4E90121BE
:100E70009047206A401C20622078C00622D5204678
:100E8000FFF730FB1EE0002E04DBB34502DD01A8B6
:100E9000805D00E03020D4E901219047206A401CA9
:100EA0002062761CAAF101005FEA000A0AD100F074
:100EB0003EF8C0680168405CD4E901219047206A8F
:100EC000401C2062281EA5F10105DCDC07E0D4E906
:100ED000012118F8010B9047206A401C2062381E3F
:100EE000A7F10107F3DC2046FFF712FB032011B046
:100EF00043E6000001694A1C02610878704700B5AA
:100F00008FB0CDE901310021059105497944CDE942
:100F1000031011466846FFF775FB0FB000BD0000D7
:100F2000E5FFFFFF0A6802F8010B0A60704710B581
:100F3000FFF748FA203010BD30B5B0F10A024FEA91
:100F4000900E71F100034EEA817EB0EB0E0061EB72
:100F500091014FEA101E4EEA017E10EB0E0041EBAC
:100F600011114FEA102E4EEA016E10EB0E0041EB0C
:100F700011214FEA104E4EEA014E10EB0E0041EBEC
:100F80001141401841F100014FEAD00040EA4170A0
:100F90004FEAD10110EB80054FEA810444EA9074D6
:100FA00044EB01046D1944EB0404521BA3414FF0C0
:100FB000000348BF0A3200D530BD401C41F100019A
:100FC00030BD00002DE9F0411F46044603260168AC
:100FD000072A01F4006004DB08B116A505E016A598
:100FE00003E008B115A500E015A521F01000206070
:100FF000A069C01EA0610FB1401EA0612046FFF78E
:1010000071FA4FB1D4E9012138469047206A401C5B
:101010002062C01C206206E0206AFAE7D4E90121C0
:1010200015F8010B9047761EF8D22046FFF770FAAC
:10103000BDE8F0814E414E006E616E00494E4600A3
:10104000696E66002DE9F047814616468AB033483E
:1010500078440DC88DE80D0030487844801C03ACFE
:101060000DC884E80D0041F69B300844372190FB01
:10107000F1F290FBF1F5A5F1800501FB12041B3C98
:1010800002D56442012000E00020DFF890A08046F5
:101090000027FA44AAF1BE0A0DE0E00709D0324663
:1010A000684607EB47010AEB810100F0EAFA8DE898
:1010B000070064107F1C002CEFD1184F7F44AC3F19
:1010C00018E0E80714D007EB04100DF1180A90E8B7
:1010D0000E008AE80E00C068F04201D1981908900D
:1010E000324606A903A800F0CCFA03AB83E8070058
:1010F0006D10641C002DE4D132466946B8F1000F32
:1011000003A802D000F0A9FA01E000F0BAFAC9E998
:101110000001C9F808200AB0BDE8F0873442010098
:1011200001491820ABBEFEE7260002007546FFF716
:1011300049F9AE4605006946534620F0070085464A
:1011400018B020B5FFF72CF9BDE820404FF000069D
:101150004FF000074FF000084FF0000B21F007019F
:10116000AC46ACE8C009ACE8C009ACE8C009ACE8E2
:10117000C0098D46704770475FEA400C08BF91F088
:10118000000F4FEA8C234FEAC12243EA51514FEA44
:101190001C5018BF00F5F0404FEA300018BF41F076
:1011A00000415FEA6C5C00F02980BCF1FF3F08BFA2
:1011B00040F080407047130C06BF12044FF0100C33
:1011C0004FF0000C130E04BF12020CF1080C130FA9
:1011D00004BF12010CF1040C930F04BF92000CF138
:1011E000020CD30F04BF52000CF1010C11464FF05A
:1011F0000002A0F11F00A0EB0C00704711F0004F9F
:1012000008BF704731F000413FF4D5AF0B0C06BF6B
:1012100009044FF0100C4FF0000C0B0E04BF090234
:101220000CF1080C0B0F04BF09010CF1040C8B0F1F
:1012300004BF89000CF1020CCB0F04BF49000CF174
:10124000010CCCF12003A0EB0C0022FA03F302FA0C
:101250000CF241EA030100F10100704720F07F4CDD
:1012600080EA030023F07F47ACEB070303F57C53D0
:1012700000F0004003F1FF032DE980494FEA154BD0
:1012800009B44FEA144325EA0B4E24EA03480FF24F
:10129000042606EB132749083E785FEA320203FB77
:1012A0000667C7F5000707FB06F64FEA54374FEA13
:1012B000D64606F1020607FB066CCCF1005C4FEA4D
:1012C0001C472CEA074C07FB06F40CFB06F504EB65
:1012D00015464FEA961634BF00204FF000404FEA03
:1012E000D13706FB07FC4FEA1C4C0CFB0BF7D21B5B
:1012F00003FB0CF761EB07010CFB0EF7B0EB0740AB
:1013000072EB17420CFB08F734BFA2EB0742B2EBBB
:10131000074261EB17414FEA0C444FEA910706FB85
:1013200007FC4FEA1C4C0CFB0BF7B0EBC74072EB11
:10133000573203FB0CF734BFA2EBC742B2EBC742F4
:1013400061EB57310CFB0EF7B0EBC70072EB577235
:101350000CFB08F734BFA2EBC702B2EBC70261EB8C
:101360005771039F4FEA816141EA921104EBCC046B
:101370004FEAD1374FEA826206FB07FC42EA90123D
:101380004FEA80604FEA1C4C0CFB0BF7D21B03FBAF
:101390000CF761EB07010CFB0EF7B0EB074072EBAB
:1013A00017420CFB08F734BFA2EB0742B2EB07422F
:1013B00061EB17414FEA8C554FEA910704EB9C24EF
:1013C00006FB07FC4FEA1C4C0CFB0BF7B0EBC740CD
:1013D00072EB573203FB0CF734BFA2EBC742B2EB00
:1013E000C74261EB57310CFB0EF7B0EBC70072EB55
:1013F00057720CFB08F734BFA2EBC702B2EBC7026F
:1014000061EB577115EB4C254FEA816141EA92116E
:101410004FEA82624FEAD13742EA901206FB07FC9C
:1014200044F100044FEA80604FEA1C4C0CFB0BF7C0
:10143000D21B03FB0CF761EB07010CFB0EF7B0EBC3
:10144000074072EB17420CFB08F734BFA2EB0742D0
:10145000B2EB074261EB174115EB1C154FEA8131E6
:1014600041EA92414FEA823242EA90424FEA8030AA
:101470004FEA0C7644F1000448EA03434EEA0B4875
:101480004FF0000EB2EB080C71EB030724BF62466D
:1014900039464EEB0E0E4FF0000B001852414941F9
:1014A0004BEB0B0BB2EB080C71EB03077BF1000B62
:1014B00024BF624639464EEB0E0E4FF0000B00186B
:1014C000524149414BEB0B0BB2EB080C71EB03079C
:1014D0007BF1000B24BF624639464EEB0E0E51EAFB
:1014E000020718BF46F0010616EB0E7655F1000212
:1014F00054F1000103D5BDE88901BDE80088BDE8CD
:101500008901BDE80048B619524141EB0101A3F140
:101510000103704780807F7E7D7C7B7A7978777647
:1015200076757473727171706F6E6E6D6C6C6B6AC0
:101530006A6968686766666564646363626161605E
:10154000605F5F5E5E5D5D5C5C5B5B5A5A595958DB
:101550005857575656555555545453535252525145
:10156000515050504F4F4F4E4E4D4D4D4C4C4C4B9B
:101570004B4B4A4A4A4949494848484747474746E2
:10158000464645454544444444434343434242421E
:1015900042414141002B26D4770021D01CB54FEAAF
:1015A000370703B44FF010004FF010014FF0000068
:1015B0000FBCBDE810400BF1010BBBF1010F08BFE0
:1015C0005FEA170722BF12F1010211F101014FF08A
:1015D000004143F1000300F0004043EA000070477F
:1015E000F9D35708DAE746EA064613F1400F4FEA07
:1015F00016461FDD13F1200FDFBF16430A460021F8
:1016000020335B42C8D0C3F1200746EA064602FAFF
:1016100007F74FEA164646EA0706C3F1200722FA03
:1016200003F201FA07F721FA03F14FF0000342EA4F
:101630000702B1E746EA020646EA06464FEA1646C0
:1016400046EA0106BCBF46EA0646360C4FF00003E8
:101650004FF000024FF000019EE72DE9C04893468D
:1016600030B491E8380007C831EA400C48BF34EA8A
:10167000430C03D5FFF7F2FDFFF78CFFF0BCBDE88C
:1016800000882DE9C048934630B491E8380007C877
:1016900010F0804F08BF13F0804F03D100F005F821
:1016A000FFF778FFF0BCBDE8008820F07F4780EAB4
:1016B000030023F07F4C07EB0C03A3F57C5300F0F1
:1016C0000040A3F1FE0392F0000F00F0B38095F00C
:1016D000000F00F077802DE901494FEA11404FEAF1
:1016E000144621EA004800FB06FC24EA064708FBF2
:1016F00006F607FB08F800FB07F718EB06484CEB6B
:10170000164C4FEA124B18EB07484FEA15464CEBC4
:10171000174022EA0B4E0BFB06FC25EA06470EFBA0
:1017200006F607FB0EFE0BFB07F71EEB064E4CEB17
:10173000164C4FF000061EEB074E4CEB174B18EB08
:101740000B0840F1000018EB0E0B58EB000840F1BD
:1017500000008F1A4FF000013CBFC943661B14BF45
:10176000B5EB040C00213CBFC943F61B4FEA1744FC
:101770004EEA8E0E27EA04454FEA1C4704FB076237
:101780002CEA074C05FB07F70CFB05F604FB0CFCE9
:1017900016EB074642EB174216EB0C4642EB1C4297
:1017A0001BEB060658EB0202414146EA9E0601D5B4
:1017B000BDE80189B619524141EB0101A3F10103D2
:1017C000BDE801894FEA14454FEA114724EA05466E
:1017D00021EA074C05FB07F406FB07F70CFB06F1B3
:1017E00005FB0CFC11EB074144EB17444FEA124791
:1017F00011EB0C4144EB1C4422EA074C05FB07F2B9
:1018000006FB07F70CFB06F605FB0CFC16EB074680
:1018100042EB174216EB0C4642EB1C456A1854F19A
:10182000000148BF7047B619524141EB0101A3F1D5
:101830000103704795F0000F37D04FEA11424FEA8D
:10184000144721EA024624EA074C02FB07F106FB93
:1018500007F70CFB06F402FB0CFC14EB074441EB0E
:1018600017414FEA154714EB0C4441EB1C4125EAA4
:10187000074C02FB07F506FB07F70CFB06F602FB1D
:101880000CFC16EB074645EB174516EB0C4645EBF3
:101890001C42121951F1000148BF7047B61952415C
:1018A00041EB0101A3F1010370474FEA14454FEAF0
:1018B000114724EA054621EA074C05FB07F106FB20
:1018C00007F70CFB06F24FF0000605FB0CFC12EBD1
:1018D000074241EB174112EB0C4251EB1C4148BF50
:1018E0007047921841EB0101A3F10103704700001A
:1018F0000000000021B1826842F00102826003E032
:10190000826822F0010282607047000010B5044630
:101910001248844208D10121401505F01BFF002127
:10192000601505F017FF17E00D48844208D101212A
:10193000001505F00FFF0021201505F00BFF0BE04F
:101940000848844208D10121C80305F003FF0021A3
:101950004FF4004005F0FEFE10BD000000240140E1
:1019600000280140003C0140014600208A6802F046
:1019700004020AB1012000E0002070470146C86C53
:1019800080B270470246002013680B400BB1012063
:1019900000E000207047014600208A6802F008023B
:1019A0000AB1012000E000207047000030B5024677
:1019B0000020002350680F4C20400D790C6844EA49
:1019C00005242043506090680B4C2040D1E902541C
:1019D0002C434D7944EA450420439060D06A20F4BA
:1019E00070000C7C641EE4B2234340EA0350D062D2
:1019F00030BD0000FFFEF0FFFDF7F1FFF0B504463B
:101A00000D4600200021092D11DDE068A5F10A0630
:101A100006EB4607072606FA07F18843A5F10A06F2
:101A200006EB460603FA06F10843E0600CE0206985
:101A300005EB4507072606FA07F1884305EB45063F
:101A400003FA06F108432061072A0FDA606B561E7D
:101A500006EB86071F2606FA07F18843561E06EB9B
:101A6000860605FA06F10843606322E00D2A0FDAC4
:101A7000206BD61F06EB86071F2606FA07F1884360
:101A8000D61F06EB860605FA06F10843206310E030
:101A9000E06AA2F10D0606EB86071F2606FA07F19B
:101AA0008843A2F10D0606EB860605FA06F1084307
:101AB000E062F0BD816841F008018160704721B1AA
:101AC000826842F4A002826003E0826822F4A002ED
:101AD00082607047816841F004018160704710B5F1
:101AE00002460B460020002104E0545C0444A0B2EE
:101AF0004C1CE1B29942F8DB10BD00002DE9F04F1B
:101B00009BB081460D4616461F46DDF890A04FF06B
:101B1000640B4FF000082CE04846FEF756FE01909B
:101B20001648426948460199904714200BF084FCFE
:101B300012486421826902A8904750460BF07CFC51
:101B400014200BF079FC00240DE0335D55F82420BF
:101B5000642102A80BF050FC18B101201BB0BDE8B5
:101B6000F08F601CC4B2022CEFDB08F1010000F022
:101B7000FF08B845D0DB0020F0E70000D050010896
:101B800010B509F08BF909F0A9FC10BD00BFFEE704
:101B900070B53648407802281ED13548006800F0FC
:101BA000100058B110203249086032480068B0B1C6
:101BB0003048062102680120904710E02C48006858
:101BC00000F0030058B12B48006840B129480221B9
:101BD00002680120904702E020202549086024483F
:101BE00008300468001F056804F0040088B905F493
:101BF000806070B91E48001D006840F480601C4978
:101C0000091D08601C48006818B11B4801680320C2
:101C1000884704F0020088B905F4007070B91448D0
:101C2000001D006840F400701149091D0860124849
:101C3000006818B1104801680120884704F00100CD
:101C400090B905F4807078B9C4F307405F280BD2CF
:101C50005F20B0EB146F07D10548001D006840F409
:101C600080700349091D086070BD00000603002054
:101C700010640040100300200C03002070B52248BF
:101C8000006800283FD021480468001F0568042030
:101C90001E491439086004F0040078B105F480602E
:101CA00060B11A48001F006820F480601749091FBE
:101CB0000860154801680420884724E004F0020009
:101CC00078B105F4007060B11048001F006820F47E
:101CD00000700E49091F08600B48016803208847FF
:101CE00011E004F0010070B105F4807058B10748AC
:101CF000001F006820F480700449091F0860024832
:101D000001680220884770BD0C0300201864004061
:101D100070B505460C46284605F02CFD064626EA19
:101D20000401284608F066FE70BD00000EB500BF35
:101D300000BF0027B8460024002501228F499048A3
:101D400005F0D5FE8D4800780A280AD08B48007827
:101D50000B2806D0894800780C2802D00B20874930
:101D600008704FF4FA700BF067FB00BF85480068FD
:101D70000BF0F0FB0446002CF8D00A2020707F48BE
:101D800000786070642221467F4800680BF0D6FB23
:101D900000BF64217D4800680BF0C4FB8DE807009C
:101DA000009810281BD1019D6878744909788842F1
:101DB0000BD1A87876498870E878C8700846807892
:101DC000744988707248C078C87000BF29466D4851
:101DD00000680BF0EFFB0646002EF7D100256E4899
:101DE000006878B902E014200BF026FB6A4800680E
:101DF0000028F8D06648807808B9012000E000206B
:101E0000634988706548006850B902E014200BF0FF
:101E100013FB624800680028F8D001205C498870F4
:101E20005E48001D006858B902E014200BF004FB66
:101E30005A48001D00680028F7D0002054498870D7
:101E40005348807828B15248C07810B901205049D1
:101E5000C8704A4800780A2803D0484800780C28FF
:101E600009D14B48807818B164204949C87002E014
:101E700000204749C8704648807810B9002044497E
:101E8000C870444880784249897888421BD04048CD
:101E90008078404988703E488078012809D13220F6
:101EA0003B49C87000213E480BF0B8FB3D49086033
:101EB00006E000203649C8703A4800680BF0DCFBA9
:101EC00014200BF0B9FA142F02DA781CC7B202E022
:101ED00000274FF00108344880782D4989788842DE
:101EE00005D13148C0782A49C97888421FD028488E
:101EF00080782D4988702648C078C87000BF214876
:101F000000680BF027FB0446002CF8D00B20207053
:101F10001A48007860701E488078A0701C48C0780D
:101F2000E07064222146184800680BF007FBB8F106
:101F3000000F18D04FF0000800BF124800680BF0E7
:101F400009FB0446002CF8D00C480078607010485B
:101F50008078A0700E48C078E07064222146134853
:101F600000680BF0EBFA0A48C07841004FF080405F
:101F700006F07FF80A200BF05FFA0AE7A4010020C0
:101F800010C00308C0010020CC010020C8010020BF
:101F9000A5010020A9010020000121422881214241
:101FA000104E0108BC010020AD010020C40100203A
:101FB00000BF00BF284800682849D1F838114840C0
:101FC00088B9254800684006000E25490870234856
:101FD000D0F83801C0B209780843214908700020C0
:101FE0002049087013E01F48007880B901201D497E
:101FF00008701948006828B11B480078401C1A492D
:10200000087004E019480078401C18490870164808
:10201000007801280BDD0020134908701448C078AF
:10202000002804DD1248C078401E1149C8700F48CE
:10203000007801280BDD00200C4908700C48C0789E
:10204000642804DA0A48C078401C0949C8700A208C
:102050000BF0F2F9AEE7000034812142008021420A
:10206000D9010020D8010020DA010020DB01002086
:10207000A50100207047000010B50548006800F079
:102080000F04034844602046FFF7F4FF10BD000032
:10209000000002407047000010B505480068C0F31A
:1020A00003142001024948602046FFF7F3FF10BDEA
:1020B000000002407047000010B505480068C0F3FA
:1020C00003242002024948602046FFF7F3FF10BDB9
:1020D000000002407047000010B505480068C0F3DA
:1020E00003342003024948602046FFF7F3FF10BD88
:1020F000000002407047000010B505480068C0F3BA
:1021000003442004024948602046FFF7F3FF10BD56
:10211000000002407047000010B505480068C0F399
:1021200003542005024948602046FFF7F3FF10BD25
:10213000000002407047000010B505480068C0F379
:1021400003642006024948602046FFF7F3FF10BDF4
:10215000000002407047000010B50548006800F01C
:102160000F040348001D04602046FFF7F3FF10BD75
:10217000000402407047000010B506480068C0F334
:10218000031420010349091D08602046FFF7F2FFF0
:1021900010BD0000000402407047000010B5064862
:1021A0000068C0F3032420020349091D086020468B
:1021B000FFF7F2FF10BD00000004024010B50C480C
:1021C0000068C0F3033434B120030949091D0860D5
:1021D000204600F00FF806480068C0F3034434B10D
:1021E00020040349091D0860204600F004F810BDD2
:1021F0000004024070477047704700002DE9F0412D
:102200004D48007881287BD10225C82646F2A817C0
:1022100040F6B83800240020484908704849087042
:102220004848007800287CD0402000F0B9F8012808
:1022300077D1002041490870414908704FF4FF717F
:102240004148FEF764FB4FF4FF714048FEF75FFB27
:1022500062E03F48006850BB04F018FD044640F6B9
:10226000B83084421ADD35480078C82816DD334876
:102270000078420035493748FEF7D2FA30480078F6
:10228000420031493448FEF7CBFA2C4800783349F4
:1022900008702B480078324908703EE027480178E2
:1022A0000078401C254A1070284820F81140284822
:1022B000006838B300F0E8FD044646F2A8108442F6
:1022C00007DC40F6B83084421DDD1D480078C82880
:1022D00019DD1A48007842001C491E48FEF7A0FA92
:1022E00017480078420018491B48FEF799FA13482E
:1022F00000781A49087012480078194908700CE0F3
:1023000010E00EE008E00E4801780078401C0C4A0E
:1023100010700D4820F811409BE700BF00200949CC
:10232000087000E000BF00BF402000F021F840200E
:1023300000F018F8BDE8F081040000200E00002035
:102340000D0000209C01002068030020660500208D
:10235000180122425E1D0020601B00209E0100200B
:102360009D010020014908607047000014040140ED
:10237000014908607047000014040140002006492C
:102380000860091D0860091D0860091D08600348F0
:10239000014914310860704700040140FFFF0F003D
:1023A000014600200022074B1B6803EA0102054B8F
:1023B00014331B680B4013B10AB1012000E0002068
:1023C0007047000000040140002123498279002A5F
:1023D0003AD00A46126803689A430B461A600A1DEF
:1023E000126803689A430B1D1A60027911440A6847
:1023F00003681A430A60184A0832126803689A434D
:10240000154B08331A601A1D126803689A43124B61
:102410000C331A604279102A0ED11A1F1268036811
:102420001A430D4B08331A601A1D126803681A43C9
:10243000094B0C331A600DE00749427911440A68D0
:1024400003681A430A6005E0027911440A680368C8
:102450009A430A60704700000004014010B5164816
:102460000078F8B915480BF08FF81549086000217D
:1024700014480BF041F814490860002113480BF090
:102480003BF813490860002112480BF035F8124957
:102490000860002111480BF02FF811490860012055
:1024A0000549087009F0B8F90BF0B2FC0AF0DCF845
:1024B00009F03AF810BD000024000020680F010860
:1024C00010000020740F0108140000207C0F010888
:1024D00018000020840F01081C0000208C0F010848
:1024E0002000002010B501F0B7FE0020364908603A
:1024F0003649C1F8A00136490860091D086001206D
:10250000091D08603049091D086031490839086013
:102510002E49C1F898010A2008F0EEFF40212D480D
:1025200000F0A0FC00B9012480212A4800F09AFCA8
:1025300000B902248021284800F094FC00B903244B
:102540004FF40061234800F08DFC00B9042401F031
:102550004FFE01201C4908601C49C1F8A0011C491C
:102560000860091D08600020091D08601649091D42
:1025700008601749083908601449C1F898010A2011
:1025800008F0BAFF4021144800F06CFC00B9E4B236
:102590004FF480710F4800F065FC08B9201DC4B2EB
:1025A0004FF400710B4800F05DFC10B904F1080015
:1025B000C4B24FF48061074800F054FC10B904F134
:1025C0000C00C4B2204610BD980122420080214276
:1025D000A4812142000C01400010014010B501F01F
:1025E0003BFE0020204908602049C1F8A001204995
:1025F0000860091D08600120091D08601A49091DAD
:1026000008601B49083908601849C1F898010A2078
:1026100008F072FF4021174800F024FC08B901249B
:1026200000E000248021134800F01CFC08B90120C0
:1026300000E00020044380210F4800F013FC08B99B
:10264000012000E0002004434FF40061094800F03D
:1026500009FC08B9012000E00020044314B1FFF791
:1026600041FF10BDFF20FCE798012242008021427B
:10267000A4812142000C01400010014070B5782572
:10268000FFF7ACFF044617480078844215D00020BD
:10269000154908701548007810B1002013490870DA
:1026A000FF2C06D00A200AF0C7FE0E480470204610
:1026B00070BDFF200B49087011E00A4800780F2810
:1026C0000DD109480078782804DD012007490870F9
:1026D000D120EDE704480078401C03490870FF2032
:1026E000E6E70000400000204200002041000020FA
:1026F0007FB50F2615A30FCB8DE80F00FFF7BEFFA8
:10270000054605F0F000D0280AD11448007828B911
:10271000012012490870284604B070BDFF20FBE775
:102720000E48007820B100200C490870FE20F3E725
:10273000002407E01DF80400A84201D12046EBE781
:10274000601CC4B20F2CF5DBFF20E5E70504080C84
:1027500003070B02060A010D100F0E0043000020B4
:1027600010B5084800680AF087FF074800680AF0BB
:1027700083FF064800680AF07FFF054800680AF0FA
:102780007BFF10BD28000020300000203C0000200E
:10279000480000200146092926D007DC2ED2DFE8B8
:1027A00001F02D191B1D1F212D2D250081291FD062
:1027B00006DC0A2920D041290AD043291ED105E090
:1027C000822917D0832919D1322070473120FCE7A4
:1027D0002420FAE71120F8E71220F6E71320F4E7A7
:1027E0001420F2E72220F0E72320EEE72120ECE797
:1027F0003420EAE73320E8E70A20E6E70020E4E7B0
:10280000704700002DE9F041054688461746002430
:102810002819174909880180A41C28191549096835
:102820000160241D01222146641C6A54B81C86B232
:1028300032122146641C6A542146641C6E542819C5
:102840003A464146FDF7ECFFE01984B2A01FC1B241
:10285000A81DFFF744F9064632122046611C8CB2CF
:102860002A542046611C8CB22E542046BDE8F081CB
:10287000A60F0108A90F010830B5044604254FF43E
:10288000302000F06FF80546042D17D10C48006980
:1028900040F002000A49086108464461006940F0BE
:1028A000400008614FF4302000F05CF80546044811
:1028B000006941F6FD71084001490861284630BDB4
:1028C0000020024004200B49C96801F0010109B150
:1028D00001200EE00749C96801F0040109B1022096
:1028E00007E00449C96801F0100109B1032000E0C4
:1028F00004207047002002400348006940F0800037
:1029000001490861704700000020024070B504468C
:102910000D460426F00200F025F80646042E11D1DB
:102920000948006940F00100074908612580F0026C
:1029300000F018F806460448006941F6FE710840A8
:1029400001490861304670BD002002400248034939
:1029500048600348486070472301674500200240F3
:10296000AB89EFCD00B502460423FFF7ABFF03466A
:1029700003E0FFF7A7FF0346521E012B01D1002AF7
:10298000F7D102B90523184600BD000018B500288C
:1029900044D0C0F34211C0F30322214B9B6903F0E2
:1029A00001032BB91E4B9B6943F001031C4CA3612F
:1029B00000F48053A3B11B4BDB69009300F01F03AD
:1029C00001FA03F3009C9C43009400F01F0302FAF9
:1029D00003F3009C23430093124C009BE3611DE032
:1029E000104B5B68009300F01F0301FA03F3009C97
:1029F0009C43009400F01F0302FA03F3009C23435E
:102A0000009307210022009B23EA01630093009BAF
:102A100043EA02630093034C009B636018BD00000F
:102A2000001002400000014030B500228B071C0F4F
:102A30000F2303FA04F20B4B8C1053F8243093430A
:102A4000084C8D1044F8253023468C1053F8243060
:102A50008C07240F00FA04F42343024C8D1044F831
:102A6000253030BD0800014001461D48814204D197
:102A70001C488069C0F3800070471B48814204D124
:102A800018488069C0F3C000F6E71848814204D1B5
:102A900014488069C0F30010EEE71548814204D164
:102AA00010488069C0F34010E6E71248814204D123
:102AB0000C488069C0F38010DEE70F48814204D1E2
:102AC00008488069C0F3C010D6E70C48814204D1A1
:102AD00004488069C0F30020CEE70020CCE7000066
:102AE0000008014000100240000C014000100140AD
:102AF0000014014000180140001C0140002001406A
:102B00002DE9F04102460025002600200023002484
:102B1000002791F803C00CF00F0591F803C00CF0EA
:102B2000100CBCF1000F03D091F802C04CEA05056F
:102B300091F800C0BCF1000F31D0146800202BE0E8
:102B40004FF0010C0CFA00F3B1F800C00CEA0306D8
:102B50009E4220D183004FF00F0C0CFA03F7BC43C8
:102B600005FA03FC4CEA040491F803C0BCF1280FF9
:102B700006D14FF0010C0CFA00FCC2F814C00AE0B8
:102B800091F803C0BCF1480F05D14FF0010C0CFACD
:102B900000FCC2F810C0401C0828D1D31460B1F862
:102BA00000C0BCF1FF0F34DD546800202EE000F1BE
:102BB000080C4FF0010808FA0CF3B1F800C00CEA59
:102BC00003069E4221D183004FF00F0C0CFA03F74D
:102BD000BC4305FA03FC4CEA040491F803C0BCF1C1
:102BE000280F05D100F1080C08FA0CF8C2F814807F
:102BF00091F803C0BCF1480F07D100F1080C4FF069
:102C0000010808FA0CF8C2F81080401C0828CED33E
:102C10005460BDE8F0812DE9F04105460C461746A9
:102C200098460F2C02D90020BDE8F0812846FFF716
:102C30001BFF18B90121284600F072F8B8F1000F07
:102C400010D1022F05D1E8680121A1408843E86036
:102C500008E0032F06D127F00107E8680121A14011
:102C60000843E860082C01D22E4601E0083C2E1DE6
:102C70003068A2000F2191408843306048EA870005
:102C8000A10088403168084330600120CCE7000093
:102C9000F0B50A46002300240021002500F000467C
:102CA000B6F1004F02D11D4EF16901E01B4E716873
:102CB000C0F3034583B200F44016B6F5401F08D1B7
:102CC00021F07061154E766826F07066134F7E60B5
:102CD00012E000F48016B6F5801F06D1032606FA2E
:102CE00005F4A14341F0706106E0460D360103FA98
:102CF00006F6B14341F0706122B1460D360103FA88
:102D000006F6314300F00046B6F1004F02D1034E03
:102D1000F16101E0014E7160F0BD00000000014072
:102D2000002945D0454A904206D1454A926942F071
:102D30000402434B9A6180E0424A904206D1404AE5
:102D4000926942F008023E4B9A6176E03E4A904218
:102D500006D13B4A926942F01002394B9A616CE00D
:102D60003A4A904206D1364A926942F02002344BE8
:102D70009A6162E0364A904206D1314A926942F045
:102D800040022F4B9A6158E0324A904206D12C4AB9
:102D9000926942F080022A4B9A614EE02E4A90429C
:102DA0004BD1274A926942F48072254B9A6144E0E4
:102DB000224A904206D1224A926922F00402204B14
:102DC0009A613AE01F4A904206D11D4A926922F068
:102DD00008021B4B9A6130E01B4A904206D1184A08
:102DE000926922F01002164B9A6126E0174A90422F
:102DF00006D1134A926922F02002114B9A611CE01D
:102E0000134A904206D10E4A926922F040020C4BBE
:102E10009A6112E00F4A904206D1094A926922F063
:102E20008002074B9A6108E00B4A904205D1044AA0
:102E3000926922F48072024B9A6170470008014047
:102E400000100240000C014000100140001401403D
:102E500000180140001C0140002001400146886824
:102E600080B270470246002093680B400BB10120EE
:102E700000E00020704741617047016170470AB16E
:102E8000016100E04161704770B5002447F23055A0
:102E90000AE0601C84B2022008F02EFB47F230509A
:102EA000844201DB204670BD024800680028F0D152
:102EB0002046F8E71801224200BFFEE770B504463D
:102EC0000D46034A2946204600F086F870BD0000F2
:102ED0007851010810B5024800F074FA10BD0000E6
:102EE0007851010810B5024800F0FDFA10BD00004D
:102EF0007851010810B5024800F0BBFD10BD00007C
:102F00007851010808B5024800F0B7FD009008BDEF
:102F10007851010810B504460249204600F0B1FD81
:102F200010BD000078510108F8B504460D4616465C
:102F30001F4604483B46324629460090204600F092
:102F4000CCFDF8BD78510108F8B504460D4616468B
:102F50001F4604483B46324629460090204600F072
:102F60002DFEF8BD7851010810B5044602492046EF
:102F700000F08EFE10BD00007851010870B50446C7
:102F80000D46034A2946204600F030FF70BD000080
:102F90007851010870B504460D46034A294620467B
:102FA00000F05CFF70BD00007851010810B50248C8
:102FB00000F086FF10BD000078510108014800684C
:102FC000704700007451010808B50248006800907D
:102FD00008BD0000705101082DE9F74F0F46144657
:102FE000606A007E00F0020018B94FF0FF30BDE8C3
:102FF000FE8F0098012806D0022825D003286ED025
:1030000004286DD175E107F4004030B120680088D4
:1030100040F040002168088005E02068008820F02A
:1030200040002168088040F2FF3000EA470040F489
:10303000804007F4806111B14FF4004100E00021AD
:10304000084321680881A6E1D44D012F02D0022F48
:1030500042D116E0D248854202D96FF00300C6E79C
:10306000D048854202D26FF00300C0E7CE48B5FBDE
:10307000F0F04FEA5008CD48B5FBF0F000F1010B3D
:103080002FE0C748854202D96FF00300AFE7C84878
:10309000854202D26FF00300A9E7C64885420DD3EE
:1030A000B5FBF0F100FB115040B9C348B5FBF0F09F
:1030B0001921B0FBF1F040F4404807E0BE48B5FBF1
:1030C000F0F00321B0FBF1F040F40048BB48B5FB41
:1030D000F0F000F1010B04E06FF0030087E728E057
:1030E00056E100BF2068008820F0010021680880B8
:1030F0002068808820F03F0021688880AB48B5FBBD
:10310000F0F0216889880843216888802168A1F847
:103110001C802168A1F820B02068008840F00100E0
:10312000216808802068008840F480602168088059
:1031300031E12068008820F001002168088004F057
:103140007DFE9F4800689849B0FBF1F08508A18A90
:103150000122E0681AB101238B40036107E001F10D
:1031600010034FF0010C0CFA03FCC0F810C000BFB4
:10317000E18A012220691AB101238B40036107E033
:1031800001F110034FF0010C0CFA03FCC0F810C061
:1031900000BFA18A03230122E068FFF73CFDE18A1A
:1031A000032301222069FFF736FD4FF0000A36E0C5
:1031B000E18A20698268CA4002F0010202B131E06E
:1031C000A18A0122E0681AB101238B40036107E064
:1031D00001F110034FF0010C0CFA03FCC0F810C011
:1031E00000BF002600E0761CAE42FCD3A18A00227C
:1031F000E0681AB101238B40036107E001F110037D
:103200004FF0010C0CFA03FCC0F810C000BF002600
:1032100000E0761CAE42FCD30AF101008246BAF10E
:10322000090FC5D300BFE18A20698268CA4002F055
:10323000010900BFE18A002220691AB101238B40F5
:10324000036107E001F110034FF0010C0CFA03FCDD
:10325000C0F810C000BF002600E0761CAE42FCD3D0
:10326000A18A0122E0681AB101238B40036107E0C3
:1032700001F110034FF0010C0CFA03FCC0F810C070
:1032800000BF002600E0761CAE42FCD3E18A01229A
:1032900020691AB101238B40036107E001F110039B
:1032A0004FF0010C0CFA03FCC0F810C000BFA18A5B
:1032B00003231A46E068FFF7AEFCE18A03231A46AF
:1032C0002069FFF7A8FC2068008840F00100216811
:1032D0000880606A006820B1606A01684FF48070FD
:1032E0008847B9F1000F01D0002080E64FF0FF3091
:1032F0007DE62068808820F46060216888802068EE
:10330000008840F40070216808800020616A8860AD
:103310000021606AC160606A0161606A8182606ADE
:103320008175606A406820F00100616A4860606AE7
:10333000406820F00200616A4860606A406820F0DE
:103340000400616A4860606A406820F00800616AB1
:103350004860606A406820F01000616A4860606AF6
:10336000406820F02000616A48602068008820F0F2
:103370000100216808802068008840F00100216871
:1033800008802068008840F480602168088002E09E
:103390004FF0FF302BE600BF002028E60051250249
:1033A00080DE800280841E00A086010040420F0063
:1033B00000093D0080969800801A06001516050049
:1033C000140300202DE9F04104462068868A002776
:1033D000002506F4004008B145F4004506F480409D
:1033E00008B145F4804506F4805008B145F4805595
:1033F00006F4006008B145F4006506F4806000B38F
:1034000045F480652068008840F4007021680880D9
:10341000606A406820F00100616A4860606A406844
:1034200020F00200616A48600021606A0161606A00
:1034300081750127606A807D00F0040008B947F0BB
:10344000100706F40070D0B145F40075606A40685A
:1034500020F00100616A4860606A406820F0020064
:10346000616A4860606A406820F010001030616A4C
:1034700048600021606A0161606A8175412706F435
:103480008070C8B145F48075606A406820F0200003
:103490002030616A4860606A4068C0F3400050B9FB
:1034A000606A406820F00100616A48600021606A3B
:1034B0000161606A817581272068808AA84321683C
:1034C000888277B1606A006858B1606AC068616AD2
:1034D0008968884201D247F00207606A016838466D
:1034E0008847BDE8F0812DE9F0470446606A00F1A5
:1034F00008052068878A07F00100C0B1A88900F498
:10350000806030B1A889062101EAE01040F0F0089F
:1035100009E0287B40064FEA1068606A4068C0F303
:10352000800040EA08082068A0F810809FE207F0B9
:10353000080068B1287B21680882606A4068C0F38F
:1035400080000028F2D0A87B40F00200A8738EE231
:1035500007F00200002869D0A87B00F00400D0B179
:10356000606A406820F00100616A48600126D5E980
:103570000010884201D246F00206606A4068C0F33B
:10358000C00008B146F02006606A006818B1606AA1
:10359000016830468847606A4068C0F340000028F0
:1035A0004DD0606A4068C0F38000F0B328680128FD
:1035B00005D12068008820F4806021680880206898
:1035C000808A2068008BA87B00F0020050B1A87BA5
:1035D00020F00200A8732068008840F48070216801
:1035E00008807BE0286801280BD1A87B00F001004F
:1035F000002873D12068008840F40070216808809A
:103600006CE02868022812D12068008820F48060CD
:10361000216808802068008840F4006021680880E4
:10362000A87B40F01000A87358E008E06CE0286820
:10363000032853D1A87B40F01000A8734EE0206807
:10364000B0F81890606A4068C0F34000E8BB09F029
:10365000100038B1606A406820F008000830616AE4
:10366000486005E0606A406820F00800616A4860D0
:1036700009F0040030B1606A406820F00400616A1B
:10368000486006E0606A406820F00400001D616A3E
:1036900048600026A86848B9606A4068C0F38000A6
:1036A00010B146F0080601E046F00406606A406882
:1036B000C0F3C00008B146F0200646B1606A006859
:1036C00028B1606A0168304600E007E08847606A18
:1036D000406820F00100401C616A4860A87B40F00F
:1036E0002400A873606840B1A06830B12068808869
:1036F00040F4006021688880B9E12068808840F447
:10370000806021688880B2E107F0100028B30020B3
:10371000A860A8732068008840F480602168088051
:10372000606A406820F00100616A48600126D5E9BE
:103730000010884201D246F00206606A4068C0F379
:10374000C00008B146F02006606A00680028D3D0A7
:10375000606A01683046884789E1A87B00F0200054
:103760000028C9D0A87B00F0080090B3606A4068C8
:10377000C0F340000028BFD0606A807D00F00100E7
:1037800030B12068808820F400702168888005E0CE
:103790002068008840F40070216808800020A8603C
:1037A000A87B20F02000A873606A406820F0010028
:1037B000616A4860606A406820F00200616A48609F
:1037C000606A0068002897D0606A01680120884715
:1037D0004DE1FFE707F08000002870D0606A406884
:1037E000C0F34000C8B3A87B00F01000B0B307F0EE
:1037F0000400002887D02068808820F48060216839
:103800008880A87B00F0010030B12068808820F417
:1038100000702168888005E02068008840F400700E
:10382000216808800020A860A87B20F02000A873F1
:10383000606A406820F00100616A4860606A406820
:1038400020F00200616A4860606A00680028BFD00A
:10385000606A01680120884709E111E0FFE7D5E9C6
:103860000110405C216808826868401C6860D5E9E6
:1038700000108842ACD1A87B40F01000A873F6E09D
:10388000A86830B9606A006818B1606A01680420ED
:103890008847A86870B1D5E90110405C21680882AA
:1038A0006868401C6860D5E90010884290D100200B
:1038B000A860DCE0FF2021680882D8E0FFE707F07D
:1038C0004000002884D0606A4068C0F340000028AF
:1038D0007DD0A87B00F01000E8B307F004000028BA
:1038E000BAD02868022804D0D5E90001801E8142A0
:1038F00048D12068808820F4806021688880A87B77
:1039000000F0010030B12068808820F40070216848
:10391000888005E02068008840F4007021680880F5
:103920002068008AC1B26A68501C6860A868815427
:103930002068008AC1B26A68501C6860A868815417
:103940000020A860A87B20F02000A873606A40686F
:1039500020F0010000E024E0616A4860606A40688D
:1039600020F00200616A48602068008820F400604E
:1039700021680880606A006850B3606A01680120AD
:10398000884774E02068008820F4806021680880FF
:103990002068008AC1B26A68501C6860A8688154B7
:1039A00065E02068008AC1B26A68501C6860A86837
:1039B0008154286801282CD12068808820F48060F8
:1039C00021688880A87B00F0010040B101E030E070
:1039D0003BE02068808820F4007021688880002007
:1039E000A860A87B20F02000A873606A406820F0DF
:1039F0000100616A4860606A406820F00200616A04
:103A00004860606A006800B3606A01680120884706
:103A10002DE0D5E90001C01E814228D120688088B0
:103A200020F4806021688880A87B40F01000A87393
:103A30001DE02068008A00F0FF08A86830B92068FF
:103A4000008820F480602168088010E0D5E900102B
:103A500088420CD2D5E9011000F801806868401C4A
:103A60006860D5E90010884201D10020A860BDE857
:103A7000F0870146486AC06870470146486A406856
:103A8000704770B505460C46606A007E00F0010084
:103A900008B1002070BD208BFEF778FF0121E0689F
:103AA000FFF73EF9A18A03231A46E068FFF7B3F84F
:103AB00001212069FFF734F9E18A03231A462069BE
:103AC000FFF7A9F81C21606AFCF743FF606A0560F4
:103AD0000120616A08760020DCE770B50546049C89
:103AE00001B112B96FF0040070BD25F40440B0F5C7
:103AF000806F02D36FF00400F6E7606A406800F060
:103B0000010010B16FF00100EEE7606A807D00F007
:103B1000010030B900BF2068008B00F002000028CF
:103B2000F9D1606A406820F00100401C666A70604C
:103B3000606A406820F00200801C666A7060606AFB
:103B4000406820F00400001D666A7060606A40688A
:103B500020F02000666A7060606A406820F0100003
:103B6000666A7060606A82600026606AC660606A29
:103B70000161606A8582606A86752BB1606A807DAA
:103B800040F00106606A86752068008840F4806015
:103B9000266830802068808820F400702668B08015
:103BA0002068008840F48070266830802068808813
:103BB00040F400702668B080002095E770B5054697
:103BC000049C01B112B96FF0040070BD25F40440EB
:103BD000B0F5806F02D36FF00400F6E7606A4068CA
:103BE00000F0010010B16FF00100EEE7606A807D27
:103BF00000F0010030B900BF2068008B00F0020027
:103C00000028F9D1606A406820F00100401C666A13
:103C10007060606A406820F00200801C666A706014
:103C2000606A406820F00400666A7060606A4068FC
:103C300020F02000666A7060606A406820F0100022
:103C4000666A7060606A82600026606AC660606A48
:103C50000161606A8582606A86752BB1606A807DC9
:103C600040F00106606A86752068808820F4007044
:103C70002668B0802068008840F480702668308014
:103C80002068808840F400702668B08000209CE79F
:103C900070B505460C4625B1012D44D0022D41D109
:103CA00044E05148C069216A08434F49C861002077
:103CB0002168088094F91C0006F0D8FE94F91D00D4
:103CC00006F0D4FE4848C069216A88434649C86165
:103CD000606A406820F00100616A4860606A40687C
:103CE00020F00200616A4860606A406820F00400C9
:103CF000616A4860606A406820F00800616A486054
:103D0000606A406820F01000616A4860606A40683C
:103D100020F02000616A4860606A007E20F00200A6
:103D2000616A08765CE06FF0030070BD606A007E37
:103D300000F0010010B94FF0FF30F6E7606A007E36
:103D400000F0020008B10020EFE72748C069216AAF
:103D500008432549C86194F91C0006F079FE94F9DE
:103D60001D0006F075FE94F91C0006F09DFE94F906
:103D70001D0006F099FE1C480069216A08431A4993
:103D8000086100BF00BF00BF00BF17480069216A7B
:103D90008843154908612068808840F44070216894
:103DA00088802068808820F480602168888020686E
:103DB000008820F08000216808802068008840F09A
:103DC0000100216808802068008840F48060216834
:103DD0000880606A007E40F00200616A087600BFD9
:103DE00000BF0020A1E700000010024010B503460C
:103DF00003B111B96FF0040010BD506A406800F0C3
:103E0000010010B16FF00100F6E7506A406820F041
:103E10002000546A6060506A406820F00800546ACC
:103E20006060506A81600024506AC460506A036117
:103E3000506A84751068808840F480501468A080AF
:103E40001068008840F480601468208010688088C2
:103E500040F400701468A0800020CDE710B5034640
:103E600003B111B96FF0040010BD506A406800F052
:103E7000010010B16FF00100F6E7506A406820F0D1
:103E80002000546A6060506A406820F00800546A5C
:103E90006060506A81600024506AC460506A0361A7
:103EA000506A84751068008840F48060146820802F
:103EB0001068808840F400701468A0800020D3E768
:103EC00010B50446A18A02230022E068FEF7A3FE93
:103ED000E18A022300222069FEF79DFE2120FEF7E1
:103EE00055FD0020616A087610BD00002DE9F047FD
:103EF00006468A4615461F4640F6B83900202D4929
:103F0000086000244FE035F8140040F6B8318842CC
:103F10000DDA35F81400092190FBF1F035F8141092
:103F200008440A2190FBF1F01FFA80F80DE035F803
:103F30001400092190FBF1F035F8141008440A210F
:103F400090FBF1F014301FFA80F80CE001201949C1
:103F50000860082007F0D0FA00201749C1F8BC011A
:103F6000102007F0C9FAB8F10000A8F101011FFA0A
:103F700081F8EBD10F49086036F81400142190FB4A
:103F8000F1F036F8141008441FFA80F802E002201D
:103F900007F0B2FAB8F10000A8F101011FFA81F8A8
:103FA000F5D1601CC4B2BC42ADDB00200149086001
:103FB000BDE8F087BC8121420080214210B5002479
:103FC00000F074F82548006800B901242348001D5A
:103FD000006800B9022421480830006800B90324B1
:103FE00000F09CF81E48006800B9E4B21C48001DAF
:103FF000006808B9E01CC4B219481030006808B95C
:10400000A01DC4B216481430006810B904F10900AC
:10401000C4B20D2C1CD2DFE804F01B07090B0D0FF6
:10402000111B131B15171900012413E0032411E0C1
:1040300002240FE004240DE005240BE0062409E02F
:10404000072407E0082405E0092403E00A2401E02E
:10405000002400BF00BF204610BD00002081214287
:104060000001214210B500F021F80A2007F044FABF
:104070000D48006808B9012000E000200A49091D28
:10408000096809B9012100E0002108430649083107
:10409000096809B9012100E00021084310B1FFF7C8
:1040A0008DFF10BD0020FCE72081214208B50121D1
:1040B0000C2003F03FFB3320ADF8000003208DF807
:1040C000020010208DF8030069461048FEF718FD25
:1040D0004FF4E060ADF8000048208DF80300694619
:1040E0000B48FEF70DFD00200A490860091F086013
:1040F000084910390860091F086001200649086056
:10410000091F0860091F086008BD00000008014081
:10411000000C0140940121422881214208B501216F
:104120000C2003F007FB3320ADF8000003208DF8CE
:10413000020048208DF8030069461048FEF7E0FCB5
:104140004FF4E060ADF8000010208DF803006946E0
:104150000B48FEF7D5FC01200A490860091F0860DA
:10416000084910390860091F0860002006490860E6
:10417000091F0860091F086008BD00000008014011
:10418000000C014014012142A881214210B50446CF
:104190000F4901EB440001220E4903F0BDFC0E491A
:1041A00001EB440001220D4903F0B6FC0C4901EB80
:1041B000042008490A780B4903F0AEFC0A4901EBD8
:1041C000042006490A78094903F0A6FC10BD000046
:1041D00000F303089D01002000F103089E01002068
:1041E00000D00308601B002000E003085E1D0020D3
:1041F00008B50121182003F09DFA4FF4E060ADF8F6
:10420000000048208DF8030003208DF80200694665
:104210000F48FEF775FC4020ADF8000069460D48D8
:10422000FEF76EFC4FF40C60ADF8000010208DF826
:10423000030003208DF8020069460548FEF760FC84
:104240008020ADF8000069460248FEF759FC08BD21
:10425000000C01400010014008B50121182003F0B6
:1042600069FA4FF4E060ADF8000010208DF803000B
:1042700003208DF8020069460F48FEF741FC4020FC
:10428000ADF8000069460D48FEF73AFC4FF40C60AB
:10429000ADF8000048208DF8030003208DF80200DF
:1042A00069460548FEF72CFC8020ADF80000694601
:1042B0000248FEF725FC08BD000C0140001001403B
:1042C00010B502F0D5F80021024809F0A7F902491B
:1042D000086010BDF4120108340100209CB00020D9
:1042E00002F098F901200C21FEA20023CDE9002163
:1042F00002904AF251620321462003F017FD01208B
:104300000C21FBA20023CDE9002102904FF6E072C0
:1043100004217B2003F00AFD01200C21F5A20023DB
:10432000CDE9002102904AF251620321084603F0D0
:10433000FDFC01200C21F1A20023CDE90021029017
:104340004FF6E07203212C2003F0F0FC01200C2139
:10435000ECA20023CDE9002102904AF251620D2126
:10436000032003F0E3FC01200C21E9A20023CDE9A6
:10437000002102904FF6E0720E21382003F0D6FCA7
:1043800001201821E5A20023CDE9002102904FF67B
:10439000E0723221052003F0C9FC01201821E2A2BD
:1043A0000023CDE9002102904FF6E0724B21192045
:1043B00003F0BCFC00BFDF484078DF490978884241
:1043C00049D0DC484078DC4908700F208223002265
:1043D0007A210090104602F041F9D6484078012831
:1043E00002D0022824D111E0D4A118A8FCF766F865
:1043F00001200C2118AA0023CDE9002102904FF6DC
:104400001F0204217B2003F091FC23E0CCA118A81B
:10441000FCF754F801200C2118AA0023CDE9002153
:1044200002904FF61F0204217B2003F07FFC11E075
:10443000C4A118A8FCF742F801200C2118AA0023F7
:10444000CDE9002102904AF2516204217B2003F061
:104450006DFC00BF00BFB7480078BB4909788842AF
:1044600075D0B4480078B849087008460078C8B9D3
:10447000B6A11AA8FCF722F80D20462300222B2112
:104480000090104602F0EAF801200C211AAA00233D
:10449000CDE9002102904FF6074203212C2003F0C2
:1044A00045FC1CE0A34800780246AAA116901AA871
:1044B000FCF704F80D20462300222B210090104623
:1044C00002F0CCF801200C211AAA0023CDE900212A
:1044D00002904FF6074203212C2003F027FC1920FD
:1044E00080230E2238210090002002F0B7F801202E
:1044F0000C2187A20023CDE9002102904FF6E07243
:104500000E21382003F012FC7F20034619220521DA
:104510000090002002F0A2F84FF4FA7008F08CFF2F
:104520008448007809287DD007DC7CD2DFE800F0E1
:104530007B15304B66887B7BD800812874D007DCE4
:104540000A2872D0412871D043286CD1EFE17BE278
:1045500082286CD08328F8D1B2E1012018217FA2F3
:104560000023CDE9002102904FF6FF723221052091
:1045700003F0DCFB012018217BA20023CDE9002100
:1045800002904FF6FF724B21322003F0CFFB5AE22C
:104590000120182175A20023CDE9002102904FF6D9
:1045A000FF723221052003F0C1FB012018216EA209
:1045B0000023CDE9002102904FF6FF724B213220FB
:1045C00003F0B4FB3FE2012018216BA20023CDE9E8
:1045D000002102904FF6FF723221052003F0A6FB66
:1045E0000120182160A20023CDE9002102904FF69E
:1045F000FF724B21322003F099FB24E201201821A5
:1046000060A20023CDE9002102904FF6FF72322113
:10461000052003F08BFB0120182153A20023CDE9D4
:10462000002105E041E0F1E113E1F6E0D2E19AE199
:1046300002904FF6FF724B21322003F077FB02E22B
:104640000120182152A20023CDE9002102904FF64B
:10465000FF721921052003F069FB0120182142A2F5
:104660000023CDE9002102904FF6FF723221084667
:1046700003F05CFB0120182147A20023CDE90021B3
:1046800002904FF6FF724B21052003F04FFB0120F3
:10469000182135A20023CDE9002102904FF6FF72C8
:1046A0006421322003F042FBCDE1012018213CA21D
:1046B0000023CDE9002102904FF6FF723221052040
:1046C00003F034FB0120182127A20023CDE90021AB
:1046D00002904FF6FF724B21322003F027FBB2E12C
:1046E00064E000004D53475F747970653A00000044
:1046F000780000004558545F49443A00787878784B
:10470000000000004558445F414444523A00000014
:10471000696E646570656E64656E7400CEB4BCECE1
:10472000B2E2B5BD00000000C0A9D5B9C4A3BFE97D
:1047300000000000040000203F0100205A0000009B
:10474000570000002D0000003E0100204E4F4E4556
:10475000000000003078253032580000BBF0D1E670
:10476000BCE0B2E2E86E000058205800C8CBCCE5AF
:10477000D5ECB2E2E86E0000D1CCCEEDBCE0B2E206
:10478000E86E0000C8BCC6F8BCECB2E2E86E0000FF
:10479000CEC2B6C8E86E0000CAAAB6C8E86E00006D
:1047A000C1C1B6C8BCECB2E2E86E0000012018211D
:1047B000FEA20023CDE9002102904FF6FF721921DD
:1047C000052003F0B3FA01201821AFF264020023A0
:1047D000CDE9002102904FF6FF723221084603F026
:1047E000A5FA01201821F4A20023CDE900210290AE
:1047F0004FF6FF724B21052003F098FA0120182193
:10480000AFF29C020023CDE9002102904FF6FF7227
:104810006421322003F08AFA15E101201821E9A26F
:104820000023CDE9002102904FF6FF7232210520CE
:1048300003F07CFA01201821AFF2D4020023CDE965
:10484000002102904FF6FF725021322003F06EFAE1
:10485000F9E001201821DEA20023CDE90021029019
:104860004FF6FF721921052003F060FA012018218C
:10487000AFF20C120023CDE9002102904FF4FC624C
:104880003221084603F052FA01201821D2A2002357
:10489000CDE9002102904FF6FF724B21052003F075
:1048A00045FA01201821AFF240120023CDE9002182
:1048B00002904FF4FC626421322003F037FAC2E028
:1048C00001201821C7A20023CDE9002102904FF654
:1048D000FF721921052003F029FA01201821AFF2F7
:1048E00078120023CDE9002102904FF4FC623221BE
:1048F000084603F01BFA01201821BDA20023CDE9D0
:10490000002102904FF6FF724B21052003F00EFAB2
:1049100001201821AFF2B0120023CDE9002102904E
:104920004FF4FC626421322003F000FA8BE0012096
:104930001821B2A20023CDE9002102904FF6FF72A8
:104940003221052003F0F2F901201821AFF2E8121C
:104950000023CDE9002102904FF6FF724B21322057
:1049600003F0E4F96FE001201821A7A20023CDE9AC
:10497000002102904FF6FF721921052003F0D6F9AD
:1049800001201821AFF220220023CDE9002102905E
:104990004FF4FC623221084603F0C8F901201821C7
:1049A00085A20023CDE9002102904FF6FF724B2132
:1049B000052003F0BBF901201821AFF25422002397
:1049C000CDE9002102904FF4FC626421322003F013
:1049D000ADF938E0012018218EA20023CDE9002195
:1049E00002904FF6FF723221052003F09FF901205B
:1049F0001821AFF28C220023CDE9002102904FF65E
:104A0000FF724B21322003F091F91CE001201821A4
:104A1000AFF2F8220023CDE9002102904FF6E072B8
:104A20003221052003F082F901201821AFF208326B
:104A30000023CDE9002102904FF6E0724B211920AE
:104A400003F074F900BF00BF7548007809287DD0D5
:104A50000CDC81F01683DFE810F0140B1C00620000
:104A600003015D01B701140B140B810281286ED084
:104A700009DC0A286CD0412801F06A82432841F001
:104A8000008301F049B9822801F091818328F6D191
:104A9000FAE30A216348006808F044FD13AB07C33A
:104AA0001398102839D1149816907F2003464B2272
:104AB00000210090084601F0D1FD1698007880B1E1
:104AC00059A10BA8FBF7FAFC012218210BA800231F
:104AD0008DE807004FF4FC624B21282003F026F9F3
:104AE00010E053A10BA8FBF7E9FC012018210BAA49
:104AF0000023CDE9002102904FF4FC624B212820D5
:104B000003F014F900BF4C481699006808F052FDF4
:104B1000179017980028F6D1169001F0B3BA0A2121
:104B20004648006808F0FEFC13AB07C31398102832
:104B30003AD1149816907F2003464B220021009012
:104B4000084601F08BFD1698007802E0C8E1FCE30E
:104B5000C3E288B13AA10BA8FBF7B0FC01221820F0
:104B60000BA90023CDE9010200914FF4FC624B2117
:104B7000282003F0DBF810E033A10BA8FBF79EFC24
:104B8000012018210BAA0023CDE9002102904FF447
:104B9000FC624B21282003F0C9F800BF2C4816996D
:104BA000006808F007FD55E059E00000B5B1C7B056
:104BB000B5E7D1B9E86E0000B5B1C7B0B5E7C1F748
:104BC000E86E0000C3DCC2EBCAE4C8EB00000000E2
:104BD000BCFCD6B5E86E0000B0B4BCFCD7B4CCAC1D
:104BE000E86E0000BFAAB9D8D7B4CCACE86E00001C
:104BF000D5BCBFD5B1C8D6B5E86E0000B4B0C1B160
:104C0000D7B4CCACE86E0000B5E7D4B4D7B4CCAC24
:104C1000E86E0000B1A8BEAFD7B4CCACE86E00001F
:104C20000400002060000020D3D0BBF00000000092
:104C3000C3BBBBF00000000054000020780000203F
:104C4000D3D0C8CB00000000CEDEC8CB00000000EF
:104C50006C0000201790179800289FD116905CE7F1
:104C60000A21FE48006808F05DFC13AB07C31398E7
:104C700010284ED1149816907F2003464B22002115
:104C80000090084601F0EAFC1698007888B1F4A17B
:104C90000BA8FBF713FC012018220BA90023CDE978
:104CA000001202904FF4FC624B21282003F03EF8E2
:104CB00010E0EDA10BA8FBF701FC012018210BAAC5
:104CC0000023CDE9002102904FF4FC624B21282003
:104CD00003F02CF8169840880246E5A10A900BA82C
:104CE000FBF7ECFB012018210BAA0023CDE90021E2
:104CF00002901F2269210A2003F018F800BFDF4844
:104D00001699006808F056FC179017980028F6D1FD
:104D1000169002E70A21DA48006808F003FC13AB9A
:104D200007C3139810284ED1149816907F2003467D
:104D30004B2200210090084601F090FC1698007864
:104D400088B1C7A10BA8FBF7B9FB012018210BAA5A
:104D50000023CDE9002102904FF4FC624B21282072
:104D600002F0E4FF10E0C0A10BA8FBF7A7FB0121B4
:104D700018200BAA0023CDE9002002914FF4FC6219
:104D80004B21282002F0D2FF169840880246B8A195
:104D90000A900BA8FBF792FB012018210BAA002315
:104DA000CDE9002102901F2269210A2002F0BEFFF6
:104DB00000BFB4481699006808F0FCFB17901798DC
:104DC0000028F6D11690A8E60A21AF48006808F03E
:104DD000A9FB13AB07C3139810287DD11498169024
:104DE0004B207F23322200210090084601F036FC40
:104DF0007D207F23642200210090084601F02EFCD4
:104E00001698006807900BF0A1FD02460B46CDE90D
:104E100008019EA10BA8FBF751FB012018210BAA4A
:104E20000023CDE9002102904FF4FC6232211420CE
:104E300001F034FD0BA8FBF7C8FC00EB40001C217F
:104E400001EB800080B20A900120182191A200237A
:104E5000CDE9002102904FF4FC6234210A9802F05F
:104E600065FF1698406807900BF070FD02460B46F0
:104E7000CDE9080185A10BA8FBF720FB0120182133
:104E80000BAA0023CDE9002102904FF4FC626421BB
:104E9000142001F003FD0BA8FBF797FC00EB40008A
:104EA0001C2101EB800080B20A90012018217AA217
:104EB0000023CDE9002102904FF4FC6266210A989C
:104EC00002F034FF00BF75481699006808F072FBC5
:104ED00017901798002800E001E0F4D116901CE626
:104EE0000A216F48006808F01DFB13AB07C3139835
:104EF000102832D1149816907F2003464B220021AF
:104F00000090084601F0AAFB16980078024665A1B9
:104F10000A900BA8FBF7D2FA0BA8FBF756FCC0F1DE
:104F20000800C000143080B20A90012018210BAA9A
:104F30000023CDE9002102904FF4FC6255210A982C
:104F400002F0F4FE00BF59481699006808F032FBE1
:104F5000179017980028F6D11690DEE500200A90E9
:104F600009900A215248006808F0DCFA13AB07C325
:104F70001398102870D114981690169800880290F3
:104F80000BF0D2FD03900BF0E1FC0022494BCDE980
:104F900004010BF0BDFACDE906010BF057F90990B9
:104FA0001698408802900BF0BFFD03900BF0CEFCEA
:104FB0004FF06632404BCDE904010BF0A9FACDE980
:104FC00006010BF043F90A904B207F233222002187
:104FD0000090084601F042FB7D207F2364220021DF
:104FE0000090084601F03AFB09980BF0AFFC02462E
:104FF0000B46CDE9060131A10BA8FBF75FFA0121B1
:1050000018200BAA0023CDE9002002914FF4FC6286
:105010003721232002F08AFE0A980BF097FC024603
:105020000B46CDE9060127A10BA8FBF747FA0121A2
:1050300018220BA80023CDE9012100904FF4FC6257
:105040006921232002F072FE00BF204816990068F3
:1050500008F0B0FA17903BE03EE00000B8000020F6
:10506000B1A8BEAF00000000D5FDB3A30000000052
:10507000616E6156414C3A2564252500AC00002044
:10508000980000208C000020F0000020252E3266C1
:1050900000000000A1E60000A3A50000E40000203D
:1050A000D80000202564202525000000CC00002029
:1050B0001C0100200040BA3F6666583F252E32662C
:1050C00020560000252E32662041000010010020ED
:1050D00017980028B9D116901FE5FE48007890B3C4
:1050E000FD48007828B1FC480078401EFA49087055
:1050F00041E00020F7490870802003462822002163
:105100000090084601F0AAFA01201821AFF24C5293
:105110000023CDE9002102904FF6FF7232210520D5
:1051200002F004FE9DF84E0070B901201821AFF680
:10513000C8120023CDE9002102904FF6FF725021E2
:10514000322002F0F3FD16E00DF14E00FBF73DFBBF
:105150004021A1EB800080B20121182206900DF1C0
:105160004E000023CDE9012100904FF4FC62502154
:10517000069802F0DBFD0A21D848006808F0D2F951
:105180000FAB07C30F9810287DD110981690169872
:105190000078E02879D006DC1A2877D0CC2809D00E
:1051A000DD2874D13BE0E12872D0E32871D0EE28ED
:1051B000F7D179E00120C74908703220C64908704C
:1051C00080200346282200210090084601F046FA7C
:1051D00001201821C2A20023CDE9002102904FF640
:1051E000FF723221052002F0A1FD202107A8FBF764
:1051F000B0FB169840780246BCA1069007A8FBF7C2
:105200005DF90120182107AA0023CDE900210290B1
:105210004FF4FC625021192002F088FD12E10120B8
:10522000AC4908703220AC4908708020034628221F
:1052300000210090084601F011FA01221821ADA0CA
:1052400000238DE807004FF6FF723221052002F09F
:105250006DFD202107A8FBF77CFB169841790079AA
:10526000CDE900011698C0780690169880780590D0
:105270000246A3A107A8069BFBF720F901201822EC
:1052800007A9002306E0E9E0A0E24EE09DE0D8E0B7
:1052900063E07EE0CDE9001202904FF4FC62502101
:1052A000192002F043FDCDE0169850F8061FCDF806
:1052B0004E104168CDF85210007A8DF856008020CB
:1052C0007F23502200210090084601F0C7F92021D9
:1052D00007A8FBF73EFB1698807970B901221820C9
:1052E000AFF67C310023CDE9010200914FF6FF7249
:1052F0005021322002F01AFD16E01698801DFBF7AF
:1053000064FA4021A1EB800080B2012118220690AE
:105310001698801D0023CDE9012100904FF4FC6216
:105320005021069802F002FD8CE0802003462822DE
:1053300000210090084601F091F90121182275A082
:105340000023CDE90121009000E088E04FF6E072F3
:105350003C21142002F0EAFC74E001205D49087051
:1053600014205D4908708020034628220021009007
:10537000084601F073F90121182269A00023CDE944
:10538000012100904FF6E0723C21142002F0CEFC87
:1053900058E001204F49087014204F4908708020C0
:1053A0000346282200210090084601F057F9012108
:1053B00018225EA00023CDE9012100904FF6E07293
:1053C0003C21142002F0B2FC3CE00120414908706D
:1053D00014204149087016984078012802D002280C
:1053E0002CD115E080200346282200210090084699
:1053F00001F034F9012118224FA00023CDE9012149
:1054000000904FF6E0723C21142002F08FFC16E071
:1054100080200346282200210090084601F01EF952
:105420000121182047A20023CDE9002002914FF668
:10543000E0723C21142002F079FC00E000BF00BFC4
:1054400000E000BF00BF00BF41481699006808F0A7
:10545000B1F8179017980028F6D1169059E43D48F6
:105460000078002807D03C48007828B13A480078F6
:10547000401E39490870C7E0002036490870802076
:105480000346192205210090002001F0E7F80122CF
:105490001821AFF6C40000238DE807004FF6FF7215
:1054A0001921052002F042FC01211820AFF6D80294
:1054B0000023CDE9002002914FF6FF724B21052019
:1054C00002F034FC4B207F2332220021009008465A
:1054D00044E00000420100204101002020000020A3
:1054E000D6B8CEC6CAE4C8EB0000000049443A2052
:1054F0002564000052464944CAE4C8EB000000009D
:10550000253032582530325825303258253032581F
:1055100000000000BFAACABCC1F4D1D40000000042
:10552000C1F4D1D4CDEAB1CF00000000BAF4BDD0AF
:10553000C7EBC7F300000000C3C5CBF8D2D1BFAAA8
:1055400000000000C3C5CBF8D2D1B9D800000000DC
:1055500010000020440100204301002001F07EF8EB
:105560009DF856000246AFF2780109900AA8FAF7B2
:10557000A5FF012018210AAA0023CDE900210290ED
:105580004FF4FC623221084601F088F97D207F2328
:10559000642200210090084601F060F89DF8570051
:1055A000643805281DD2DFE800F003080D1217004B
:1055B000F7A10AA8FAF782FF18E0F7A10AA8FAF7FC
:1055C0007DFF13E0F7A10AA8FAF778FF0EE0F8A133
:1055D0000AA8FAF773FF09E0F8A10AA8FAF76EFF24
:1055E00004E0EBA10AA8FAF769FF00BF00BF0121A0
:1055F00018220AA80023CDE9012100904FF4FC6293
:105600006421142002F092FB0A21EF48006807F0A1
:1056100089FF12AB07C3129810287DD113981690FA
:10562000169800788DF854001698C0788DF85700B9
:10563000169800780A2802D00B286ED154E0012079
:10564000E24908703220E24908708020034619229E
:1056500000210090084601F001F801211820DDA288
:105660000023CDE9002002914FF6E0723C210A2090
:1056700002F05CFB01201821DAA20023CDE9002111
:1056800002904FF6E07250211E2002F04FFB1920CD
:1056900080230E2238210090002000F0DFFF1698B2
:1056A00040780A280FD00B281BD101200C21D0A252
:1056B0000023CDE9002102904FF6E0720E21382040
:1056C00002F034FB0EE001210C20CCA20023CDE936
:1056D000002002914FF6E0720E21382002F026FBE6
:1056E00000E000BF00BF64E0B8480078B8BB4B20C2
:1056F0007F23322200210090084600F0AFFF169869
:1057000080780246AFF2182109900AA8FAF7D6FE6F
:10571000012018220AA901E057E049E00023CDE961
:10572000001202904FF4FC623221084601F0B6F8F4
:105730007D207F23642200210090084600F08EFF28
:105740001698C078643805281ED2DFE800F00309F7
:105750000E1318008EA10AA8FAF7B0FE19E026E091
:105760008DA10AA8FAF7AAFE13E08EA10AA8FAF7FB
:10577000A5FE0EE08EA10AA8FAF7A0FE09E08FA10F
:105780000AA8FAF79BFE04E081A10AA8FAF796FEA0
:1057900000BF00BF012118220AA80023CDE9012182
:1057A00000904FF4FC626421142002F0BFFA00E084
:1057B00000BF00BF00BF94481699006807F0FAFECA
:1057C000179017980028F6D1169085E48F48007836
:1057D000002807D08E48007828B18D480078401EF8
:1057E0008B4908702AE10020884908708020034610
:1057F000192205210090002000F030FF8548007834
:105800000A2804D00B2811D00C283AD12AE0012113
:105810001822AFF630400023CDE9012100904FF669
:10582000FF723221052002F081FA2BE001211820BD
:10583000AFF650420023CDE9002002914FF6FF72EF
:105840001921052002F072FA0120182272A100230A
:10585000CDE9001202904FF6FF724B21052002F0B5
:1058600065FA0FE001211822AFF688400023CDE948
:10587000012100904FF6FF723221052002F056FA06
:1058800000E000BF00BF9DF8560030B1012809D1EB
:1058900063A10AA8FAF712FE05E063A10AA8FAF7C5
:1058A0000DFE00E000BF00BF5A4800780A2804D06F
:1058B0000B2818D00C2842D12BE064207F234B22E8
:1058C00000210090084600F0C9FE012018210AAA14
:1058D0000023CDE9002102904FF4FC624B212820E7
:1058E00002F024FA2BE04B207F233222002100908B
:1058F000084600F0B3FE012018210AAA0023CDE9D2
:10590000002102904FF4FC623221282002F00EFAAE
:1059100015E064207F234B2200210090084600F010
:105920009DFE012118220AA80023CDE90121009043
:105930004FF4FC624B21282002F0F8F900BF00BFB1
:105940009DF8570002463AA109900AA8FAF7B6FD59
:10595000304800780A2804D00B2803D00C286CD1DA
:105960006AE06AE07D207F236422002100900846DF
:1059700000F074FE012218200AA90023CDE90102DB
:1059800000914FF4FC626421322002F0CFF954E020
:105990002020204E554C4C00B0B4BCFCB5C8B4FD22
:1059A00000000000B5C8B4FDD2A3BFD800000000BD
:1059B000D1A7CFB0CDEAB1CF00000000D0C5BAC5A5
:1059C000CAE4B3F60000000090010020440100206A
:1059D00043010020574946495F4558445F414444CC
:1059E0005200000049532053455454494E4700008B
:1059F0006966722D766964656F0000006966722DB4
:105A0000617564696F000000840100204701002077
:105A10004601002045010020C1C1B6C8E86E000063
:105A2000BFAAC6F400000000B9D8B1D5000000003C
:105A3000256425250000000000BF00BF0A21FE48A4
:105A4000006807F06FFD12AB07C31298102870D1E1
:105A500013981690169800780A2802D00B2869D15E
:105A60006CE00120F54908703220F549087016985D
:105A70004078F449087080200346192200210090E4
:105A8000084600F0EBFD01201821EFA20023CDE92C
:105A9000002102904FF6E0723C210A2002F046F904
:105AA00001201821AFF2C4020023CDE900210290A9
:105AB0004FF6E07250211E2002F038F919208023A1
:105AC0000E2238210090002000F0C8FD1698407882
:105AD0000A2804D00B2810D00C282CD11BE001215F
