:020000040800F2
:1000000038BB002085030008DD730008BD2E000802
:100010006D7300088D1B00089DAD000800000000F6
:10002000000000000000000000000000BD02000809
:10003000F9210008000000003503000871030008E2
:100040009F0300089F0300089F0300089F03000808
:100050009F0300089F0300089F0300089F030008F8
:100060009F0300089F0300089F03000879200008F1
:1000700099200008B9200008D9200008F9200008BC
:1000800019210008392100089F03000899AB0008D6
:10009000B1AC0008911B00087D1C0008FD21000880
:1000A0009F0300089F0300089F0300089F030008A8
:1000B0009F0300089F0300089F030008E92E000823
:1000C000D92E00089F0300089F0300089F03000823
:1000D0009F030008F1840008658700089F0300085B
:1000E0009F0300089F0300089F0300089F03000868
:1000F0009F0300089F0300089F0300089F03000858
:100100009F0300089F0300089F0300089F03000847
:100110009F0300089F0300089F0300089F03000837
:1001200059210008792100089D210008BD210008FF
:1001300000F002F800F06DF80AA090E8000C82448C
:100140008344AAF10107DA4501D100F062F8AFF269
:10015000090EBAE80F0013F0010F18BFFB1A43F0A5
:1001600001031847D0560100F05601000A444FF031
:10017000000C10F8013B13F0070408BF10F8014B06
:100180001D1108BF10F8015B641E05D010F8016B4B
:10019000641E01F8016BF9D113F0080F1EBF10F8AF
:1001A000014BAD1C0C1B09D16D1E58BF01F801CBD2
:1001B000FAD505E014F8016B01F8016B6D1EF9D555
:1001C0009142D6D37047000000230024002500266A
:1001D000103A28BF78C1FBD8520728BF30C148BFAA
:1001E0000B607047662911F03A80642900F0A28103
:1001F000782900F0DB81002070471FB500F097FEE2
:1002000004000020002110F0E1F9E0601FBD10B5EE
:1002100010BD00F08BFF1146FFF7EFFF0FB400F0A9
:100220000BF80FBC0DF0AAFA00F088FA03B4FFF740
:10023000EEFF03BC00F074FF04B00DF0DFFA0448D9
:1002400000210DF0C1FB0DF0EBFA00F077FA000091
:100250004055010880F309887047EFF30980704723
:10026000684680F3098804480078C00714BF02205C
:10027000032080F31488704700550108DFF818C088
:10028000EFF305831B0618BF6047EFF31483DB070A
:1002900008BF604700DF7047BDE20008DFF818C004
:1002A000EFF305831B0618BF6047EFF31483DB07EA
:1002B00008BF604700DF70476DE50008EFF3098075
:1002C000816911F8021CF1B990E80F10E047EFF3D3
:1002D000098C8CE80700144B93E8060091420FD07C
:1002E00039B12CE9F00FC1F828C00CB40EF026FD8E
:1002F0000CBC1A60D2F828C0BCE8F00F8CF3098857
:100300006FF0020E704710B5084A1268914209D882
:10031000074C54F8214090E80F10A047EFF3098CE8
:100320008CE80F0010BD000048030020F018000802
:10033000F01800080EF0D4FB0C4B93E80600914235
:1003400010D0EFF3098C2CE9F00FC1F828C00CB4E1
:100350000EF0F4FC0CBC1A60D2F828C0BCE8F00F18
:100360008CF309886FF0020E7047000048030020EC
:100370000EF0ACFDE0E700000DF0C6FB0EF0A6FDB0
:10038000DAE700000948804709480047FEE7FEE732
:10039000FEE7FEE7FEE7FEE7FEE7FEE7FEE7FEE735
:1003A00004480549054A064B70470000D9810008FA
:1003B0003101000838B5002038BB002038B70020D4
:1003C00038B7002000487047D8B4002053EA020C28
:1003D00000F069802DE9F04B4FF00006002B1FBFA5
:1003E000B3FA83F503FA05F424FA05F65E4012BF6A
:1003F0001643B2FA82F502FA05F4C5F120051EBFD4
:1004000022FA05FC44EA0C04203556EA044C4FEA73
:10041000144418BF641C4FF000084FF000099042CC
:1004200071EB030C39D3002919BFB1FA81F701FA36
:1004300007F6B0FA80F700FA07F6C7F120071EBFEB
:1004400020FA07FC46EA0C062037B6FBF4FCA7EBC3
:100450000507103F07F01F0BCBF120060CFA0BFB32
:100460002CFA06F644BFB3460026202FA4BF5E46F2
:100470004FF0000B5BEA060C08BF4FF0010B19EBC5
:100480000B09ABFB027C48EB0608C01B06FB02CC49
:100490000BFB03CC71EB0C01C1E70B460246414656
:1004A0004846BDE8F08B13B54FF000004FF0000157
:1004B000AFF30080BDE81C40704700000FB41CB5CE
:1004C000074B06AA7B4469460090059800F017FD8B
:1004D0000020694600F026FD1CBC5DF814FB0000FE
:1004E0005D0A000070B5044685690068C10601D543
:1004F000302600E02026C00707D070BDD4E90121D6
:1005000030469047206A401C20626D1EF6D570BDB3
:1005100070B5044685690078C00707D170BDD4E97D
:10052000012120209047206A401C20626D1EF6D5D4
:1005300070BD00002DE9F0410646002410687529C1
:10054000314616A510D0AFF30080002802DA4042F1
:1005500013A507E031688A0701D512A502E0490713
:1005600004D511A5012401E0AFF3008000210A2287
:1005700006F1240709E0B0FBF2FCB0FBF2F302FB4A
:100580001C00303078541846491C0028F3D123460B
:100590002A463046BDE8F04100F045BA00000000B0
:1005A0002D0000002B0000002000000070B5044664
:1005B0000D4621461068AFF300802188090502D559
:1005C0000F4A7A4402E00E4A7A440E32002104F1C6
:1005D000240305E000F00F060009965D5E54491CF7
:1005E0000028F7D120780023000704D5702D02D011
:1005F00009B1022311322046BDE8704000F013BA61
:10060000EA4F01002DE9F05F894604464FF0000AE9
:10061000DFF824B1FB44C0F820A02046E1688847F9
:1006200000287DD0252806D0D4E901219047206AF2
:10063000401C2062F1E700255F462046E1688847BC
:100640002028064607DB312E05D2B81910F8200CF9
:1006500008B10543F1E7A80701D525F00405C4F862
:100660001CA00027C4F818A02A2E09D030460AF092
:1006700021FC38B304EB8708303EC8F8186019E055
:1006800059F8041B204604EB87029161E168884712
:10069000012F064618D1E069002820DA25F0200550
:1006A0001DE0D8F8180000EB800006EB4000303861
:1006B000C8F818002046E168884706460AF0FAFBA9
:1006C0000028EED1012F0AD02E2E08D12046E16855
:1006D00088477F1C0646022F45F02005C4DBA06931
:1006E000002803DA404245F00105A061E80701D087
:1006F00025F01005A6B1A6F14100192802D8203630
:1007000045F400654A463146204625604D46FFF7D0
:1007100069FD60B1012807D0ED1D25F0070000E05C
:1007200007E000F1080978E705F1040975E73046AC
:100730007AE7206ABDE8F09FC04F010010B504467B
:10074000AFF300802046BDE81040FFF76FBD30B525
:1007500005460B462A4613F8014B12F8010B08B167
:10076000A042F8D01CB1002802D06D1CF1E7284649
:1007700030BD40EA010310B59B070FD1042A0DD309
:1007800010C808C9121F9C42F8D020BA19BA884272
:1007900001D9012010BD4FF0FF3010BD1AB1D307B1
:1007A00003D0521C07E0002010BD10F8013B11F8E7
:1007B000014B1B1B07D110F8013B11F8014B1B1B10
:1007C00001D1921EF1D1184610BD10B5431C02E0B4
:1007D00010F8011B71B18107FAD14FF0013202C844
:1007E0008C1A8C4314EAC211F9D0C01A0A0603D03D
:1007F000C01E10BDC01A10BD0A0401D0801E10BD5D
:100800000902FCD0401E10BD421E12F8013F002B11
:10081000FBD111F8013B002B02F8013BF9D17047E5
:10082000032A40F2308010F0030C00F0158011F81C
:10083000013BBCF1020F624498BF11F801CB00F8F4
:10084000013B38BF11F8013BA2F1040298BF00F848
:1008500001CB38BF00F8013B11F0030300F0258005
:10086000083AC0F0088051F8043B083A51F804CB2C
:10087000A0E80810F5E7121D5CBF51F8043B40F8F2
:10088000043BAFF30080D20724BF11F8013B11F8FD
:1008900001CB48BF11F8012B24BF00F8013B00F841
:1008A00001CB48BF00F8012B704710B5203AC0F0CB
:1008B0000B80B1E81850203AA0E81850B1E8185061
:1008C000A0E81850BFF4F5AF5FEA027C24BFB1E89E
:1008D0001850A0E8185044BF18C918C0BDE810400F
:1008E0005FEA827C24BF51F8043B40F8043B08BF18
:1008F0007047D20728BF31F8023B48BF11F8012BDF
:1009000028BF20F8023B48BF00F8012B70474FF08A
:1009100000020429C0F0128010F0030C00F01B80CC
:10092000CCF1040CBCF1020F18BF00F8012BA8BFDA
:1009300020F8022BA1EB0C0100F00DB85FEAC17C9E
:1009400024BF00F8012B00F8012B48BF00F8012B51
:1009500070474FF0000200B5134694469646203982
:1009600022BFA0E80C50A0E80C50B1F12001BFF468
:10097000F7AF090728BFA0E80C5048BF0CC05DF8CE
:1009800004EB890028BF40F8042B08BF704748BF1C
:1009900020F8022B11F0804F18BF00F8012B704790
:1009A0004FF0013C50F8042B51F8043B9A4221D1FE
:1009B000A2EB0C03934313EACC1317D150F8042B8A
:1009C00051F8043B9A4215D1A2EB0C03934313EA6E
:1009D000CC130BD150F8042B51F8043B9A4209D1A7
:1009E000A2EB0C03934313EACC13DBD04FF00000CF
:1009F000704700BFD01A01BAB1FA81F101F01801B5
:100A000022FA01F0CB40C1F12001DBB2C0B2C01A22
:100A10002CFA01F3D11A914311EAC311E6D17047C0
:100A20007047704770472DE9F0470D46994692464A
:100A3000044600F124080168880604D5E06921F025
:100A40001001216000E00120A84201DD471B00E009
:100A50000027A1697A1902EB0900081AA061207821
:100A6000C00602D42046FFF73DFD002608E0D4E989
:100A700001211AF806009047206A401C761C20626B
:100A80004E45F4DB2078C0060AD52046FFF72AFD44
:100A900006E0D4E9012130209047206A401C206202
:100AA000381EA7F10107F4DC07E0D4E9012118F8AA
:100AB00005009047206A401C2062281EA5F1010510
:100AC000F3DC2046FFF724FD2078000602D5022043
:100AD000BDE8F0870120FBE770472DE9FF4F0C468A
:100AE0001E464FF0FF378BB0D2E90001DDF8608081
:100AF0000A908A46C1F30A5505B93D4600210846C9
:100B00004FF00000BAF1000F00F4400005DA00EBEE
:100B100080004FF4400101EA50004FEA9059B9F1CA
:100B2000010F00DDB9460A9850EA4A000ED044F69B
:100B30001050A5F2FF3545432F14B8F1000F1ED019
:100B40007542291E1EDDC9F100021CE0B8F1010F3B
:100B50004FF0000001D0302103E0F24305E02154C2
:100B6000401CB042FBDB30460022002121540B998F
:100B7000C1F80880C1E900200FB0BDE8F08FBD1BAF
:100B80006D1CDEE74A4600DA694206A800F05AFA10
:100B900006AB93E8070003AB83E8070050460A99C9
:100BA00000F0EAFA8DE80700A0F500501F38009029
:100BB0000398002D09DD42F21F014A46084403A9AB
:100BC0000390684600F049FD08E0A0F500504A4651
:100BD0001F3803A90390684600F053FD8DE8070015
:100BE0000004000C03D04FF0FF30410800E0104635
:100BF000B8F1000F03D00022009215461EE0751ECA
:100C000005D400F099F9303262556D1EF9D5B3461E
:100C10000122084302D000227F1C04E02078302803
:100C200001D100227F1E002A099786D01DE0112DD8
:100C300007DA00F081F9303262556D1C50EA01028A
:100C4000F5D1084302D00098C8B10EE00021681E1B
:100C500005E0235C625C63542254401E491C8142BF
:100C6000F7DBAB46A81B401E0990002004F80B00E0
:100C70000B98099AC0F80880C0E9002B7CE7112680
:100C80004FF0000859E72DE9F04F88460446D21D81
:100C900022F0070191B0D1E90001CDE90A010AF083
:100CA00099F802460B98C00F01D02D2007E020686C
:100CB000810701D52B2002E0202101EAC000032A90
:100CC000099001D0072A05DB03464146204600F083
:100CD00079F90BE12078800601D5E06900E0062073
:100CE000B8F1650F814606D0B8F1660F18D0B8F19B
:100CF000670F70D131E00020B9F1110F009001DBD6
:100D0000112301E009F101030AAA01A90CA8FFF7C8
:100D1000E4FEDDE90C70002609F10105834647E099
:100D200001204B4600904FF000470AAA01A90CA8E9
:100D3000FFF7D3FEDDE90DB00C995D46002610B932
:100D400009F101000D18B9EB050003D4C0F1FF361D
:100D500009F10105A5EB09002BE0B9F1010F01DA5A
:100D60004FF001090020B9F1110F0090484601DD54
:100D7000112300E003460AAA01A90CA8FFF7ADFE63
:100D8000DDE90C704D4600268346207800070AD422
:100D9000AB4500DA5D4601A8012D04DD411911F8CB
:100DA000011C302907D04F4502DA17F1040F04DA8D
:100DB000012082460FE06D1EEEE7002F02DCED1BE6
:100DC0003E4403E0781CA84200DD7D1CB81B00F106
:100DD000010A4FF000472078000703D4AA4501DB41
:100DE0004FF0FF3A0021B7F1004F0DF143088DF8A5
:100DF000431024D002202B23002F01DA7F422D2321
:100E00000A21021EA0F1010000DC5FB197FBF1FC9A
:100E100097FBF1F201FB1C7C17460CF1300C08F833
:100E200001CDEEE7A8F1010003702188090501D585
:100E3000452100E06521A0F1010800F8011C099896
:100E40000FA9A1EB0807FF1D00B10120411901EB1B
:100E5000EA70A1693844081A401EA0612078C006D3
:100E600002D42046FFF73EFB099828B1D4E90121BE
:100E70009047206A401C20622078C00622D5204678
:100E8000FFF730FB1EE0002E04DBB34502DD01A8B6
:100E9000805D00E03020D4E901219047206A401CA9
:100EA0002062761CAAF101005FEA000A0AD100F074
:100EB0003EF8C0680168405CD4E901219047206A8F
:100EC000401C2062281EA5F10105DCDC07E0D4E906
:100ED000012118F8010B9047206A401C2062381E3F
:100EE000A7F10107F3DC2046FFF712FB032011B046
:100EF00043E6000001694A1C02610878704700B5AA
:100F00008FB0CDE901310021059105497944CDE942
:100F1000031011466846FFF775FB0FB000BD0000D7
:100F2000E5FFFFFF0A6802F8010B0A60704710B581
:100F3000FFF748FA203010BD30B5B0F10A024FEA91
:100F4000900E71F100034EEA817EB0EB0E0061EB72
:100F500091014FEA101E4EEA017E10EB0E0041EBAC
:100F600011114FEA102E4EEA016E10EB0E0041EB0C
:100F700011214FEA104E4EEA014E10EB0E0041EBEC
:100F80001141401841F100014FEAD00040EA4170A0
:100F90004FEAD10110EB80054FEA810444EA9074D6
:100FA00044EB01046D1944EB0404521BA3414FF0C0
:100FB000000348BF0A3200D530BD401C41F100019A
:100FC00030BD00002DE9F0411F46044603260168AC
:100FD000072A01F4006004DB08B116A505E016A598
:100FE00003E008B115A500E015A521F01000206070
:100FF000A069C01EA0610FB1401EA0612046FFF78E
:1010000071FA4FB1D4E9012138469047206A401C5B
:101010002062C01C206206E0206AFAE7D4E90121C0
:1010200015F8010B9047761EF8D22046FFF770FAAC
:10103000BDE8F0814E414E006E616E00494E4600A3
:10104000696E66002DE9F047814616468AB033483E
:1010500078440DC88DE80D0030487844801C03ACFE
:101060000DC884E80D0041F69B300844372190FB01
:10107000F1F290FBF1F5A5F1800501FB12041B3C98
:1010800002D56442012000E00020DFF890A08046F5
:101090000027FA44AAF1BE0A0DE0E00709D0324663
:1010A000684607EB47010AEB810100F0EAFA8DE898
:1010B000070064107F1C002CEFD1184F7F44AC3F19
:1010C00018E0E80714D007EB04100DF1180A90E8B7
:1010D0000E008AE80E00C068F04201D1981908900D
:1010E000324606A903A800F0CCFA03AB83E8070058
:1010F0006D10641C002DE4D132466946B8F1000F32
:1011000003A802D000F0A9FA01E000F0BAFAC9E998
:101110000001C9F808200AB0BDE8F08714460100B4
:1011200001491820ABBEFEE7260002007546FFF716
:1011300049F9AE4605006946534620F0070085464A
:1011400018B020B5FFF72CF9BDE820404FF000069D
:101150004FF000074FF000084FF0000B21F007019F
:10116000AC46ACE8C009ACE8C009ACE8C009ACE8E2
:10117000C0098D46704770475FEA400C08BF91F088
:10118000000F4FEA8C234FEAC12243EA51514FEA44
:101190001C5018BF00F5F0404FEA300018BF41F076
:1011A00000415FEA6C5C00F02980BCF1FF3F08BFA2
:1011B00040F080407047130C06BF12044FF0100C33
:1011C0004FF0000C130E04BF12020CF1080C130FA9
:1011D00004BF12010CF1040C930F04BF92000CF138
:1011E000020CD30F04BF52000CF1010C11464FF05A
:1011F0000002A0F11F00A0EB0C00704711F0004F9F
:1012000008BF704731F000413FF4D5AF0B0C06BF6B
:1012100009044FF0100C4FF0000C0B0E04BF090234
:101220000CF1080C0B0F04BF09010CF1040C8B0F1F
:1012300004BF89000CF1020CCB0F04BF49000CF174
:10124000010CCCF12003A0EB0C0022FA03F302FA0C
:101250000CF241EA030100F10100704720F07F4CDD
:1012600080EA030023F07F47ACEB070303F57C53D0
:1012700000F0004003F1FF032DE980494FEA154BD0
:1012800009B44FEA144325EA0B4E24EA03480FF24F
:10129000042606EB132749083E785FEA320203FB77
:1012A0000667C7F5000707FB06F64FEA54374FEA13
:1012B000D64606F1020607FB066CCCF1005C4FEA4D
:1012C0001C472CEA074C07FB06F40CFB06F504EB65
:1012D00015464FEA961634BF00204FF000404FEA03
:1012E000D13706FB07FC4FEA1C4C0CFB0BF7D21B5B
:1012F00003FB0CF761EB07010CFB0EF7B0EB0740AB
:1013000072EB17420CFB08F734BFA2EB0742B2EBBB
:10131000074261EB17414FEA0C444FEA910706FB85
:1013200007FC4FEA1C4C0CFB0BF7B0EBC74072EB11
:10133000573203FB0CF734BFA2EBC742B2EBC742F4
:1013400061EB57310CFB0EF7B0EBC70072EB577235
:101350000CFB08F734BFA2EBC702B2EBC70261EB8C
:101360005771039F4FEA816141EA921104EBCC046B
:101370004FEAD1374FEA826206FB07FC42EA90123D
:101380004FEA80604FEA1C4C0CFB0BF7D21B03FBAF
:101390000CF761EB07010CFB0EF7B0EB074072EBAB
:1013A00017420CFB08F734BFA2EB0742B2EB07422F
:1013B00061EB17414FEA8C554FEA910704EB9C24EF
:1013C00006FB07FC4FEA1C4C0CFB0BF7B0EBC740CD
:1013D00072EB573203FB0CF734BFA2EBC742B2EB00
:1013E000C74261EB57310CFB0EF7B0EBC70072EB55
:1013F00057720CFB08F734BFA2EBC702B2EBC7026F
:1014000061EB577115EB4C254FEA816141EA92116E
:101410004FEA82624FEAD13742EA901206FB07FC9C
:1014200044F100044FEA80604FEA1C4C0CFB0BF7C0
:10143000D21B03FB0CF761EB07010CFB0EF7B0EBC3
:10144000074072EB17420CFB08F734BFA2EB0742D0
:10145000B2EB074261EB174115EB1C154FEA8131E6
:1014600041EA92414FEA823242EA90424FEA8030AA
:101470004FEA0C7644F1000448EA03434EEA0B4875
:101480004FF0000EB2EB080C71EB030724BF62466D
:1014900039464EEB0E0E4FF0000B001852414941F9
:1014A0004BEB0B0BB2EB080C71EB03077BF1000B62
:1014B00024BF624639464EEB0E0E4FF0000B00186B
:1014C000524149414BEB0B0BB2EB080C71EB03079C
:1014D0007BF1000B24BF624639464EEB0E0E51EAFB
:1014E000020718BF46F0010616EB0E7655F1000212
:1014F00054F1000103D5BDE88901BDE80088BDE8CD
:101500008901BDE80048B619524141EB0101A3F140
:101510000103704780807F7E7D7C7B7A7978777647
:1015200076757473727171706F6E6E6D6C6C6B6AC0
:101530006A6968686766666564646363626161605E
:10154000605F5F5E5E5D5D5C5C5B5B5A5A595958DB
:101550005857575656555555545453535252525145
:10156000515050504F4F4F4E4E4D4D4D4C4C4C4B9B
:101570004B4B4A4A4A4949494848484747474746E2
:10158000464645454544444444434343434242421E
:1015900042414141002B26D4770021D01CB54FEAAF
:1015A000370703B44FF010004FF010014FF0000068
:1015B0000FBCBDE810400BF1010BBBF1010F08BFE0
:1015C0005FEA170722BF12F1010211F101014FF08A
:1015D000004143F1000300F0004043EA000070477F
:1015E000F9D35708DAE746EA064613F1400F4FEA07
:1015F00016461FDD13F1200FDFBF16430A460021F8
:1016000020335B42C8D0C3F1200746EA064602FAFF
:1016100007F74FEA164646EA0706C3F1200722FA03
:1016200003F201FA07F721FA03F14FF0000342EA4F
:101630000702B1E746EA020646EA06464FEA1646C0
:1016400046EA0106BCBF46EA0646360C4FF00003E8
:101650004FF000024FF000019EE72DE9C04893468D
:1016600030B491E8380007C831EA400C48BF34EA8A
:10167000430C03D5FFF7F2FDFFF78CFFF0BCBDE88C
:1016800000882DE9C048934630B491E8380007C877
:1016900010F0804F08BF13F0804F03D100F005F821
:1016A000FFF778FFF0BCBDE8008820F07F4780EAB4
:1016B000030023F07F4C07EB0C03A3F57C5300F0F1
:1016C0000040A3F1FE0392F0000F00F0B38095F00C
:1016D000000F00F077802DE901494FEA11404FEAF1
:1016E000144621EA004800FB06FC24EA064708FBF2
:1016F00006F607FB08F800FB07F718EB06484CEB6B
:10170000164C4FEA124B18EB07484FEA15464CEBC4
:10171000174022EA0B4E0BFB06FC25EA06470EFBA0
:1017200006F607FB0EFE0BFB07F71EEB064E4CEB17
:10173000164C4FF000061EEB074E4CEB174B18EB08
:101740000B0840F1000018EB0E0B58EB000840F1BD
:1017500000008F1A4FF000013CBFC943661B14BF45
:10176000B5EB040C00213CBFC943F61B4FEA1744FC
:101770004EEA8E0E27EA04454FEA1C4704FB076237
:101780002CEA074C05FB07F70CFB05F604FB0CFCE9
:1017900016EB074642EB174216EB0C4642EB1C4297
:1017A0001BEB060658EB0202414146EA9E0601D5B4
:1017B000BDE80189B619524141EB0101A3F10103D2
:1017C000BDE801894FEA14454FEA114724EA05466E
:1017D00021EA074C05FB07F406FB07F70CFB06F1B3
:1017E00005FB0CFC11EB074144EB17444FEA124791
:1017F00011EB0C4144EB1C4422EA074C05FB07F2B9
:1018000006FB07F70CFB06F605FB0CFC16EB074680
:1018100042EB174216EB0C4642EB1C456A1854F19A
:10182000000148BF7047B619524141EB0101A3F1D5
:101830000103704795F0000F37D04FEA11424FEA8D
:10184000144721EA024624EA074C02FB07F106FB93
:1018500007F70CFB06F402FB0CFC14EB074441EB0E
:1018600017414FEA154714EB0C4441EB1C4125EAA4
:10187000074C02FB07F506FB07F70CFB06F602FB1D
:101880000CFC16EB074645EB174516EB0C4645EBF3
:101890001C42121951F1000148BF7047B61952415C
:1018A00041EB0101A3F1010370474FEA14454FEAF0
:1018B000114724EA054621EA074C05FB07F106FB20
:1018C00007F70CFB06F24FF0000605FB0CFC12EBD1
:1018D000074241EB174112EB0C4251EB1C4148BF50
:1018E0007047921841EB0101A3F10103704700001A
:1018F0000000000021B1826842F00102826003E032
:10190000826822F0010282607047000010B5044630
:101910001248844208D10121401505F0C9FF002179
:10192000601505F0C5FF17E00D48844208D101217C
:10193000001505F0BDFF0021201505F0B9FF0BE0F3
:101940000848844208D10121C80305F0B1FF0021F5
:101950004FF4004005F0ACFF10BD00000024014032
:1019600000280140003C0140014600208A6802F046
:1019700004020AB1012000E0002070470146C86C53
:1019800080B270470246002013680B400BB1012063
:1019900000E000207047014600208A6802F008023B
:1019A0000AB1012000E000207047000030B5024677
:1019B0000020002350680F4C20400D790C6844EA49
:1019C00005242043506090680B4C2040D1E902541C
:1019D0002C434D7944EA450420439060D06A20F4BA
:1019E00070000C7C641EE4B2234340EA0350D062D2
:1019F00030BD0000FFFEF0FFFDF7F1FFF0B504463B
:101A00000D4600200021092D11DDE068A5F10A0630
:101A100006EB4607072606FA07F18843A5F10A06F2
:101A200006EB460603FA06F10843E0600CE0206985
:101A300005EB4507072606FA07F1884305EB45063F
:101A400003FA06F108432061072A0FDA606B561E7D
:101A500006EB86071F2606FA07F18843561E06EB9B
:101A6000860605FA06F10843606322E00D2A0FDAC4
:101A7000206BD61F06EB86071F2606FA07F1884360
:101A8000D61F06EB860605FA06F10843206310E030
:101A9000E06AA2F10D0606EB86071F2606FA07F19B
:101AA0008843A2F10D0606EB860605FA06F1084307
:101AB000E062F0BD816841F008018160704721B1AA
:101AC000826842F4A002826003E0826822F4A002ED
:101AD00082607047816841F004018160704710B5F1
:101AE00002460B460020002104E0545C0444A0B2EE
:101AF0004C1CE1B29942F8DB10BD00002DE9F04F1B
:101B00009BB081460D4616461F46DDF890A04FF06B
:101B1000640B4FF000082CE04846FEF756FE01909B
:101B20001648426948460199904714200BF05AFE26
:101B300012486421826902A8904750460BF052FE79
:101B400014200BF04FFE00240DE0335D55F82420E7
:101B5000642102A80BF026FE18B101201BB0BDE8DD
:101B6000F08F601CC4B2022CEFDB08F1010000F022
:101B7000FF08B845D0DB0020F0E70000B0540108B2
:101B800010B509F061FB09F07FFE10BD00BFFEE754
:101B900070B53648407802281ED13548006800F0FC
:101BA000100058B110203249086032480068B0B1C6
:101BB0003048062102680120904710E02C48006858
:101BC00000F0030058B12B48006840B129480221B9
:101BD00002680120904702E020202549086024483F
:101BE00008300468001F056804F0040088B905F493
:101BF000806070B91E48001D006840F480601C4978
:101C0000091D08601C48006818B11B4801680320C2
:101C1000884704F0020088B905F4007070B91448D0
:101C2000001D006840F400701149091D0860124849
:101C3000006818B1104801680120884704F00100CD
:101C400090B905F4807078B9C4F307405F280BD2CF
:101C50005F20B0EB146F07D10548001D006840F409
:101C600080700349091D086070BD00001E0300203C
:101C700010640040280300202403002070B522488F
:101C8000006800283FD021480468001F0568042030
:101C90001E491439086004F0040078B105F480602E
:101CA00060B11A48001F006820F480601749091FBE
:101CB0000860154801680420884724E004F0020009
:101CC00078B105F4007060B11048001F006820F47E
:101CD00000700E49091F08600B48016803208847FF
:101CE00011E004F0010070B105F4807058B10748AC
:101CF000001F006820F480700449091F0860024832
:101D000001680220884770BD240300201864004049
:101D100070B505460C46284605F0DAFD064626EA6B
:101D20000401284609F03CF870BD00000EB500BF64
:101D300000BF0027B8460024002501228F499048A3
:101D400006F051F88D4800780A280AD08B480078B0
:101D50000B2806D0894800780C2802D00B20874930
:101D600008704FF4FA700BF03DFD00BF8548006825
:101D70000BF0C6FD0446002CF8D00A2020707F48E6
:101D800000786070642221467F4800680BF0ACFD4B
:101D900000BF64217D4800680BF09AFD8DE80700C4
:101DA000009810281BD1019D6878744909788842F1
:101DB0000BD1A87876498870E878C8700846807892
:101DC000744988707248C078C87000BF29466D4851
:101DD00000680BF0C5FD0646002EF7D100256E48C1
:101DE000006878B902E014200BF0FCFC6A48006837
:101DF0000028F8D06648807808B9012000E000206B
:101E0000634988706548006850B902E014200BF0FF
:101E1000E9FC624800680028F8D001205C4988701D
:101E20005E48001D006858B902E014200BF0DAFC8F
:101E30005A48001D00680028F7D0002054498870D7
:101E40005348807828B15248C07810B901205049D1
:101E5000C8704A4800780A2803D0484800780C28FF
:101E600009D14B48807818B164204949C87002E014
:101E700000204749C8704648807810B9002044497E
:101E8000C870444880784249897888421BD04048CD
:101E90008078404988703E488078012809D13220F6
:101EA0003B49C87000213E480BF08EFD3D4908605B
:101EB00006E000203649C8703A4800680BF0B2FDD1
:101EC00014200BF08FFC142F02DA781CC7B202E04A
:101ED00000274FF00108344880782D4989788842DE
:101EE00005D13148C0782A49C97888421FD028488E
:101EF00080782D4988702648C078C87000BF214876
:101F000000680BF0FDFC0446002CF8D00B2020707C
:101F10001A48007860701E488078A0701C48C0780D
:101F2000E07064222146184800680BF0DDFCB8F12F
:101F3000000F18D04FF0000800BF124800680BF0E7
:101F4000DFFC0446002CF8D00C4800786070104884
:101F50008078A0700E48C078E07064222146134853
:101F600000680BF0C1FC0A48C07841004FF0804087
:101F700006F0FBF90A200BF035FC0AE7A40100206B
:101F800010C00308C0010020CC010020C8010020BF
:101F9000A5010020A9010020000121422881214241
:101FA000BC510108BC010020AD010020C40100208B
:101FB00000BF00BF284800682849D1F838114840C0
:101FC00088B9254800684006000E25490870234856
:101FD000D0F83801C0B209780843214908700020C0
:101FE0002049087013E01F48007880B901201D497E
:101FF00008701948006828B11B480078401C1A492D
:10200000087004E019480078401C18490870164808
:10201000007801280BDD0020134908701448C078AF
:10202000002804DD1248C078401E1149C8700F48CE
:10203000007801280BDD00200C4908700C48C0789E
:10204000642804DA0A48C078401C0949C8700A208C
:102050000BF0C8FBAEE70000348121420080214232
:10206000D9010020D8010020DA010020DB01002086
:10207000A50100207047000010B50548006800F079
:102080000F04034844602046FFF7F4FF10BD000032
:10209000000002407047000010B505480068C0F31A
:1020A00003142001024948602046FFF7F3FF10BDEA
:1020B000000002407047000010B505480068C0F3FA
:1020C00003242002024948602046FFF7F3FF10BDB9
:1020D000000002407047000010B505480068C0F3DA
:1020E00003342003024948602046FFF7F3FF10BD88
:1020F000000002407047000010B505480068C0F3BA
:1021000003442004024948602046FFF7F3FF10BD56
:10211000000002407047000010B505480068C0F399
:1021200003542005024948602046FFF7F3FF10BD25
:10213000000002407047000010B505480068C0F379
:1021400003642006024948602046FFF7F3FF10BDF4
:10215000000002407047000010B50548006800F01C
:102160000F040348001D04602046FFF7F3FF10BD75
:10217000000402407047000010B506480068C0F334
:10218000031420010349091D08602046FFF7F2FFF0
:1021900010BD0000000402407047000010B5064862
:1021A0000068C0F3032420020349091D086020468B
:1021B000FFF7F2FF10BD00000004024010B50C480C
:1021C0000068C0F3033434B120030949091D0860D5
:1021D000204600F00FF806480068C0F3034434B10D
:1021E00020040349091D0860204600F004F810BDD2
:1021F0000004024070477047704700002DE9F0412D
:102200004D48007881287BD10225C82646F2A817C0
:1022100040F6B83800240020484908704849087042
:102220004848007800287CD0402000F0B9F8012808
:1022300077D1002041490870414908704FF4FF717F
:102240004148FEF764FB4FF4FF714048FEF75FFB27
:1022500062E03F48006850BB04F0BCFD044640F615
:10226000B83084421ADD35480078C82816DD334876
:102270000078420035493748FEF7D2FA30480078F6
:10228000420031493448FEF7CBFA2C4800783349F4
:1022900008702B480078324908703EE027480178E2
:1022A0000078401C254A1070284820F81140284822
:1022B000006838B300F0EAFD044646F2A8108442F4
:1022C00007DC40F6B83084421DDD1D480078C82880
:1022D00019DD1A48007842001C491E48FEF7A0FA92
:1022E00017480078420018491B48FEF799FA13482E
:1022F00000781A49087012480078194908700CE0F3
:1023000010E00EE008E00E4801780078401C0C4A0E
:1023100010700D4820F811409BE700BF00200949CC
:10232000087000E000BF00BF402000F021F840200E
:1023300000F018F8BDE8F081040000200E00002035
:102340000D0000209C010020800300207E0500205D
:1023500018012242761D0020781B00209E010020DB
:102360009D010020014908607047000014040140ED
:10237000014908607047000014040140002006492C
:102380000860091D0860091D0860091D08600348F0
:10239000014914310860704700040140FFFF0F003D
:1023A000014600200022074B1B6803EA0102054B8F
:1023B00014331B680B4013B10AB1012000E0002068
:1023C0007047000000040140002123498279002A5F
:1023D0003AD00A46126803689A430B461A600A1DEF
:1023E000126803689A430B1D1A60027911440A6847
:1023F00003681A430A60184A0832126803689A434D
:10240000154B08331A601A1D126803689A43124B61
:102410000C331A604279102A0ED11A1F1268036811
:102420001A430D4B08331A601A1D126803681A43C9
:10243000094B0C331A600DE00749427911440A68D0
:1024400003681A430A6005E0027911440A680368C8
:102450009A430A60704700000004014010B5164816
:102460000078F8B915480BF065FA154908600021A5
:1024700014480BF017FA14490860002113480BF0B8
:1024800011FA13490860002112480BF00BFA1249A7
:102490000860002111480BF005FA1149086001207D
:1024A0000549087009F08EFB0BF088FE0AF0B2FABD
:1024B00009F010FA10BD00002400002014130108D8
:1024C0001000002020130108140000202813010828
:1024D00018000020301301081C00002038130108E8
:1024E0002000002010B501F0B9FE00203649086038
:1024F0003649C1F8A00136490860091D086001206D
:10250000091D08603049091D086031490839086013
:102510002E49C1F898010A2009F0C4F940212D483C
:1025200000F0A2FC00B9012480212A4800F09CFCA4
:1025300000B902248021284800F096FC00B9032449
:102540004FF40061234800F08FFC00B9042401F02F
:1025500051FE01201C4908601C49C1F8A0011C491A
:102560000860091D08600020091D08601649091D42
:1025700008601749083908601449C1F898010A2011
:1025800009F090F94021144800F06EFC00B9E4B263
:102590004FF480710F4800F067FC08B9201DC4B2E9
:1025A0004FF400710B4800F05FFC10B904F1080013
:1025B000C4B24FF48061074800F056FC10B904F132
:1025C0000C00C4B2204610BD980122420080214276
:1025D000A4812142000C01400010014010B501F01F
:1025E0003DFE0020204908602049C1F8A001204993
:1025F0000860091D08600120091D08601A49091DAD
:1026000008601B49083908601849C1F898010A2078
:1026100009F048F94021174800F026FC08B90124C8
:1026200000E000248021134800F01EFC08B90120BE
:1026300000E00020044380210F4800F015FC08B999
:10264000012000E0002004434FF40061094800F03D
:102650000BFC08B9012000E00020044314B1FFF78F
:1026600041FF10BDFF20FCE798012242008021427B
:10267000A4812142000C01400010014070B5782572
:10268000FFF7ACFF044617480078844215D00020BD
:10269000154908701548007810B1002013490870DA
:1026A000FF2C06D00A200BF09DF80E48047020463F
:1026B00070BDFF200B49087011E00A4800780F2810
:1026C0000DD109480078782804DD012007490870F9
:1026D000D120EDE704480078401C03490870FF2032
:1026E000E6E70000400000204200002041000020FA
:1026F0007FB50F2615A30FCB8DE80F00FFF7BEFFA8
:10270000054605F0F000D0280AD11448007828B911
:10271000012012490870284604B070BDFF20FBE775
:102720000E48007820B100200C490870FE20F3E725
:10273000002407E01DF80400A84201D12046EBE781
:10274000601CC4B20F2CF5DBFF20E5E70504080C84
:1027500003070B02060A010D100F0E0043000020B4
:1027600010B5084800680BF05DF9074800680BF0E9
:1027700059F9064800680BF055F9054800680BF058
:1027800051F910BD28000020300000203C0000203E
:102790004800002001460A2930D007DC30D2DFE8AB
:1027A00001F02F1B1D1F21232F2F2725812921D029
:1027B00006DC41290ED042290AD0432920D105E068
:1027C000822919D083291BD1322070473120FCE7A0
:1027D0003020FAE72420F8E71120F6E71220F4E78A
:1027E0001320F2E71420F0E72220EEE72320ECE7A5
:1027F0002120EAE73420E8E73320E6E70A20E4E78F
:102800000020E2E7704700002DE9F04105468846C8
:10281000174600242819174909880180A41C281983
:10282000154909680160241D01222146641C6A546F
:10283000B81C86B232122146641C6A542146641CBC
:102840006E5428193A464146FDF7EAFFE01984B272
:10285000A01FC1B2A81DFFF742F90646321220465A
:10286000611C8CB22A542046611C8CB22E54204626
:10287000BDE8F081521301085513010830B5044634
:1028800004254FF4302000F06FF80546042D17D1D1
:102890000C48006940F002000A490861084644619A
:1028A000006940F0400008614FF4302000F05CF80F
:1028B00005460448006941F6FD7108400149086178
:1028C000284630BD0020024004200B49C96801F0B1
:1028D000010109B101200EE00749C96801F00401B6
:1028E00009B1022007E00449C96801F0100109B1EB
:1028F000032000E0042070470020024003480069E4
:1029000040F080000149086170470000002002404B
:1029100070B504460D460426F00200F025F8064680
:10292000042E11D10948006940F0010007490861EF
:102930002580F00200F018F806460448006941F6C8
:10294000FE71084001490861304670BD0020024018
:1029500002480349486003484860704723016745BF
:1029600000200240AB89EFCD00B502460423FFF7FB
:10297000ABFF034603E0FFF7A7FF0346521E012B00
:1029800001D1002AF7D102B90523184600BD000085
:1029900018B5002844D0C0F34211C0F30322214BE4
:1029A0009B6903F001032BB91E4B9B6943F00103A4
:1029B0001C4CA36100F48053A3B11B4BDB69009353
:1029C00000F01F0301FA03F3009C9C43009400F005
:1029D0001F0302FA03F3009C23430093124C009B55
:1029E000E3611DE0104B5B68009300F01F0301FAE8
:1029F00003F3009C9C43009400F01F0302FA03F3CE
:102A0000009C2343009307210022009B23EA0163DB
:102A10000093009B43EA02630093034C009B6360B6
:102A200018BD0000001002400000014030B5002237
:102A30008B071C0F0F2303FA04F20B4B8C1053F877
:102A400024309343084C8D1044F8253023468C10D5
:102A500053F824308C07240F00FA04F42343024C6B
:102A60008D1044F8253030BD0800014001461D4856
:102A7000814204D11C488069C0F3800070471B4824
:102A8000814204D118488069C0F3C000F6E71848B5
:102A9000814204D114488069C0F30010EEE7154864
:102AA000814204D110488069C0F34010E6E7124823
:102AB000814204D10C488069C0F38010DEE70F48E2
:102AC000814204D108488069C0F3C010D6E70C48A1
:102AD000814204D104488069C0F30020CEE7002081
:102AE000CCE700000008014000100240000C01404B
:102AF000001001400014014000180140001C01407A
:102B0000002001402DE9F04102460025002600206A
:102B100000230024002791F803C00CF00F0591F862
:102B200003C00CF0100CBCF1000F03D091F802C0F0
:102B30004CEA050591F800C0BCF1000F31D01468D3
:102B400000202BE04FF0010C0CFA00F3B1F800C0AC
:102B50000CEA03069E4220D183004FF00F0C0CFAC2
:102B600003F7BC4305FA03FC4CEA040491F803C0E4
:102B7000BCF1280F06D14FF0010C0CFA00FCC2F892
:102B800014C00AE091F803C0BCF1480F05D14FF022
:102B9000010C0CFA00FCC2F810C0401C0828D1D36C
:102BA0001460B1F800C0BCF1FF0F34DD54680020A0
:102BB0002EE000F1080C4FF0010808FA0CF3B1F810
:102BC00000C00CEA03069E4221D183004FF00F0C97
:102BD0000CFA03F7BC4305FA03FC4CEA040491F831
:102BE00003C0BCF1280F05D100F1080C08FA0CF85D
:102BF000C2F8148091F803C0BCF1480F07D100F16E
:102C0000080C4FF0010808FA0CF8C2F81080401CBC
:102C10000828CED35460BDE8F0812DE9F041054687
:102C20000C46174698460F2C02D90020BDE8F081CB
:102C30002846FFF71BFF18B90121284600F072F85B
:102C4000B8F1000F10D1022F05D1E8680121A14091
:102C50008843E86008E0032F06D127F00107E86801
:102C60000121A1400843E860082C01D22E4601E072
:102C7000083C2E1D3068A2000F219140884330602F
:102C800048EA8700A100884031680843306001208D
:102C9000CCE70000F0B50A460023002400210025FF
:102CA00000F00046B6F1004F02D11D4EF16901E07F
:102CB0001B4E7168C0F3034583B200F44016B6F5AD
:102CC000401F08D121F07061154E766826F07066BD
:102CD000134F7E6012E000F48016B6F5801F06D117
:102CE000032606FA05F4A14341F0706106E0460DA3
:102CF000360103FA06F6B14341F0706122B1460D88
:102D0000360103FA06F6314300F00046B6F1004FF3
:102D100002D1034EF16101E0014E7160F0BD00008F
:102D200000000140002945D0454A904206D1454A5D
:102D3000926942F00402434B9A6180E0424A904219
:102D400006D1404A926942F008023E4B9A6176E011
:102D50003E4A904206D13B4A926942F01002394BFA
:102D60009A616CE03A4A904206D1364A926942F042
:102D70002002344B9A6162E0364A904206D1314AD1
:102D8000926942F040022F4B9A6158E0324A9042D9
:102D900006D12C4A926942F080022A4B9A614EE099
:102DA0002E4A90424BD1274A926942F48072254BB9
:102DB0009A6144E0224A904206D1224A926922F066
:102DC0000402204B9A613AE01F4A904206D11D4A04
:102DD000926922F008021B4B9A6130E01B4A904234
:102DE00006D1184A926922F01002164B9A6126E029
:102DF000174A904206D1134A926922F02002114BE1
:102E00009A611CE0134A904206D10E4A926922F060
:102E100040020C4B9A6112E00F4A904206D1094AD7
:102E2000926922F08002074B9A6108E00B4A9042B7
:102E300005D1044A926922F48072024B9A6170476C
:102E40000008014000100240000C01400010014049
:102E50000014014000180140001C01400020014006
:102E60000146886880B270470246002093680B4094
:102E70000BB1012000E00020704741617047016103
:102E800070470AB1016100E04161704770B50024EC
:102E900047F230550AE0601C84B2022008F002FDBF
:102EA00047F23050844201DB204670BD0248006882
:102EB0000028F0D12046F8E71801224200BFFEE7C3
:102EC00070B504460D46034A2946204600F086F8B0
:102ED00070BD00005855010810B5024800F074FAA2
:102EE00010BD00005855010810B5024800F0FDFA69
:102EF00010BD00005855010810B5024800F0BBFD98
:102F000010BD00005855010808B5024800F0B7FD93
:102F1000009008BD5855010810B5044602492046E6
:102F200000F0B1FD10BD000058550108F8B5044689
:102F30000D4616461F4604483B4632462946009039
:102F4000204600F0CCFDF8BD58550108F8B5044600
:102F50000D4616461F4604483B4632462946009019
:102F6000204600F02DFEF8BD5855010810B5044666
:102F70000249204600F08EFE10BD000058550108A1
:102F800070B504460D46034A2946204600F030FF3E
:102F900070BD00005855010870B504460D46034A3F
:102FA0002946204600F05CFF70BD0000585501081E
:102FB00010B5024800F086FF10BD0000585501080A
:102FC00001480068704700005455010808B50248E0
:102FD0000068009008BD0000505501082DE9F74F2A
:102FE0000F461446606A007E00F0020018B94FF0E8
:102FF000FF30BDE8FE8F0098012806D0022825D0BA
:1030000003286ED004286DD175E107F4004030B17B
:103010002068008840F040002168088005E02068B2
:10302000008820F040002168088040F2FF3000EA6C
:10303000470040F4804007F4806111B14FF4004133
:1030400000E00021084321680881A6E1D44D012F4A
:1030500002D0022F42D116E0D248854202D96FF049
:103060000300C6E7D048854202D26FF00300C0E7F4
:10307000CE48B5FBF0F04FEA5008CD48B5FBF0F074
:1030800000F1010B2FE0C748854202D96FF0030021
:10309000AFE7C848854202D26FF00300A9E7C648EF
:1030A00085420DD3B5FBF0F100FB115040B9C34888
:1030B000B5FBF0F01921B0FBF1F040F4404807E017
:1030C000BE48B5FBF0F00321B0FBF1F040F400483E
:1030D000BB48B5FBF0F000F1010B04E06FF003001A
:1030E00087E728E056E100BF2068008820F0010053
:1030F000216808802068808820F03F00216888804F
:10310000AB48B5FBF0F021688988084321688880C6
:103110002168A1F81C802168A1F820B020680088EF
:1031200040F00100216808802068008840F4806039
:103130002168088031E12068008820F001002168C2
:10314000088004F0F7FF9F4800689849B0FBF1F051
:103150008508A18A0122E0681AB101238B4003612E
:1031600007E001F110034FF0010C0CFA03FCC0F86A
:1031700010C000BFE18A012220691AB101238B40EF
:10318000036107E001F110034FF0010C0CFA03FC9E
:10319000C0F810C000BFA18A03230122E068FFF736
:1031A0003CFDE18A032301222069FFF736FD4FF041
:1031B000000A36E0E18A20698268CA4002F0010212
:1031C00002B131E0A18A0122E0681AB101238B40EB
:1031D000036107E001F110034FF0010C0CFA03FC4E
:1031E000C0F810C000BF002600E0761CAE42FCD341
:1031F000A18A0022E0681AB101238B40036107E035
:1032000001F110034FF0010C0CFA03FCC0F810C0E0
:1032100000BF002600E0761CAE42FCD30AF101009C
:103220008246BAF1090FC5D300BFE18A20698268DE
:10323000CA4002F0010900BFE18A002220691AB1E8
:1032400001238B40036107E001F110034FF0010CF3
:103250000CFA03FCC0F810C000BF002600E0761C8A
:10326000AE42FCD3A18A0122E0681AB101238B404F
:10327000036107E001F110034FF0010C0CFA03FCAD
:10328000C0F810C000BF002600E0761CAE42FCD3A0
:10329000E18A012220691AB101238B40036107E012
:1032A00001F110034FF0010C0CFA03FCC0F810C040
:1032B00000BFA18A03231A46E068FFF7AEFCE18A4B
:1032C00003231A462069FFF7A8FC2068008840F015
:1032D000010021680880606A006820B1606A0168A6
:1032E0004FF480708847B9F1000F01D0002080E6CC
:1032F0004FF0FF307DE62068808820F46060216810
:1033000088802068008840F40070216808800020D0
:10331000616A88600021606AC160606A0161606AF8
:103320008182606A8175606A406820F00100616A8C
:103330004860606A406820F00200616A4860606A24
:10334000406820F00400616A4860606A406820F0CC
:103350000800616A4860606A406820F01000616A95
:103360004860606A406820F02000616A4860206818
:10337000008820F00100216808802068008840F063
:103380000100216808802068008840F4806021687E
:10339000088002E04FF0FF302BE600BF002028E657
:1033A0000051250280DE800280841E00A08601007C
:1033B00040420F0000093D0080969800801A0600E8
:1033C000151605002C0300202DE9F0410446206865
:1033D000868A0027002506F4004008B145F4004520
:1033E00006F4804008B145F4804506F4805008B1E9
:1033F00045F4805506F4006008B145F4006506F414
:10340000806000B345F480652068008840F4007057
:1034100021680880606A406820F00100616A4860A5
:10342000606A406820F00200616A48600021606ABA
:103430000161606A81750127606A807D00F0040087
:1034400008B947F0100706F40070D0B145F40075D4
:10345000606A406820F00100616A4860606A406804
:1034600020F00200616A4860606A406820F0100045
:103470001030616A48600021606A0161606A81758C
:10348000412706F48070C8B145F48075606A4068D1
:1034900020F020002030616A4860606A4068C0F314
:1034A000400050B9606A406820F00100616A4860DD
:1034B0000021606A0161606A817581272068808AC5
:1034C000A8432168888277B1606A006858B1606A51
:1034D000C068616A8968884201D247F00207606A61
:1034E000016838468847BDE8F0812DE9F047044679
:1034F000606A00F108052068878A07F00100C0B102
:10350000A88900F4806030B1A889062101EAE010A2
:1035100040F0F00809E0287B40064FEA1068606A36
:103520004068C0F3800040EA08082068A0F81080D6
:103530009FE207F0080068B1287B21680882606A72
:103540004068C0F380000028F2D0A87B40F0020061
:10355000A8738EE207F00200002869D0A87B00F073
:103560000400D0B1606A406820F00100616A4860E0
:103570000126D5E90010884201D246F00206606AB1
:103580004068C0F3C00008B146F02006606A0068D9
:1035900018B1606A016830468847606A4068C0F3C5
:1035A000400000284DD0606A4068C0F38000F0B34E
:1035B0002868012805D12068008820F480602168EF
:1035C00008802068808A2068008BA87B00F00200B9
:1035D00050B1A87B20F00200A8732068008840F456
:1035E0008070216808807BE0286801280BD1A87BC7
:1035F00000F00100002873D12068008840F40070BA
:10360000216808806CE02868022812D120680088B0
:1036100020F48060216808802068008840F4006001
:1036200021680880A87B40F01000A87358E008E0EB
:103630006CE02868032853D1A87B40F01000A873E1
:103640004EE02068B0F81890606A4068C0F340000F
:10365000E8BB09F0100038B1606A406820F008004B
:103660000830616A486005E0606A406820F0080040
:10367000616A486009F0040030B1606A406820F077
:103680000400616A486006E0606A406820F0040057
:10369000001D616A48600026A86848B9606A4068F1
:1036A000C0F3800010B146F0080601E046F00406C1
:1036B000606A4068C0F3C00008B146F0200646B119
:1036C000606A006828B1606A0168304600E007E07F
:1036D0008847606A406820F00100401C616A4860C9
:1036E000A87B40F02400A873606840B1A06830B1A6
:1036F0002068808840F4006021688880B9E12068F3
:10370000808840F4806021688880B2E107F0100072
:1037100028B30020A860A8732068008840F4806067
:1037200021680880606A406820F00100616A486092
:103730000126D5E90010884201D246F00206606AEF
:103740004068C0F3C00008B146F02006606A006817
:103750000028D3D0606A01683046884789E1A87B99
:1037600000F020000028C9D0A87B00F0080090B32A
:10377000606A4068C0F340000028BFD0606A807D66
:1037800000F0010030B12068808820F400702168CA
:10379000888005E02068008840F400702168088077
:1037A0000020A860A87B20F02000A873606A406811
:1037B00020F00100616A4860606A406820F0020001
:1037C000616A4860606A0068002897D0606A016892
:1037D000012088474DE1FFE707F08000002870D006
:1037E000606A4068C0F34000C8B3A87B00F01000D6
:1037F000B0B307F00400002887D02068808820F448
:10380000806021688880A87B00F0010030B12068CA
:10381000808820F400702168888005E02068008896
:1038200040F40070216808800020A860A87B20F088
:103830002000A873606A406820F00100616A486057
:10384000606A406820F00200616A4860606A00684F
:103850000028BFD0606A01680120884709E111E0B3
:10386000FFE7D5E90110405C216808826868401CC8
:103870006860D5E900108842ACD1A87B40F0100008
:10388000A873F6E0A86830B9606A006818B1606A89
:10389000016804208847A86870B1D5E90110405C30
:1038A000216808826868401C6860D5E90010884279
:1038B00090D10020A860DCE0FF2021680882D8E0D9
:1038C000FFE707F04000002884D0606A4068C0F33A
:1038D000400000287DD0A87B00F01000E8B307F07E
:1038E00004000028BAD02868022804D0D5E90001D5
:1038F000801E814248D12068808820F48060216841
:103900008880A87B00F0010030B12068808820F416
:1039100000702168888005E02068008840F400700D
:10392000216808802068008AC1B26A68501C6860FB
:10393000A86881542068008AC1B26A68501C686017
:10394000A86881540020A860A87B20F02000A873FC
:10395000606A406820F0010000E024E0616A48608D
:10396000606A406820F00200616A48602068008850
:1039700020F4006021680880606A006850B3606AC3
:1039800001680120884774E02068008820F4806086
:10399000216808802068008AC1B26A68501C68608B
:1039A000A868815465E02068008AC1B26A68501C2A
:1039B0006860A8688154286801282CD12068808814
:1039C00020F4806021688880A87B00F0010040B16D
:1039D00001E030E03BE02068808820F4007021683E
:1039E00088800020A860A87B20F02000A873606A6F
:1039F000406820F00100616A4860606A406820F019
:103A00000200616A4860606A006800B3606A016829
:103A1000012088472DE0D5E90001C01E814228D150
:103A20002068808820F4806021688880A87B40F02E
:103A30001000A8731DE02068008A00F0FF08A86845
:103A400030B92068008820F480602168088010E088
:103A5000D5E9001088420CD2D5E9011000F80180A8
:103A60006868401C6860D5E90010884201D10020D8
:103A7000A860BDE8F0870146486AC0687047014603
:103A8000486A4068704770B505460C46606A007E1B
:103A900000F0010008B1002070BD208BFEF778FF18
:103AA0000121E068FFF73EF9A18A03231A46E06886
:103AB000FFF7B3F801212069FFF734F9E18A032306
:103AC0001A462069FFF7A9F81C21606AFCF741FF3C
:103AD000606A05600120616A08760020DCE770B545
:103AE0000546049C01B112B96FF0040070BD25F4C5
:103AF0000440B0F5806F02D36FF00400F6E7606A0F
:103B0000406800F0010010B16FF00100EEE7606A5C
:103B1000807D00F0010030B900BF2068008B00F00C
:103B200002000028F9D1606A406820F00100401CC2
:103B3000666A7060606A406820F00200801C666AF5
:103B40007060606A406820F00400001D666A706062
:103B5000606A406820F02000666A7060606A4068B1
:103B600020F01000666A7060606A82600026606AF9
:103B7000C660606A0161606A8582606A86752BB181
:103B8000606A807D40F00106606A86752068008862
:103B900040F48060266830802068808820F40070BF
:103BA0002668B0802068008840F4807026683080E5
:103BB0002068808840F400702668B080002095E777
:103BC00070B50546049C01B112B96FF0040070BDD8
:103BD00025F40440B0F5806F02D36FF00400F6E7DF
:103BE000606A406800F0010010B16FF00100EEE77C
:103BF000606A807D00F0010030B900BF2068008B52
:103C000000F002000028F9D1606A406820F001004D
:103C1000401C666A7060606A406820F00200801C88
:103C2000666A7060606A406820F00400666A7060CE
:103C3000606A406820F02000666A7060606A4068D0
:103C400020F01000666A7060606A82600026606A18
:103C5000C660606A0161606A8582606A86752BB1A0
:103C6000606A807D40F00106606A86752068808801
:103C700020F400702668B0802068008840F48070CE
:103C8000266830802068808840F400702668B08004
:103C900000209CE770B505460C4625B1012D44D0A7
:103CA000022D41D144E05148C069216A08434F497F
:103CB000C86100202168088094F91C0007F0ACF866
:103CC00094F91D0007F0A8F84848C069216A8843A4
:103CD0004649C861606A406820F00100616A486036
:103CE000606A406820F00200616A4860606A40686B
:103CF00020F00400616A4860606A406820F00800B3
:103D0000616A4860606A406820F01000616A48603B
:103D1000606A406820F02000616A4860606A007E46
:103D200020F00200616A08765CE06FF0030070BD6D
:103D3000606A007E00F0010010B94FF0FF30F6E736
:103D4000606A007E00F0020008B10020EFE727481B
:103D5000C069216A08432549C86194F91C0007F02D
:103D60004DF894F91D0007F049F894F91C0007F08C
:103D700071F894F91D0007F06DF81C480069216A7C
:103D800008431A49086100BF00BF00BF00BF1748C1
:103D90000069216A8843154908612068808840F4D9
:103DA0004070216888802068808820F480602168C5
:103DB00088802068008820F08000216808802068C2
:103DC000008840F00100216808802068008840F4E5
:103DD000806021680880606A007E40F00200616AAD
:103DE000087600BF00BF0020A1E7000000100240DD
:103DF00010B5034603B111B96FF0040010BD506A4D
:103E0000406800F0010010B16FF00100F6E7506A61
:103E1000406820F02000546A6060506A406820F0DA
:103E20000800546A6060506A81600024506AC4606F
:103E3000506A0361506A84751068808840F480502D
:103E40001468A0801068008840F4806014682080A6
:103E50001068808840F400701468A0800020CDE7CE
:103E600010B5034603B111B96FF0040010BD506ADC
:103E7000406800F0010010B16FF00100F6E7506AF1
:103E8000406820F02000546A6060506A406820F06A
:103E90000800546A6060506A81600024506AC460FF
:103EA000506A0361506A84751068008840F480602D
:103EB000146820801068808840F400701468A08026
:103EC0000020D3E710B50446A18A02230022E0684F
:103ED000FEF7A3FEE18A022300222069FEF79DFE81
:103EE0002120FEF755FD0020616A087610BD000014
:103EF0002DE9F04706468A4615461F4640F6B83972
:103F000000202D49086000244FE035F8140040F6E9
:103F1000B83188420DDA35F81400092190FBF1F030
:103F200035F8141008440A2190FBF1F01FFA80F8CC
:103F30000DE035F81400092190FBF1F035F814106C
:103F400008440A2190FBF1F014301FFA80F80CE0CD
:103F5000012019490860082007F0A4FC0020174937
:103F6000C1F8BC01102007F09DFCB8F10000A8F1D9
:103F700001011FFA81F8EBD10F49086036F81400EF
:103F8000142190FBF1F036F8141008441FFA80F861
:103F900002E0022007F086FCB8F10000A8F1010160
:103FA0001FFA81F8F5D1601CC4B2BC42ADDB002021
:103FB00001490860BDE8F087BC81214200802142B0
:103FC00010B5002400F074F82548006800B90124F9
:103FD0002348001D006800B9022421480830006809
:103FE00000B9032400F09CF81E48006800B9E4B250
:103FF0001C48001D006808B9E01CC4B21948103004
:10400000006808B9A01DC4B216481430006810B981
:1040100004F10900C4B20D2C1CD2DFE804F01B0728
:10402000090B0D0F111B131B15171900012413E0A9
:10403000032411E002240FE004240DE005240BE02A
:10404000062409E0072407E0082405E0092403E02A
:104050000A2401E0002400BF00BF204610BD00007C
:10406000208121420001214210B500F021F80A20F0
:1040700007F018FC0D48006808B9012000E0002096
:104080000A49091D096809B9012100E00021084316
:1040900006490831096809B9012100E000210843F7
:1040A00010B1FFF78DFF10BD0020FCE720812142F9
:1040B00008B501210C2003F0EBFB3320ADF8000024
:1040C00003208DF8020010208DF803006946104887
:1040D000FEF718FD4FF4E060ADF8000048208DF8C1
:1040E000030069460B48FEF70DFD00200A490860F1
:1040F000091F0860084910390860091F086001207D
:1041000006490860091F0860091F086008BD000013
:1041100000080140000C0140940121422881214205
:1041200008B501210C2003F0B3FB3320ADF80000EB
:1041300003208DF8020048208DF8030069461048DE
:10414000FEF7E0FC4FF4E060ADF8000010208DF8C1
:10415000030069460B48FEF7D5FC01200A490860B8
:10416000091F0860084910390860091F086000200D
:1041700006490860091F0860091F086008BD0000A3
:1041800000080140000C014014012142A881214295
:1041900010B504460F4901EB440001220E4903F01B
:1041A00037FE0E4901EB440001220D4903F030FEB9
:1041B0000C4901EB042008490A780B4903F028FE5A
:1041C0000A4901EB042006490A78094903F020FE58
:1041D00010BD000000F303089D01002000F103085A
:1041E0009E01002000D00308781B002000E0030897
:1041F000761D002008B50121182003F049FB4FF47B
:10420000E060ADF8000048208DF8030003208DF831
:10421000020069460F48FEF775FC4020ADF800002B
:1042200069460D48FEF76EFC4FF40C60ADF80000D7
:1042300010208DF8030003208DF802006946054820
:10424000FEF760FC8020ADF8000069460248FEF7EA
:1042500059FC08BD000C01400010014008B50121C7
:10426000182003F015FB4FF4E060ADF800001020BB
:104270008DF8030003208DF8020069460F48FEF711
:1042800041FC4020ADF8000069460D48FEF73AFCBD
:104290004FF40C60ADF8000048208DF803000320B7
:1042A0008DF8020069460548FEF72CFC8020ADF829
:1042B000000069460248FEF725FC08BD000C0140DD
:1042C0000010014010B502F077F90021024809F012
:1042D0007BFB0249086010BDA016010834010020D4
:1042E0009CB0002002F03AFA01200C21FEA200232B
:1042F000CDE9002102904AF251620321462003F0E9
:1043000091FE01200C21FBA20023CDE900210290A7
:104310004FF6E07204217B2003F084FE01200C2183
:10432000F5A20023CDE9002102904AF25162032157
:10433000084603F077FE01200C21F1A20023CDE90D
:10434000002102904FF6E07203212C2003F06AFE58
:1043500001200C21ECA20023CDE9002102904AF2B9
:1043600051620D21032003F05DFE01200C21E9A222
:104370000023CDE9002102904FF6E0720E21382093
:1043800003F050FE01201821E5A20023CDE9002111
:1043900002904FF6E0723221052003F043FE012027
:1043A0001821E2A20023CDE9002102904FF6E0722D
:1043B0004B21192003F036FE00BFDF484078DF496B
:1043C0000978884249D0DC484078DC4908700F20E1
:1043D000822300227A210090104602F0E3F9D648A9
:1043E0004078012802D0022824D111E0D4A118A8D5
:1043F000FCF764F801200C2118AA0023CDE9002164
:1044000002904FF61F0204217B2003F00BFE23E0F5
:10441000CCA118A8FCF752F801200C2118AA0023FF
:10442000CDE9002102904FF61F0204217B2003F00A
:10443000F9FD11E0C4A118A8FCF740F801200C21F7
:1044400018AA0023CDE9002102904AF2516204210A
:104450007B2003F0E7FD00BF00BFB7480078BB49F1
:104460000978884275D0B4480078B8490870084681
:104470000078C8B9B6A11AA8FCF720F80D20462389
:1044800000222B210090104602F08CF901200C2113
:104490001AAA0023CDE9002102904FF6074203211A
:1044A0002C2003F0BFFD1CE0A34800780246AAA11F
:1044B00016901AA8FCF702F80D20462300222B21A3
:1044C0000090104602F06EF901200C211AAA002378
:1044D000CDE9002102904FF6074203212C2003F082
:1044E000A1FD192080230E2238210090002002F027
:1044F00059F901200C2187A20023CDE90021029067
:104500004FF6E0720E21382003F08CFD7F20034629
:10451000192205210090002002F044F94FF4FA70AE
:1045200009F060F9844800780A287DD007DC7CD245
:10453000DFE800F07B15304B66887B7BD8BD812897
:1045400074D007DC412872D0422871D043286CD146
:1045500026E2B2E282286CD08328F8D1B2E10120B1
:1045600018217FA20023CDE9002102904FF6FF72AF
:104570003221052003F056FD012018217BA20023E3
:10458000CDE9002102904FF6FF724B21322003F05B
:1045900049FD91E20120182175A20023CDE90021F7
:1045A00002904FF6FF723221052003F03BFD0120FF
:1045B00018216EA20023CDE9002102904FF6FF7270
:1045C0004B21322003F02EFD76E2012018216BA250
:1045D0000023CDE9002102904FF6FF723221052021
:1045E00003F020FD0120182160A20023CDE9002165
:1045F00002904FF6FF724B21322003F013FD5BE275
:104600000120182160A20023CDE9002102904FF67D
:10461000FF723221052003F005FD0120182153A26D
:104620000023CDE9002105E0F9E028E213E10AE2E8
:104630007FE1D1E102904FF6FF724B21322003F06F
:10464000F1FC39E20120182152A20023CDE900211A
:1046500002904FF6FF721921052003F0E3FC0120C0
:10466000182142A20023CDE9002102904FF6FF72EB
:104670003221084603F0D6FC0120182147A200236E
:10468000CDE9002102904FF6FF724B21052003F087
:10469000C9FC0120182135A20023CDE90021029098
:1046A0004FF6FF726421322003F0BCFC04E20120CB
:1046B00018213CA20023CDE9002102904FF6FF72A1
:1046C0003221052003F0AEFC0120182127A200238F
:1046D000CDE9002102904FF6FF724B21322003F00A
:1046E000A1FCE9E164E000004D53475F7479706517
:1046F0003A000000780000004558545F49443A00F1
:1047000078787878000000004558445F414444526E
:104710003A000000696E646570656E64656E7400D1
:10472000CEB4BCECB2E2B5BD00000000C0A9D5B962
:10473000C4A3BFE900000000040000203F010020E6
:104740005A000000570000002D0000003E0100202C
:104750004E4F4E45000000003078253032580000A2
:10476000BBF0D1E6BCE0B2E2E86E00005820580091
:10477000C8CBCCE5D5ECB2E2E86E0000D1CCCEEDF2
:10478000BCE0B2E2E86E0000C8BCC6F8BCECB2E225
:10479000E86E0000CEC2B6C8E86E0000CAAAB6C86D
:1047A000E86E0000C1C1B6C8BCECB2E2E86E000021
:1047B00001201821F9A20023CDE9002102904FF633
:1047C000FF721921052003F02DFC01201821AFF202
:1047D00064020023CDE9002102904FF6FF723221DE
:1047E000084603F01FFC01201821EFA20023CDE9A9
:1047F000002102904FF6FF724B21052003F012FCBE
:1048000001201821AFF29C020023CDE90021029083
:104810004FF6FF726421322003F004FC4CE10120CA
:104820001821E4A20023CDE9002102904FF6FF7287
:104830003221052003F0F6FB01201821AFF2D4024B
:104840000023CDE9002102904FF6FF725021322063
:1048500003F0E8FB30E101201821D9A20023CDE9C3
:10486000002102904FF6FF721921052003F0DAFBB8
:1048700001201821AFF20C120023CDE90021029093
:104880004FF4FC623221084603F0CCFB01201821D2
:10489000CDA20023CDE9002102904FF6FF724B21FB
:1048A000052003F0BFFB01201821AFF240120023C6
:1048B000CDE9002102904FF4FC626421322003F024
:1048C000B1FBF9E001201821C2A20023CDE90021AB
:1048D00002904FF6FF721921052003F0A3FB01207F
:1048E0001821AFF278120023CDE9002102904FF495
:1048F000FC623221084603F095FB01201821B8A282
:104900000023CDE9002102904FF6FF724B210520D4
:1049100003F088FB01201821AFF2B0120023CDE98B
:10492000002102904FF4FC626421322003F07AFBF4
:10493000C2E001201821ADA20023CDE900210290A0
:104940004FF6FF721921052003F06CFB012018219E
:10495000AFF2E8120023CDE9002102904FF4FC628F
:104960003221084603F05EFB01201821A2A2002399
:10497000CDE9002102904FF6FF724B21052003F094
:1049800051FB01201821AFF21C220023CDE90021A8
:1049900002904FF4FC626421322003F043FB8BE071
:1049A0000120182197A20023CDE9002102904FF6A3
:1049B000FF723221052003F035FB01201821AFF2F0
:1049C00054220023CDE9002102904FF6FF724B21C3
:1049D000322003F027FB6FE0012018218CA2002376
:1049E000CDE9002102904FF6FF721921052003F056
:1049F00019FB01201821AFF28C220023CDE9002100
:104A000002904FF4FC623221084603F00BFB0120B8
:104A1000182165A20023CDE9002102904FF6FF7214
:104A20004B21052003F0FEFA01201821AFF2C42229
:104A30000023CDE9002102904FF4FC626421322072
:104A400003F0F0FA38E00120182174A20023CDE928
:104A5000002102904FF6FF723221052003F0E2FAA6
:104A600001201821AFF2FC220023CDE900210290A1
:104A70004FF6FF724B21322003F0D4FA1CE00120E4
:104A80001821AFF264320023CDE9002102904FF6E5
:104A9000E0723221052003F0C5FA01201821AFF29F
:104AA00074320023CDE9002102904FF6E0724B21D1
:104AB000192003F0B7FA00BF00BF5B4800780A284E
:104AC00069D00DDC81F06383DFE810F0610B1E001C
:104AD000BC0002015C01B601610B610B8002420265
:104AE000812859D00ADC412801F0B882422801F01F
:104AF0004B81432841F04B8301F0D2B9822801F069
:104B00001A828328F6D1F8E30A214848006808F0A1
:104B1000DFFE13AB07C3139810283AD114981690F0
:104B20007F2003464B2200210090084601F03AFE08
:104B30001698007888B13EA10BA8FBF7BFFC0120B6
:104B400018210BAA0023CDE9002102904FF4FC624A
:104B50004B21282003F066FA10E037A10BA8FBF7E1
:104B6000ADFC012218200BA90023CDE90102009120
:104B70004FF4FC624B21282003F054FA00BF304868
:104B80001699006808F0ECFE179017980028F6D1E7
:104B9000169001F0FDBAD9E2FDE30000B5B1C7B04F
:104BA000B5E7D1B9E86E0000B5B1C7B0B5E7C1F758
:104BB000E86E0000C3DCC2EBCAE4C8EB00000000F2
:104BC000BCFCD6B5E86E0000B0B4BCFCD7B4CCAC2D
:104BD000E86E0000BFAAB9D8D7B4CCACE86E00002C
:104BE000D5BCBFD5B1C8D6B5E86E0000BFAAB9D84C
:104BF000D2BBE86E00000000BFAAB9D8B6FEE86ECE
:104C000000000000B4B0C1B1D7B4CCACE86E000075
:104C1000B5E7D4B4D7B4CCACE86E0000B1A8BEAF51
:104C2000D7B4CCACE86E0000040000206000002087
:104C3000D3D0BBF000000000C3BBBBF000000000FD
:104C4000540000200A21FE48006808F041FE13AB22
:104C500007C3139810283AD1149816907F20034662
:104C60004B2200210090084601F09CFD1698007828
:104C700088B1F4A10BA8FBF721FC012218200BA995
:104C80000023CDE9010200914FF4FC624B21282062
:104C900003F0C8F910E0EDA10BA8FBF70FFC012011
:104CA00018210BAA0023CDE9002102904FF4FC62E9
:104CB0004B21282003F0B6F900BFE648169900689A
:104CC00008F04EFE179017980028F6D1169060E76E
:104CD0000A21E148006808F0FBFD13AB07C31398F5
:104CE00010284ED1149816907F2003464B220021A5
:104CF0000090084601F056FD1698007888B1D7A1BB
:104D00000BA8FBF7DBFB012118220BA80023CDE940
:104D1000012100904FF4FC624B21282003F082F91E
:104D200010E0D0A10BA8FBF7C9FB012118200BAAAA
:104D30000023CDE9002002914FF4FC624B21282092
:104D400003F070F9169840880246C8A10A900BA893
:104D5000FBF7B4FB012118200BAA0023CDE90020AA
:104D600002911F2269210A2003F05CF900BFC248AA
:104D70001699006808F0F4FD179017980028F6D1EE
:104D8000169006E70A21BD48006808F0A1FD13ABA4
:104D900007C3139810284ED1149816907F2003460D
:104DA0004B2200210090084601F0FCFC1698007888
:104DB00088B1AAA10BA8FBF781FB012118200BAA3F
:104DC0000023CDE9002002914FF4FC624B21282002
:104DD00003F028F910E0A3A10BA8FBF76FFB01215A
:104DE00018220BA80023CDE9012100904FF4FC62AA
:104DF0004B21282003F016F91698408802469BA103
:104E00000A900BA8FBF75AFB012018210BAA0023DC
:104E1000CDE9002102901F2269210A2003F002F946
:104E200000BF97481699006808F09AFD17901798E8
:104E30000028F6D11690ACE60A219248006808F0E6
:104E400047FD13AB07C3139810287DD11498169013
:104E50004B207F23322200210090084601F0A2FC63
:104E60007D207F23642200210090084601F09AFCF7
:104E70001698006807900BF03FFF02460B46CDE9FD
:104E8000080181A10BA8FBF719FB012118220BA82F
:104E90000023CDE9012100904FF4FC62322114205F
:104EA00001F0A0FD0BA8FBF790FC00EB40001C21DB
:104EB00001EB800080B201210A90182074A2002327
:104EC000CDE9002002914FF4FC6234210A9803F0EE
:104ED000A9F81698406807900BF00EFF02460B46A3
:104EE000CDE9080168A10BA8FBF7E8FA0120182119
:104EF0000BAA0023CDE9002102904FF4FC6264214B
:104F0000142001F06FFD0BA8FBF75FFC00EB4000E5
:104F10001C2101EB800080B20A90012018215DA2C3
:104F20000023CDE9002102904FF4FC6266210A982B
:104F300003F078F800BF58481699006808F010FD93
:104F400017901798002800E001E0F4D1169020E6B1
:104F50000A215248006808F0BBFC13AB07C3139842
:104F6000102832D1149816907F2003464B2200213E
:104F70000090084601F016FC16980078024648A1F9
:104F80000A900BA8FBF79AFA0BA8FBF71EFCC0F1DE
:104F90000800C000143080B20A90012018210BAA2A
:104FA0000023CDE9002102904FF4FC6255210A98BC
:104FB00003F038F800BF3C481699006808F0D0FCB0
:104FC000179017980028F6D11690E2E500200A9075
:104FD00009900A213548006808F07AFC13AB07C332
:104FE0001398102868D1149816901698008802908B
:104FF0000BF070FF03900BF07FFE00222C4BCDE9ED
:1050000004010BF05BFCCDE906010BF0F5FA099009
:105010001698408802900BF05DFF03900BF06CFE39
:105020004FF06632234BCDE904010BF047FCCDE98C
:1050300006010BF0E1FA0A904B207F2332223CE07C
:1050400078000020D3D0C8CB00000000CEDEC8CB53
:10505000000000006C000020B8000020B1A8BEAF26
:1050600000000000D5FDB3A300000000616E615692
:10507000414C3A2564252500AC0000209800002012
:105080008C000020F0000020252E32660000000079
:10509000A1E60000A3A50000E4000020D800002045
:1050A0002564202525000000CC0000201C010020E4
:1050B0000040BA3F6666583F47E00021009008462E
:1050C00001F070FB7D207F236422002100900846C0
:1050D00001F068FB09980BF00FFE02460B46CDE984
:1050E0000601FBA10BA8FBF7E9F9012018210BAA87
:1050F0000023CDE9002102904FF4FC6237212320E8
:1051000002F090FF0A980BF0F7FD02460B46CDE93E
:105110000601F1A10BA8FBF7D1F9012018210BAA78
:105120000023CDE9002102904FF4FC626921232085
:1051300002F078FF00BFEA481699006808F010FCFA
:10514000179017980028F6D1169022E5E5480078C8
:1051500088B3E548007828B1E3480078401EE2496A
:10516000087040E00021DF480170802003462822BB
:105170000090084601F016FB01201821AFF2CC5236
:105180000023CDE9002102904FF6FF723221052065
:1051900002F048FF9DF84E0070B901211822AFF6C9
:1051A00034200023CDE9012100904FF6FF725021F9
:1051B000322002F037FF16E00DF14E00FBF705FB41
:1051C0004021A1EB800080B20121182206900DF150
:1051D0004E000023CDE9012100904FF4FC625021E4
:1051E000069802F01FFF0A21C048006808F070FB13
:1051F0000FAB07C30F9810287DD110981690169802
:105200000078E02878D006DC1A2877D0CC2809D09E
:10521000DD2874D13BE0E12872D0E32871D0EE287C
:10522000F7D179E00120AF4908703220AE4908700B
:1052300080200346282200210090084601F0B2FA9F
:1052400001221820AAA10023CDE9010200914FF606
:10525000FF723221052002F0E5FE202107A8FBF7AE
:1052600078FB169840780246A4A1069007A8FBF7A1
:1052700025F90120182107AA0023CDE90021029079
:105280004FF4FC625021192002F0CCFE12E1012003
:1052900094490870322094490870802003462822DF
:1052A00000210090084601F07DFA0122182195A006
:1052B00000238DE807004FF6FF723221052002F02F
:1052C000B1FE202107A8FBF744FB1698417900792D
:1052D000CDE900011698C078069016988078059060
:1052E00002468BA107A8069BFBF7E8F801201822CD
:1052F00007A9002306E0E9E051E0A5E29DE0D8E03F
:1053000063E07EE0CDE9001202904FF4FC62502190
:10531000192002F087FECDE0169850F8061FCDF850
:105320004E104168CDF85210007A8DF8560080205A
:105330007F23502200210090084601F033FA2021FB
:1053400007A8FBF706FB1698807970B90122182090
:10535000AFF6E8310023CDE9010200914FF6FF726C
:105360005021322002F05EFE18E01698801DFBF7F7
:105370002CFA4021A1EB800080B201211822069076
:105380001698801D0023CDE9012100904FF4FC62A6
:105390005021069800E0E5E002F044FE8AE080201B
:1053A0000346282200210090084601F0FBF9012164
:1053B00018205CA20023CDE9002002914FF6E07294
:1053C0003C21142002F02EFE74E0012045490870B3
:1053D00014214548017080200346282200210090B6
:1053E000084601F0DFF90122182051A10023CDE980
:1053F000010200914FF6E0723C21142002F012FEEF
:1054000058E001203749087014203749087080207F
:105410000346282200210090084601F0C3F901212B
:10542000182246A00023CDE9012100904FF6E0723A
:105430003C21142002F0F6FD3CE0012029490870CF
:1054400014202949087016984078012802D00228B3
:105450002CD115E080200346282200210090084628
:1054600001F0A0F90121182237A00023CDE9012184
:1054700000904FF6E0723C21142002F0D3FD16E0BC
:1054800080200346282200210090084601F08AF976
:10549000012018212FA20023CDE9002102904FF610
:1054A000E0723C21142002F0BDFD00E000BF00BF0F
:1054B00000E000BF00BF00BF29481699006808F04F
:1054C0004FFA179017980028F6D1169059E400006B
:1054D000252E326620560000252E3266204100001F
:1054E0001001002042010020410100202000002086
:1054F000D6B8CEC6CAE4C8EB0000000049443A2042
:105500002564000052464944CAE4C8EB000000008C
:10551000253032582530325825303258253032580F
:1055200000000000BFAACABCC1F4D1D40000000032
:10553000C1F4D1D4CDEAB1CF00000000BAF4BDD09F
:10554000C7EBC7F300000000C3C5CBF8D2D1BFAA98
:1055500000000000C3C5CBF8D2D1B9D800000000CC
:1055600010000020FE480078002807D0FD48007891
:1055700028B1FC480078401EFA49087082E00020FB
:10558000F749087080200346192205210090002069
:1055900001F008F901221820AFF6DC110023CDE953
:1055A000010200914FF6FF721921052002F03AFD29
:1055B00001201821AFF6F0120023CDE9002102905E
:1055C0004FF6FF724B21052002F02CFD4B207F236C
:1055D000322200210090084601F0E4F89DF85600C0
:1055E0000246AFF2E40109900AA8FAF767FF012129
:1055F00018200AAA0023CDE9002002914FF4FC6292
:105600003221084601F0EEF97D207F23642200213B
:105610000090084601F0C6F89DF857006438052848
:105620001DD2DFE800F003080D121700CEA10AA872
:10563000FAF744FF18E0CEA10AA8FAF73FFF13E0FB
:10564000CEA10AA8FAF73AFF0EE0CFA10AA8FAF70E
:1056500035FF09E0CFA10AA8FAF730FF04E0C2A1A4
:105660000AA8FAF72BFF00BF00BF012118220AA8E1
:105670000023CDE9012100904FF4FC626421142045
:1056800002F0D0FC0A21C648006808F021F912ABEC
:1056900007C3129810287DD1139816901698007899
:1056A0008DF854001698C0788DF857001698007839
:1056B0000A2802D00B286ED154E00120A8490870B6
:1056C0003220A8490870802003461922002100904A
:1056D000084601F067F801211820B2A20023CDE9A5
:1056E000002002914FF6E0723C210A2002F09AFC61
:1056F00001201821AFA20023CDE9002102904FF62E
:10570000E07250211E2002F08DFC192080230E2211
:1057100038210090002001F045F8169840780A28BA
:105720000FD00B281BD101200C21A5A20023CDE90D
:10573000002102904FF6E0720E21382002F072FC38
:105740000EE001210C22A1A00023CDE9012100904F
:105750004FF6E0720E21382002F064FC00E000BF3A
:1057600000BF64E07E480078B8BB4B207F23322224
:1057700000210090084601F015F81698807802463E
:10578000AFF2842109900AA8FAF798FE01221820A6
:105790000AA901E057E049E00023CDE901020091A8
:1057A0004FF4FC623221084601F01CF97D207F2372
:1057B000642200210090084600F0F4FF1698C0789B
:1057C000643805281ED2DFE800F003090E13180024
:1057D00065A10AA8FAF772FE19E026E064A10AA8FA
:1057E000FAF76CFE13E065A10AA8FAF767FE0EE06F
:1057F00065A10AA8FAF762FE09E066A10AA8FAF70D
:105800005DFE04E058A10AA8FAF758FE00BF00BFE9
:10581000012018210AAA0023CDE9002102904FF4AB
:10582000FC626421142002F0FDFB00E000BF00BF19
:1058300000BF69481699006808F092F81790179809
:105840000028F6D1169080E464480078002807D03C
:105850006348007828B162480078401E60490870AB
:1058600029E100205D4908708020034619220521A6
:105870000090002000F096FF5A4800780A2804D0D3
:105880000B2811D00C283AD12AE001211822AFF6BA
:10589000BC400023CDE9012100904FF6FF72322178
:1058A000052002F0BFFB2BE001211820AFF6DC42FF
:1058B0000023CDE9002002914FF6FF721921052047
:1058C00002F0B0FB0120182247A10023CDE900120D
:1058D00002904FF6FF724B21052002F0A3FB0FE070
:1058E00001201821AFF614520023CDE900210290C7
:1058F0004FF6FF723221052002F094FB00E000BF5A
:1059000000BF9DF8560030B1012809D138A10AA87E
:10591000FAF7D4FD05E038A10AA8FAF7CFFD00E0B8
:1059200000BF00BF2F4800780A2804D00B286BD096
:105930000C2865D17EE064207F234B22002100905B
:10594000084600F02FFF012018210AAA0023CDE904
:10595000002102904FF4FC624B21282051E053E0DB
:1059600044010020430100202020204E554C4C00D3
:10597000B0B4BCFCB5C8B4FD00000000B5C8B4FDAF
:10598000D2A3BFD800000000D1A7CFB0CDEAB1CFDD
:1059900000000000D0C5BAC5CAE4B3F6000000009C
:1059A00090010020574946495F4558445F414444AF
:1059B0005200000049532053455454494E470000BB
:1059C0006966722D766964656F0000006966722DE4
:1059D000617564696F0000008401002047010020A8
:1059E0004601002045010020C1C1B6C8E86E000094
:1059F000BFAAC6F400000000B9D8B1D5000000006D
:105A00002EE002F00FFB2BE04B207F2332220021FF
:105A10000090084600F0C6FE012018210AAA0023C3
:105A2000CDE9002102904FF4FC623221282002F0DF
:105A3000F9FA15E064207F234B22002100900846EC
:105A400000F0B0FE012018210AAA0023CDE90021B0
:105A500002904FF4FC624B21282002F0E3FA00BFD1
:105A600000BF9DF857000246F8A109900AA8FAF76E
:105A700025FDF84800780A2804D00B2803D00C280C
:105A800018D116E016E07D207F23642200210090CB
:105A9000084600F087FE012018210AAA0023CDE95C
:105AA000002102904FF4FC626421322002F0BAFA25
:105AB00000E000BF00BF0A21E748006807F008FFC8
:105AC00012AB07C31298102870D11398169016982D
:105AD00000780A2802D00B2869D16CE00120DF4948
