:020000040800F2
:100000002813002021030008FD0A0008AF0A000899
:10001000F90A000819050008512000080000000036
:10002000000000000000000000000000590200086D
:10003000A106000800000000D10200080D0300081E
:100040003B0300083B0300083B0300083B03000898
:100050003B0300083B0300083B0300083B03000888
:100060003B0300083B0300083B0300082105000890
:10007000410500086105000881050008A105000888
:10008000C1050008E10500083B0300083B03000828
:100090003B0300083B0300083B0300083B03000848
:1000A0003B0300083B0300083B0300083B03000838
:1000B0003B0300083B0300083B0300083B03000828
:1000C0003B0300083B0300083B0300083B03000818
:1000D0003B030008510D00083B0300083B030008E8
:1000E0003B0300083B0300083B0300083B030008F8
:1000F0003B0300083B0300083B0300083B030008E8
:100100003B0300083B0300083B0300083B030008D7
:100110003B0300083B0300083B0300083B030008C7
:1001200001060008210600084506000865060008CB
:1001300000F002F800F03AF80AA090E8000C8244BF
:100140008344AAF10107DA4501D100F02FF8AFF29C
:10015000090EBAE80F0013F0010F18BFFB1A43F0A5
:1001600001031847A4340000C4340000103A24BF2F
:1001700078C878C1FAD8520724BF30C830C144BF0C
:1001800004680C607047000000230024002500264E
:10019000103A28BF78C1FBD8520728BF30C148BFEA
:1001A0000B6070471FB51FBD10B510BD00F08CF976
:1001B0001146FFF7F7FF0FB400F00CF80FBC02F088
:1001C00019F800F048F903B4FFF7EEFF03BC00F0A4
:1001D00075F9000004B002F01FF80448002102F095
:1001E0006FF802F02BF800F036F9000074350008C3
:1001F00080F309887047EFF309807047684680F301
:10020000098804480078C00714BF0220032080F347
:100210001488704734350008DFF818C0EFF3058301
:100220001B0618BF6047EFF31483DB0708BF604766
:1002300000DF7047D3230008DFF818C0EFF3058311
:100240001B0618BF6047EFF31483DB0708BF604746
:1002500000DF7047B9250008EFF30980816911F8C4
:10026000021CF1B990E80F10E047EFF3098C8CE81D
:100270000700144B93E8060091420FD039B12CE9E6
:10028000F00FC1F828C00CB402F032FD0CBC1A60AB
:10029000D2F828C0BCE8F00F8CF309886FF0020E8A
:1002A000704710B5084A1268914209D8074C54F8B3
:1002B000214090E80F10A047EFF3098C8CE80F0065
:1002C00010BD0000280000201405000814050008D7
:1002D00002F0E0FB0C4B93E80600914210D0EFF3E4
:1002E000098C2CE9F00FC1F828C00CB402F000FD15
:1002F0000CBC1A60D2F828C0BCE8F00F8CF3098857
:100300006FF0020E704700002800002002F0B8FDD8
:10031000E0E7000002F05CF802F0B2FDDAE700006E
:100320000948804709480047FEE7FEE7FEE7FEE789
:10033000FEE7FEE7FEE7FEE7FEE7FEE704480549C5
:10034000054A064B70470000090C000831010008FF
:10035000280D002028130020280F0020280F00203F
:1003600000487047C40C002053EA020C00F069807A
:100370002DE9F04B4FF00006002B1FBFB3FA83F5B9
:1003800003FA05F424FA05F65E4012BF1643B2FAEA
:1003900082F502FA05F4C5F120051EBF22FA05FC1C
:1003A00044EA0C04203556EA044C4FEA144418BFC2
:1003B000641C4FF000084FF00009904271EB030CF1
:1003C00039D3002919BFB1FA81F701FA07F6B0FA5B
:1003D00080F700FA07F6C7F120071EBF20FA07FCD6
:1003E00046EA0C062037B6FBF4FCA7EB0507103FE6
:1003F00007F01F0BCBF120060CFA0BFB2CFA06F6CC
:1004000044BFB3460026202FA4BF5E464FF0000B2A
:100410005BEA060C08BF4FF0010B19EB0B09ABFBB5
:10042000027C48EB0608C01B06FB02CC0BFB03CC8E
:1004300071EB0C01C1E70B46024641464846BDE858
:10044000F08B13B54FF000004FF00001AFF30080C8
:10045000BDE81C40704710B50446AFF3008020464D
:10046000BDE81040FFF7AFBE4FF0000200B51346E5
:1004700094469646203922BFA0E80C50A0E80C50C4
:10048000B1F12001BFF4F7AF090728BFA0E80C5075
:1004900048BF0CC05DF804EB890028BF40F8042B6E
:1004A00008BF704748BF20F8022B11F0804F18BFDB
:1004B00000F8012B704770477047704701491820BA
:1004C000ABBEFEE7260002007546FFF749FFAE46C9
:1004D00005006946534620F00700854618B020B550
:1004E000FFF72CFFBDE820404FF000064FF000075B
:1004F0004FF000084FF0000B21F00701AC46ACE8CC
:10050000C009ACE8C009ACE8C009ACE8C0098D4638
:10051000704770470000000000BFFEE77047000012
:1005200010B50548006800F00F04034844602046F9
:10053000FFF7F4FF10BD000000000240704700000C
:1005400010B505480068C0F3031420010249486053
:100550002046FFF7F3FF10BD000002407047000087
:1005600010B505480068C0F3032420020249486022
:100570002046FFF7F3FF10BD000002407047000067
:1005800010B505480068C0F30334200302494860F1
:100590002046FFF7F3FF10BD000002407047000047
:1005A00010B505480068C0F30344200402494860C0
:1005B0002046FFF7F3FF10BD000002407047000027
:1005C00010B505480068C0F303542005024948608F
:1005D0002046FFF7F3FF10BD000002407047000007
:1005E00010B505480068C0F303642006024948605E
:1005F0002046FFF7F3FF10BD0000024070470000E7
:1006000010B50548006800F00F040348001D0460A1
:100610002046FFF7F3FF10BD0004024070470000C2
:1006200010B506480068C0F3031420010349091DF2
:1006300008602046FFF7F2FF10BD000000040240F2
:100640007047000010B506480068C0F3032420027C
:100650000349091D08602046FFF7F2FF10BD0000A6
:100660000004024010B50C480068C0F3033434B1F4
:1006700020030949091D0860204600F00FF80648CC
:100680000068C0F3034434B120040349091D086025
:10069000204600F004F810BD000402407047704787
:1006A0007047000018B5002844D0C0F34211C0F3D1
:1006B0000322214B9B6903F001032BB91E4B9B695D
:1006C00043F001031C4CA36100F48053A3B11B4B06
:1006D000DB69009300F01F0301FA03F3009C9C43C5
:1006E000009400F01F0302FA03F3009C23430093DD
:1006F000124C009BE3611DE0104B5B68009300F01F
:100700001F0301FA03F3009C9C43009400F01F03B5
:1007100002FA03F3009C2343009307210022009B6D
:1007200023EA01630093009B43EA02630093034CB6
:10073000009B636018BD00000010024000000140F3
:1007400001461D48814204D11C488069C0F38000E5
:1007500070471B48814204D118488069C0F3C0002B
:10076000F6E71848814204D114488069C0F30010AC
:10077000EEE71548814204D110488069C0F340106B
:10078000E6E71248814204D10C488069C0F380102A
:10079000DEE70F48814204D108488069C0F3C010E9
:1007A000D6E70C48814204D104488069C0F3002098
:1007B000CEE70020CCE70000000801400010024016
:1007C000000C0140001001400014014000180140DD
:1007D000001C0140002001402DE9F04102460025A7
:1007E0000026002000230024002791F803C00CF00D
:1007F0000F0591F803C00CF0100CBCF1000F03D0F2
:1008000091F802C04CEA050591F800C0BCF1000F58
:1008100031D0146800202BE04FF0010C0CFA00F3EB
:10082000B1F800C00CEA03069E4220D183004FF0CD
:100830000F0C0CFA03F7BC4305FA03FC4CEA040462
:1008400091F803C0BCF1280F06D14FF0010C0CFA4F
:1008500000FCC2F814C00AE091F803C0BCF1480FD4
:1008600005D14FF0010C0CFA00FCC2F810C0401C7E
:100870000828D1D31460B1F800C0BCF1FF0F34DDFB
:10088000546800202EE000F1080C4FF0010808FA2F
:100890000CF3B1F800C00CEA03069E4221D183009C
:1008A0004FF00F0C0CFA03F7BC4305FA03FC4CEABB
:1008B000040491F803C0BCF1280F05D100F1080C25
:1008C00008FA0CF8C2F8148091F803C0BCF1480F84
:1008D00007D100F1080C4FF0010808FA0CF8C2F833
:1008E0001080401C0828CED35460BDE8F0812DE96B
:1008F000F04105460C46174698460F2C02D90020B9
:10090000BDE8F0812846FFF71BFF18B901212846F2
:1009100000F02AF8B8F1000F10D1022F05D1E868D5
:100920000121A1408843E86008E0032F06D127F0A9
:100930000107E8680121A1400843E860082C01D2C2
:100940002E4601E0083C2E1D3068A2000F21914088
:100950008843306048EA8700A10088403168084336
:1009600030600120CCE70000002945D0454A904284
:1009700006D1454A926942F00402434B9A6180E0F5
:10098000424A904206D1404A926942F008023E4BE8
:100990009A6176E03E4A904206D13B4A926942F023
:1009A0001002394B9A616CE03A4A904206D1364ABD
:1009B000926942F02002344B9A6162E0364A9042DA
:1009C00006D1314A926942F040022F4B9A6158E0B9
:1009D000324A904206D12C4A926942F080022A4B58
:1009E0009A614EE02E4A90424BD1274A926942F4D6
:1009F0008072254B9A6144E0224A904206D1224AF5
:100A0000926922F00402204B9A613AE01F4A904218
:100A100006D11D4A926922F008021B4B9A6130E010
:100A20001B4A904206D1184A926922F01002164BD6
:100A30009A6126E0174A904206D1134A926922F041
:100A40002002114B9A611CE0134A904206D10E4AD3
:100A5000926922F040020C4B9A6112E00F4A9042D8
:100A600006D1094A926922F08002074B9A6108E098
:100A70000B4A904205D1044A926922F48072024BDB
:100A80009A6170470008014000100240000C0140CC
:100A9000001001400014014000180140001C0140FA
:100AA000002001400AB1016100E04161704700BFD0
:100AB000FEE7000010B501F0AFFB02F009FD0021D8
:100AC000094801F0FDFB094908600021064801F0D2
:100AD000F7FB074908600021034801F0F1FB0549D5
:100AE000086001F0ABFB10BD0435000800000020D9
:100AF000040000200800002000BFFEE7704700004F
:100B000029B1064A92690243044B9A6104E0034A00
:100B100092698243014B9A617047000000100240C5
:100B200010B500F001F810BD0CB500200190009048
:100B30003348006840F480303149086000BF3048D5
:100B4000006800F4003000900198401C019000986B
:100B500018B90198B0F5A06FF1D12948006800F4E8
:100B6000003010B10120009001E0002000900098BA
:100B7000012843D12348006840F010002149086053
:100B80000846006820F0030008600846006840F04E
:100B9000020008601A4840681949486008464068E1
:100BA00048600846406840F48060486008464068F5
:100BB00020F47C1048600846406840F4E810486023
:100BC0000846006840F08070086000BF0C4800686C
:100BD00000F000700028F9D00948406820F00300B8
:100BE000074948600846406840F00200486000BF7E
:100BF0000348406800F00C000828F9D10CBD000043
:100C0000001002400020024010B51348006840F078
:100C100001001149086008464068104908400E4923
:100C20004860084600680E4908400B4908600846BD
:100C3000006820F4802008600846406820F4FE0028
:100C400048604FF41F008860FFF76AFF4FF00060B4
:100C50000449086010BD0000001002400000FFF8C9
:100C6000FFFFF6FE08ED00E070B5054605240FE035
:100C7000012210210948FFF715FFC82001F0C0FA32
:100C8000002210210548FFF70DFF642001F0B8FA9B
:100C9000601EC0B2041EEBD170BD00000010014008
:100CA0000E4A01210E4801F033FB04464FF47A61ED
:100CB000204601F043FB0FE0012208210948FFF71D
:100CC000F1FEC82001F09CFA002208210548FFF738
:100CD000E9FE642001F094FAEEE70000690C0008D8
:100CE000143500080010014070B504460D46034A53
:100CF0002946204600F080F870BD000098350008B5
:100D000008B5024800F088FC009008BD983500083E
:100D100008B5024800F083FC009008BD9835000833
:100D200010B5024800F0C3FC10BD00009835000863
:100D300008B5024800F0BFFC009008BD98350008D7
:100D400010B5024800F021FD10BD000098350008E4
:100D500010B5024800F01DFD10BD000098350008D8
:100D600010B504460249204600F04BFE10BD0000BD
:100D70009835000810B504460249204600F0FEFEF2
:100D800010BD00009835000870B504460D46034AB2
:100D90002946204601F006F870BD0000983500088D
:100DA00070B504460D46034A2946204601F04BF82B
:100DB00070BD00009835000810B504460249204671
:100DC00001F085F810BD00009835000870B50446A4
:100DD0000D461646034B32462946204601F0C5F81B
:100DE00070BD00009835000810B5024801F0F2F817
:100DF00010BD0000983500082DE9FE4F07460D464E
:100E00001446206BC07A00F0020018B94FF0FF3092
:100E1000BDE8FE8F0020009080468346F8B215386A
:100E200006287CD2DFE800F0A3DC032C4E6CA5B1D1
:100E3000606B90F8210010B16FF00100E8E701202D
:100E4000616B81F82100616B81F820006068808906
:100E500040F081006168888110E0606B90F82000AC
:100E600060B16068808920F080006168888100201E
:100E7000616B81F82000616B81F821000020C7E7D9
:100E80006068808920F0C00061688881A06A88B1AC
:100E9000606B90F8210068B16068808A20F0800063
:100EA00061688882A16A0868016821F00101016017
:100EB00000BF00BF0020616B81F82000616B81F8EA
:100EC0002100A5E76068808920F0200061688881A2
:100ED000E06A80B1206B407968B16068808A20F058
:100EE000400061688882E16A0868016821F00101B8
:100EF000016000BF00BF0021206B4171002087E727
:100F00006068808920F0E00061688881A06A98B1FB
:100F1000606B90F8210078B16068808A00E0C2E0E0
:100F200020F0800061688882A16A0868016821F069
:100F30000101016000BF00BFE06A80B1206B407911
:100F400068B16068808A20F0400061688882E16A48
:100F50000868016821F00101016000BF00BF0021A5
:100F6000206B41710020616B81F8210050E7E0683F
:100F700010B94FF0FF304BE7BDB1206BC0680628B9
:100F800006D0E2689188032310680222FFF7AFFCC5
:100F9000206BC07A40F00800216BC87260688089BD
:100FA00040F008006168888118E06068808920F05E
:100FB000080061688881206BC07A20F00800216BEE
:100FC000C872206BC068062808D0E06830B1E268BB
:100FD0009188002310681A46FFF789FC002017E764
:100FE000206910B94FF0FF3012E7E5B3206BC068FD
:100FF00006280AD0206BC068042806D02269918890
:10100000002310680122FFF772FC206BC07A40F0C9
:101010001000216BC8726068808A40F0010061682E
:1010200088826068008A40F04000616808826068D9
:10103000808940F0100061688881206B407918B188
:10104000E06A08B1012000E0002028B960688089CA
:1010500040F02000616888816068808940F0040069
:10106000616888811DE0FFE76068808920F00400E6
:1010700061688881206BC07A20F01000216BC872F3
:10108000206BC06806280CD0206BC068042808D0EC
:10109000206930B122699188002310681A46FFF751
:1010A00026FC0020B4E600BF00BF206B407918B9D1
:1010B000606B90F8210010B16FF00100A8E6606845
:1010C000808900F0080038B16068008800F04000B6
:1010D00010B96FF001009BE6F8B2152872D2DFE874
:1010E00000F0C90B0E1D20252AC9C9C9C9C9C9C923
:1010F000C9C9373B697EB80001200290BDE0207865
:10110000C0F3400020B148F4006848F4807802E061
:101110006FF006007CE602200290AEE06FF0060061
:1011200076E64BF0080B04200290A6E04BF0020B91
:1011300005200290A1E02078C0F3401010B14BF0E0
:10114000200B02E06FF0060062E60620029094E0B9
:10115000616B4D8300205BE6206BC068052824D0BE
:1011600015B36068808A40F0040061688882D4F812
:1011700008A0FE48B0FBFAFA012605E00AFB06F0DB
:10118000A84200D902E0761CFF2EF7D900BFB6F5C1
:10119000807F02D14FF0FF303AE66068008B20F08C
:1011A000FF0030436168088302E04FF0FF302FE614
:1011B00000202DE6206BC06806280BD1FF2D02D938
:1011C000C01F25E656E06068008BC0B22843616806
:1011D000088302E04FF0FF301AE6002018E6206B8B
:1011E000C068062830D1D4F808A0E048B0FBFAFA6D
:1011F000012619E00AFB06F040006421484305EB94
:10120000051101EB4101B0EB410F0CD20AFB06F0D6
:1012100040006421484305EB051101EB4511B0EB9B
:10122000410F00D902E0761C402EE3D300BF402ED0
:1012300002D14FF0FF30EBE56068008B20F0FF003B
:1012400030436168088302E04FF0FF30E0E50020A2
:10125000DEE5206BC068062807D14DB16068808A42
:1012600040F010006168888202E04FF0FF30CFE567
:101270000020CDE56FF00300CAE500BF07F4E06091
:1012800060B1B0F5807F13D0B0F5E06F1DD107F4E9
:10129000405010B96FF00800BAE519E007F440506B
:1012A00028B148F02008009840F4805000900FE0EA
:1012B00007F4405010B16FF00800A9E548F020088D
:1012C000009840F48050009002E06FF008009FE525
:1012D00000BF07F4405030B1B0F5805F04D0B0F5E6
:1012E000005F0BD105E00CE0009840F480600090B6
:1012F00007E0009840F4C060009002E06FF0090041
:1013000086E500BF07F4404048B1B0F5804F07D0F4
:10131000B0F5004F07D0B0F5404F0AD106E00BE022
:1013200048F4005808E048F4405805E048F4805874
:1013300002E06FF00A006BE500BF07F4403048B1EF
:10134000B0F5803F09D0B0F5003F13D0B0F5403F75
:101350002ED11CE04FF000092DE02078C0F3C01022
:1013600020B14FF480394BF4807B02E06FF00B002A
:101370004EE520E02088C0F3002020B14FF4003972
:101380004BF4C06B02E06FF00B0041E513E02078F6
:10139000C0F3C01040B12088C0F3002020B14FF44A
:1013A00040394BF4E06B02E06FF00B0030E502E0F7
:1013B0006FF00B002CE500BF029802281DD107F446
:1013C000802018B1B0F5802F04D100E005E048F48A
:1013D000806802E06FF00C001AE500BF07F40020FF
:1013E00018B1B0F5002F04D100E005E048F4007812
:1013F00002E06FF00D000BE500BFA06800EBC0013C
:1014000001EB0010A900B0FBF1F06421B0FBF1F199
:10141000A06800EBC00202EB0010AA00B0FBF2F0E3
:10142000A26802EBC20303EB0212AB00B2FBF3F2C1
:101430006423B2FBF3F202EBC20303EB0212A0EB54
:101440008200322202EB00106422B0FBF2FA61F358
:101450001F1AA06800011FFA8AF1B0FBF1F0000921
:10146000019064210198484305EB051101EB41010E
:10147000B0EB410F09D264210198484305EB0511F7
:1014800001EB4511B0EB410F02D86FF00700BFE44C
:101490006068808920F40050616888816168A1F8E3
:1014A00008A00298216BC860206BC0F81090206BD8
:1014B000C068062809D1E06830B1E268918803234A
:1014C00010680222FFF713FA17E0206BC07A00F0D1
:1014D000080048B1E06880B1E26891880323106891
:1014E0000222FFF704FA08E0E06830B1E268918870
:1014F000002310681A46FFF7FAF900BF206BC06896
:10150000042802D006280BD100E000BF206930B1CA
:1015100022699188002310681A46FFF7E8F918E05D
:10152000206BC07A00F0100048B1206980B12269B8
:101530009188002310680122FFF7D9F908E020699B
:1015400030B122699188002310681A46FFF7CFF95D
:1015500000BF00BF6069D0B1206BC068022802D014
:1015600006280BD100BF6269918801E000CA9A3B4E
:10157000032310680222FFF7BAF907E06269918835
:10158000002310681A46FFF7B2F900BF00BFA06938
:10159000A0B1B9F5803F02D0B9F5403F07D1A269AB
:1015A0009188032310680222FFF7A1F906E0A269DF
:1015B0009188002310681A46FFF799F9E069A0B1F5
:1015C000B9F5003F02D0B9F5403F07D1E2699188F3
:1015D000002310680122FFF78AF906E0E26991888A
:1015E000002310680122FFF782F900986168888162
:1015F0006168A1F810806168A1F814B06068808902
:1016000040F4005061688881206BC07A40F004008B
:10161000216BC872002011E40146086870470CB5C0
:101620000146019820F001000190086B006920B18B
:10163000086B0069B0F5803F0ED1C86960B1CB6915
:1016400098881A689368C34003F0010323B901988E
:1016500020F00100401C0190019820F00200019050
:10166000019820F008000190019820F004000190FA
:101670000198009A60F300020092019842080098D5
:1016800062F34100009001988208009862F38200A2
:1016900000900198C208009862F3C300009001987E
:1016A0000209009862F31F10009000980CBD0146DB
:1016B000486B006970470CB50146486B90F82100F3
:1016C00028B1019820F00100401C019008E0486812
:1016D0000088012222EA9012019862F30000019032
:1016E000086B4279019862F341000190086B82799E
:1016F000019862F382000190086BC279019862F34D
:10170000C3000190086B027A019862F30410019003
:10171000086B427A019862F345100190086B827A57
:10172000019862F3861001900198009A60F300021C
:10173000009201984208009862F3410000900198DD
:101740008208009862F3820000900198C208009815
:1017500062F3C300009001980209009862F304103C
:10176000009001984209009862F34510009001989A
:101770008209009862F3861000900198C2090098CF
:1017800062F3DF10009000980CBD0146486B406981
:1017900070472DE9F041044660680688002700255F
:1017A000A84606F02000616889890840002860D0BA
:1017B000206B407938B9606880880121206BC17145
:1017C00045F0200555E0206BC068022806D1606B0B
:1017D000C069012802D16068808802E06068B0F8C2
:1017E0000480606B8268501C636B986082F8008094
:1017F0006068878907F4806050B907F4805038B179
:101800004FEA2821606B8268501C636B98601170EE
:10181000606B0069401C616B0861606B0069616B03
:101820000968884225D16068808920F010006168CD
:1018300088810021206B4171206BC068022816D17D
:10184000606BC7690020616BC861012F04D0022F53
:1018500005D0032F09D105E045F0010506E045F06C
:10186000020503E045F0040500E000BF01E045F09B
:10187000020506F0100061688989084018B16068A7
:10188000808845F0400506F080006168898908403D
:10189000002863D0606B90F8200030B160688089C8
:1018A00040F001006168888158E0606B4068616BBE
:1018B0004969884222D0206BC068022807D1606B3A
:1018C000C069022803D1606BB0F81A8016E0606B23
:1018D000C168481C626BD06091F80080606887899D
:1018E00007F4806050B907F4805038B1606BC1686C
:1018F000481C626BD060087848EA0028606B406939
:10190000401C616B48616068A0F80480606B4068AF
:10191000616B4969884221D16068808920F080002C
:10192000616888816068808940F0400061688881D2
:101930000020616B81F82100206BC06802280BD168
:10194000606BC069012809D1206BC07A00F01000DB
:1019500020B945F0010501E045F0010506F0400021
:1019600061688989084038B16068808920F040004A
:101970006168888145F0080506F0080030B16068AC
:1019800080880121206BC17145F0200506F002001E
:1019900030B1606880880121206B417245F4807508
:1019A00006F0010030B1606880880121206B8172EF
:1019B00045F4007506F4807050B16068008820F42A
:1019C0008070616808800121206B017245F08005FC
:1019D00006F4007038B16068008820F40070616817
:1019E000088045F4806525B1206B006808B10120AE
:1019F00000E0002018B1206B016828468847BDE848
:101A0000F08170B505460C46206BC07A00F00100ED
:101A100008B1002070BD206B05600020216B0871AB
:101A20000021206B4171206B8171206BC171206B93
:101A30000172206B4172206B81720020216BC860A3
:101A4000616B81F821002421606BFEF70DFD608C35
:101A5000FEF728FEE06820B1E16808680121FEF782
:101A600083FF206920B1216908680121FEF77CFF0E
:101A7000606920B1616908680121FEF775FFA069FE
:101A800020B1A16908680121FEF76EFFE06920B16D
:101A9000E16908680121FEF767FF0120216BC87228
:101AA0000020B7E72F49884205D12F49C96841F482
:101AB00080412D4AD1602D49884205D12A490969C2
:101AC00041F40031284A11612949884205D126494B
:101AD000096941F48021244A11612649884205D1CF
:101AE0002149096941F400211F4A116122498842B4
:101AF00005D11D49096941F480111B4A116100BFDC
:101B000000BF00BF00BF1749884205D11649C96808
:101B100021F48041144AD1601449884205D1124908
:101B2000096921F40031104A11611149884205D137
:101B30000D49096921F480210B4A11610D49884240
:101B400005D10949096921F40021074A11610A49AF
:101B5000884205D10449096921F48011024A1161C2
:101B6000704700000038014000100240004400406F
:101B700000480040004C00400050004070B5054651
:101B80000C4625B1012D71D0022D6ED171E0606837
:101B9000FFF788FF94F92400002817DB00F01F02EC
:101BA00001219140774A430942F8231000BF00BF4A
:101BB00000BFBFF34F8F00BF00BF00BF00BF00BF1B
:101BC00000BFBFF36F8F00BF00BF00BF00BF6E49F3
:101BD0006068884205D16D48806920F480406B4977
:101BE00088616B496068884205D16848C06920F403
:101BF00000306649C86167496068884205D163481A
:101C0000C06920F480206149C861634960688842E6
:101C100005D15E48C06920F400205C49C8615F4975
:101C20006068884205D15948C06920F4801057493E
:101C3000C8610020216B08710021206B4171206B6D
:101C40008171206BC171206B0172206B4172206B1E
:101C500081720020616B81F82100206BC07A20F036
:101C60000200216BC8728AE000E085E06FF003009B
:101C700070BD206BC07A00F0010010B94FF0FF304A
:101C8000F6E7206BC07A00F0020008B10020EFE711
:101C90000020216B08710021206B4171206B817144
:101CA000206BC171206B0172206B4172206B8172BD
:101CB0000020616B81F82100616B4883616BC86112
:101CC000616B81F82000216BC860216B08610320E3
:101CD000216BC8722C496068884205D12B48806905
:101CE00040F480402949886129496068884205D1CB
:101CF0002648C06940F400302449C861254960681D
:101D0000884205D12148C06940F480201F49C8613C
:101D100021496068884205D11C48C06940F4002010
:101D20001A49C8611D496068884205D11748C069D1
:101D300040F480101549C86194F92400002807DB9D
:101D400000F01F0201219140154A430942F8231077
:101D500000BF94F92400002809DB00F01F020121D4
:101D600091404209920002F1E022C2F8001100BF46
:101D70006068FFF797FE02E06FF0030078E700BFAE
:101D8000002075E780E100E00038014000100240CB
:101D90000044004000480040004C0040005000401B
:101DA00080E200E02DE9F04105460E46144605B1FB
:101DB0001EB96FF00400BDE8F081206BC07A00F01E
:101DC000040010B94FF0FF30F5E7206B407901288F
:101DD00001D1C01EEFE76068808920F020006168B3
:101DE0008881606B06600021206B0172206B41725C
:101DF000206BC171206B8172606B85600020616B0C
:101E000008610121206B41716068808940F03000D9
:101E100061688881206BC068022812D1606BC0693C
:101E200078B90220616BC861616B01F11A0022462A
:101E3000314600F008F80746B81C10B96FF00100F1
:101E4000B9E70020B7E72DE9F04105460E461446F4
:101E500005B11EB96FF00400BDE8F081206BC07AB7
:101E600000F0040010B94FF0FF30F5E7606B90F818
:101E7000210010B16FF00100EEE70120616B81F8E5
:101E80002100606BC560606B46600020616B48613B
:101E9000206BC068022812D1606BC06978B901203C
:101EA000616BC861616B01F1180022463146FFF792
:101EB00079FF0746B81C10B96FF00100CCE76068E5
:101EC000808940F08000616888810020C4E770B597
:101ED000044634B1012C22D0022C3FD0032C3CD13B
:101EE0003DE0086B006920B1086B0069B0F5003F68
:101EF00011D1886990B18D69AA88012328681BB126
:101F000001259540056104E002F110050126AE406F
:101F1000066100BF02E04FF0FF3070BD22E0086BA9
:101F2000006920B1086B0069B0F5003F11D18869E4
:101F300090B18D69AA88002328681BB101259540BE
:101F4000056104E002F110050126AE40066100BF04
:101F500002E04FF0FF30E0E704E000BF00BF4FF0C9
:101F6000FF30DAE700BF0020D7E72DE9F0418046D7
:101F70000E4617461C46B8F1000F01D006B11FB936
:101F80006FF00400BDE8F081206BC07A00F004001F
:101F900010B94FF0FF30F5E7206BC068022814D16C
:101FA0000320616BC861224639463046FFF7FAFECE
:101FB00005460DB12846E5E7224639464046FFF77B
:101FC00042FF054625B12846DCE74FF0FF30D9E750
:101FD0000020D7E710B50446E06830B1E268918888
:101FE000002310681A46FEF782FC206930B122698E
:101FF0009188002310681A46FEF779FC606930B1B9
:1020000062699188002310681A46FEF770FCA06987
:1020100030B1A2699188002310681A46FEF767FC68
:10202000E06930B1E2699188002310681A46FEF732
:102030005EFC208CFEF736FB0020216BC87210BDC1
:1020400008B502480068009008BD0000843500080B
:1020500000BFFEE710B5002A06DA22F00042D21DCA
:1020600022F00703102203E0D21C22F003030C220B
:1020700013B19C188C4201D9012010BD02440144C7
:102080008360C0E90021C91AD018884202D81060C4
:102090000246F9E70020106010BD000005490978EC
:1020A000002905D000684FF6FF71DFF80CC000DF93
:1020B00070470000210000201D2A0008044909780B
:1020C000002903D00068DFF80CC000DF7047000073
:1020D000210000204529000808480068C0010BD5F0
:1020E00007480068C00707D0054880380068002806
:1020F00002DA04490120087070470000FCED00E09E
:10210000800E00E0440000204FF06042D36F002BAF
:10211000FCD0036BD367D36F002BFCD0C07840EAB0
:102120000120A2F87C0070474FF06041CA6F002A7E
:10213000FCD081F87C0070470EB5802200B109B157
:1021400010460AE001780129FAD101A900F020F82F
:10215000042801D0002000E01020DDE9011203B0C6
:1021600000BD70B50D46040003D012B920780128D7
:1021700001D0802070BD204600F0DEFA28B129464B
:10218000204600F030F8002070BD812070BD0000B6
:1021900010B504468089002824D0608904EB8000B3
:1021A00000690860606840B16078022805D10021AC
:1021B000204600F0BDFC00F0ABFC04F10C0000BFB9
:1021C000D0E85F1F491E8AB2C0E8512F0029F7D11D
:1021D0006089401C80B26081E189884201D1002081
:1021E0006081042010BD10B500F0A2FCBDE81040D5
:1021F00000F08EBC10B50446FEF75CFC002010BD5C
:10220000EFF3058109B182207047DFF808C000DFD5
:1022100070470000D5310008EFF3058008B1822037
:102220007047EFF31480C00703D0DFF80CC000DF65
:10223000704700F0D9BF0000E931000888B0EFF323
:10224000058010B1822008B07047EFF3148010F0C1
:102250000301134806D001291BD0022911D00329FC
:1022600019D113E008A981F309880078C0070BD0C1
:102270005FF0020080F31488BFF34F8FBFF36F8FBE
:1022800009E00078C00706D10320F3E70078C00713
:1022900001D0FF20D7E7DFF80CC000DFD3E7000054
:1022A0003435000859320008EFF305820AB1FFF710
:1022B00043BFDFF808C000DF70470000C5320008E8
:1022C000EFF305820AB100207047EFF31482D207C2
:1022D00002D1044A52781AB1DFF80CC000DF70470F
:1022E00001F00EB82000002001330008DFF80CC018
:1022F00000DFDFF80CC000DFFEE700006D330008F0
:1023000089330008DFF804C000DF7047C1330008DC
:10231000EFF305830BB100207047EFF31483DB0765
:1023200002D1044B5B781BB1DFF80CC000DF7047B3
:1023300001F052B820000020D9330008EFF30582E5
:102340000AB182207047DFF808C000DF7047000044
:1023500011340008094C4FF0FF3529462068FFF77B
:10236000A3FF02460846102AF7D1FFF7CBFF00284B
:10237000F3D0024608469047EFE700001000002027
:10238000012806D0022805D0032804D0042804D14F
:1023900002E003E002E001E000E000BF00BF00BF98
:1023A000FEE700BFFEE70000074801684FF0E020AD
:1023B000416100218161072101610448016841F008
:1023C0007F410160401770473035000820ED00E084
:1023D000704750E8001F31B10B6840E80032002A16
:1023E000F7D108467047BFF32F8FFAE710B568B1F1
:1023F00061B10B3121F00302016844680B1A1B1B09
:10240000934205D2084609680029F5D1002010BD85
:10241000210007D021180368C1E90032016001F1F1
:10242000080010BD4260083010BD000070B50D46B8
:10243000002812D04FF6FF71084C884204D222685F
:102440000146104600F0A2FB20684570044800F0E9
:10245000DDF8BDE8704000F05DBC70BD28000020D4
:10246000940C00200F4810B50D4942680E480B68C7
:102470000068934204D00A60CB88421E1A448A80C6
:102480008A8880B282420AD100200860054800F0A4
:10249000BDF80146BDE81040024800F09BBB10BDEE
:1024A0003C000020940C00203800002070B5194D2D
:1024B000E86800282CD0A88A401EA882002621E0C7
:1024C000A06838B161684160606810B1A16881603E
:1024D0006660A6600F482146183800F07BFBA08A92
:1024E000A8826078042804D10B49E08A098808444E
:1024F000A08201206070E068E860E06808B10561D2
:10250000E6602661A88A002802D1EC68002CD7D1A9
:1025100070BD0000AC0C00203800002070B5040035
:102520000FD00D4DA17801262868827891420CD9F0
:1025300000F06CFB286846702046BDE8704000F053
:10254000E9BB064800F062F8F7E766702146BDE88F
:102550007040024800F03EBB28000020940C002090
:102560000321FFF763BF000010B50446008B08434A
:1025700020836278618B062A18D0052A19D1084277
:1025800017D001EA0002628388432083204600F0CE
:1025900068FB01206070628B0821204600F05DFB23
:1025A0002146BDE81040034800F014BB31EA0002A8
:1025B000EAD010BD940C0020814202D342688A42C6
:1025C00001D80120704702680A60BFF35F8F50E8AE
:1025D000003F0A689A42F6D140E80012002AF2D180
:1025E0000020704768B161B10022083902E002465C
:1025F000006830B18842FAD12AB10068106000202A
:1026000070470120704700214160F8E701464068AB
:1026100042684A600B780022022B05D0012B03D0C0
:10262000032B01D04260704743680BB19960426050
:1026300082607047810700D00020704770B5044663
:1026400000201546207001226270A17084F82410C9
:102650006060A060E06020612062A082E082208350
:10266000608384F82500E08C18B90548FFF7B1FEB7
:10267000E06229462046BDE8704000F01DB8000029
:10268000D801002008B1082901D201207047014477
:10269000091F002201600A60426010467047000076
:1026A00003480021016003490988C1807047000088
:1026B0003C0000202435000870B5C28C1C4D9308E6
:1026C00002D12A88C2F38D03C26A02EB8302540747
:1026D00000D5121F4FF0807442E9021400242646F0
:1026E000B2F1400242F82460641C0E2CFAD3C46993
:1026F0001462826201632968C90014D5112B12D9B2
:102700004FF0FF31103B11EB53014FF0CC3305D0AC
:1027100042F8043C42F8083D491EF9D1C16A121F33
:102720008A4200D91360C06A0249016070BD00008E
:1027300020350008A52E5AE2C1898089081A704701
:102740000122027000224270827042600281428146
:10275000103982818908C181704700002DE9F0415C
:10276000044640680E464FF0000804F10C05E8B33B
:102770006078012701283ED0022813D003285CD1BD
:102780000846FFF726FE050057D02046FFF73EFF1C
:102790000446294600F05EFA6770204600F061FAB0
:1027A000214621E02046FFF731FF0646002100F0D8
:1027B00051FA2189F06904EB81010861D5E85F0FC6
:1027C000401C81B2C5E8501F0028F7D12089401C69
:1027D00080B22081E189884201D1A4F80880777015
:1027E000304600F03EFA3146174800E00CE0BDE804
:1027F000F04100F0EFB92046FFF708FF04463246EB
:10280000102100F02AFAC7E7A089E189884216D290
:10281000208904EB80000661D5E85F0F401C81B27F
:10282000C5E8501F0028F7D12089401C80B22081C4
:10283000E189884201D1A4F80880BDE8F081BDE8B3
:10284000F0410320FFF79CBD940C002070B50446B6
:10285000808915460026C0B3608904EB80000069BA
:1028600008606089401C80B26081E189884200D1A3
:102870006681606810B1607802280BD014F10C04F6
:10288000D4E85F0F401E81B2C4E8501F0028F7D182
:10289000002070BD2046FFF7B9FE0546002100F07C
:1028A000D9F92189E86904EB810108612089401C7C
:1028B00080B22081E189884200D12681284600F03B
:1028C000D0F92846FFF72AFEE2E7FFE73DB10B48C3
:1028D000626801682AB1204600F07CF908E0012016
:1028E00070BD616001684E600068846001206070A6
:1028F00008212846FFF79AFDF1E700002800002094
:10290000002814D0411C13D00C4A4FF6FE7190429F
:102910000CD800EB4002C2EBC0120948036803EB7D
:10292000C202521EB2FBF3F0884204D90846704737
:102930004FF6FF70704780B27047000000093D00FD
:10294000403500082DE9F0410446408820B1314D62
:10295000A1682A68914202D0FF20BDE8F081401EA4
:102960000004000C608053D12968086AA04209D194
:10297000E068086208E0C268A24202D1E268C26070
:1029800002E010460028F6D191F824000A6A06E019
:1029900053681BB19B78834200D91846D268002A3D
:1029A000F6D18870DFF870806168012611B3204687
:1029B000FFF72CFE0746002100F04CF9384600F0E6
:1029C00050F96680A760386AE0603C622968D8F8F0
:1029D00004008A788078824201D3384616E00E4897
:1029E00000F0F8F839460C4800F0F4F82868467012
:1029F0007E700AE0D8F804108A782968824207D9E4
:102A0000054800F0E7F8286846700020FFF786FDCB
:102A10000020A2E728000020940C002070B51C4D77
:102A20000E4604464188286861B1A268824210D1EE
:102A3000A1F57F40FF3803D0491C6180002070BDA4
:102A4000FF2070BDA060016AE16004620120608027
:102A5000F4E776B191788078814203D29070A068D3
:102A600000F0DEF8606830B12046296800F0B2F866
:102A700008E0012070BD2868606029680020486077
:102A80002868846009213046FFF7D0FCF1E7000098
:102A90002800002070B51B480121026851700068B1
:102AA00000F0B4F8184D6C7818E000BF05EBC401D5
:102AB00048680278EAB1012A20D000F0FFF8E878EF
:102AC000641C844200D100240F48801CD0E84F1FB2
:102AD000491EC9B2C0E8421F002AF7D1A8780028D1
:102AE000E4D16C700948FFF791FDBDE8704000F03B
:102AF00011B9098989B2FFF737FDE0E78968FFF767
:102B00002DFEDCE72800002048080020940C00205F
:102B10000548017811B101214170704703494FF018
:102B200080500860704700003000002004ED00E095
:102B3000F0B4154DAB1CEE784FEA0507D3E84F2FE4
:102B4000B24202D1BFF32F8F11E0521CD4B2C3E8BE
:102B5000424F002AF2D100BFD7E84F2F541CB44295
:102B600000D10024E4B2C7E8434F002BF4D1EB7846
:102B7000934205D905EBC202C2E90101F0BC7047DE
:102B8000F0BC0220FFF7FCBB48080020104A10B53B
:102B9000D368ABB113469B8A03E08CB12246A48A6A
:102BA0002344D4688B42F8D3C460D0600261C46807
:102BB00004B12061591A8182908A401A908210BD16
:102BC0000024C460D060C91A02619182848210BD61
:102BD000AC0C002030B502780023022A03D0012A71
:102BE00001D0032A00D101238C7800E0104642680E
:102BF00012B19578A542F9D24A6041601BB102B189
:102C00009160886030BD0020FBE7000003494A68FE
:102C1000426000228260486070470000940C0020EF
:102C200010B5836804462BB9607801280ED1084B93
:102C300003E09B6818780028FBD0204600F026F8B7
:102C40002146BDE810401846FFF7C4BF10BD000084
:102C5000940C0020806A01627047806AC0E9081203
:102C6000704710B5016900290ED0C268CA60C368F8
:102C700000223BB18B8A848A23448B82C36819610A
:102C8000C26000E08A82026110BD0000816839B133
:102C900042684A604168002901D0806888607047B6
:102CA000054906E04A68824202D1406848607047A0
:102CB00011460029F6D17047940C002010B54168E8
:102CC00081B1FFF7A3FC0446FFF7CBFF0120607042
:102CD00001462046FFF7BEFF2146BDE810400348ED
:102CE000FFF778BF4188491C418010BD940C00203B
:102CF00006480068D0E90A10814203D300680449FD
:102D0000884202D00120FFF73BBB7047280000201B
:102D1000A52E5AE20749022248604270064A1278FC
:102D2000002A05D006C98A4202D0C078FFF7FCB954
:102D300070470000280000204400002070B5FFF715
:102D4000CBF900200446204A204902E042F8204006
:102D5000401C0B889842F9D31D48342201881D4835
:102D6000FFF778F91C48008880B240F000421B4809
:102D700001681B48FFF76EF91A48082201881A48B3
:102D80000068FFF767F9194DFF20194AE870EC84D5
:102D900000212846FFF752FC1648042101704460C8
:102DA00015480170C46004618482144815490560A7
:102DB000022068701248047044700978C170BDE840
:102DC0007040FFF76DBC0000CC0800201C350008E7
:102DD0004835000860000020203500084C35000808
:102DE000D80100207035000818000020600C002079
:102DF000A3230008940C0020AC0C00202800002025
:102E000048080020543500081B4810B5016841F4FB
:102E10007F01016000684FF07F4101EA0020164900
:102E2000C0431439B0FA80F00968C0F10800C1F35A
:102E30000221814200D3481C0F49091F0B686FF023
:102E40008072824063F317020A60FFF7ADFA0B4904
:102E5000002808600EDB00F1E021FF2281F8002449
:102E600000F01F02012191404009800000F1E020A4
:102E7000C0F8001110BD000020ED00E0340000207B
:102E80000C4810B50268012151700068FFF7BEFEC2
:102E9000FFF7E8FA08480168491C0160FFF706FBE4
:102EA00000F0E8FA0548FFF7B1FBBDE81040FFF776
:102EB00031BF00002800002038000020940C0020C2
:102EC000002805D0810702D10178002900D0002018
:102ED0007047000030B50B4C0023626805E0956830
:102EE0008D4204D813461268491B002AF7D10260AC
:102EF000816012B19568691A91600BB1186030BD9C
:102F0000606030BD200000200D4B0022596803E0B6
:102F1000814204D00A4609680029F9D104E019B1B8
:102F2000016822B1116003E04FF0FF307047596033
:102F3000016819B18A688068104488600020704771
:102F4000200000202DE9F0411E46174680460D4620
:102F500011F0FF0F00D14D1C1848FFF73AFA041E7C
:102F600016D0280AE762E084E9B242462046E661CC
:102F7000FFF764FB01251248124905E000EB8502CA
:102F800052F8042C32B16D1C0A889542F6D9002003
:102F9000BDE8F081002DFAD000EB850040F8044C2C
:102FA0000948E570007818B101212046FFF7ACF818
:102FB0002046FFF7B3FA2846EAE700006000002049
:102FC000CC0800201C350008440000202DE9F05FEB
:102FD000584DDFF85891DFF8588129684FF0010A01
:102FE000002618B1CA78AB46824243D14E70FDF735
:102FF00002F929688862FFF77BFE2868046A1FE0EF
:103000006068C0B12046FFF701FB07460021FFF7CB
:1030100021FE3846FFF725FE87F801A039464648CD
:10302000FFF7D8FDE168A4F802A0A760386AE06065
:103030003C620C4604E0E0686680A660E6600446F8
:10304000002CDDD12868C27808EB820141F8046CBD
:10305000C16A3A48FFF7B0FA2868C66299F80010CA
:1030600011B10021FFF750F835482968FFF7A4FA9D
:103070002E6056E03349098888420CD808EB800856
:1030800058F8045C3DB12846FFF700FE2846FFF7DC
:10309000E8FD2C6A22E0FF20BDE8F09F6068C0B127
:1030A0002046FFF7B3FA07460021FFF7D3FD384665
:1030B000FFF7D7FD87F801A039461F48FFF78AFDC3
:1030C000E168A4F802A0A760386AE0603C620C46A0
:1030D00004E0E0686680A660E6600446002CDDD16E
:1030E00048F8046C1548E96AFFF766FAEE6299F849
:1030F000000018B100212846FFF706F829461048BD
:10310000FFF75AFA0C48DBF8001040688B78827899
:103110009A4209D981F801A00748DBF80010FFF7AF
:1031200059FD0020FFF7FAF90020B5E74400002020
:10313000CC08002028000020940C0020D80100209A
:10314000600000201C35000870B51A4D80B11A4A85
:10315000128890421FD8194A02EB800050F8044CA4
:10316000CCB1A17084F824102868A04205D014E0E6
:1031700028688170286880F8241011484068807899
:10318000884215D90E482968FFF724FD29680120D7
:10319000487000200AE0FF2070BD2046FFF740FD88
:1031A0006078012804D10648FFF730FAFFF7B6F936
:1031B000002070BD280000201C350008CC0800202D
:1031C000940C002002480068002800D0C0787047A6
:1031D0002800002010B5002804D0FFF791FBFFF76E
:1031E000BFF9402010BD000010B5134C207860B925
:1031F0001248400705D1124801681048FFF742FA0B
:1032000008B1852010BDFFF799FD0E49FF20096820
:103210008870207858B900210B4800F041F80B491C
:10322000086000210A4800F06BF80A490860012094
:1032300020700020607010BD200000209806002043
:1032400050350008280000206835000810000020D4
:10325000583500080C00002070B50F4D687808B193
:10326000002070BD0D4C206890F824100020FFF75E
:103270006BFF2068C178FF2903D1816A203181F377
:103280000988616811B9606000202060FFF7BCFD0B
:1032900001206870E4E700002000002028000020E2
:1032A00010B5040005D0216819B1606808B1027832
:1032B0000AB1002010BD8900103189B2FFF740FA31
:1032C000606810BD3EB504000D464FF0800012D07E
:1032D000217801290FD12846FFF712FB024620462C
:1032E00001A9FFF7B3FA012801D0102003E00DB1C6
:1032F000402000E00020DDE9011203B030BD0000F5
:1033000070B50E46040029D0206838B3606810F10B
:10331000030F23DB032821DCE16829B11048FFF704
:1033200065F805001AD000E000256068E168001D1E
:1033300040EA012133462A462068FFF703FE40B1E8
:10334000084901EB8000084950F8040C826A516377
:1033500070BD1DB129460248FFF744F9002070BD39
:1033600098060020CC080020ED22000810B5FFF7D9
:1033700029FF002804D0034901EB800050F8040C19
:1033800010BD0000CC08002010B5FFF799FD18B162
:10339000C18C19B1C46A02E0802010BD0024C0783D
:1033A000FFF714FEFF2806D01CB121460348FFF7A3
:1033B00019F9002010BD812010BD000098060020E2
:1033C00010B5FFF737F920B141690A680169104665
:1033D00010BD0020014610BD10B503000CD01868C8
:1033E00050B15868002808D009B1012904D1074C10
:1033F00024680CB104790CB1002010BD00240460D5
:10340000012404714171C0E9042310BD0C000020A7
:1034100070B50E46FFF70EF9040016D0BEB1144A7F
:1034200000214FF47A7310681268401E41F1FF3595
:10343000E6FB030529460023FCF796FF05462079A5
:1034400001280CD0022808D103E0802070BD86201E
:1034500070BD2046FFF758FD20B1812070BD0220CD
:103460002071E56029462046FFF734FD002070BD3D
:10347000403500082DE9F041134E7468002C1CD033
:10348000A068124F401E4FF00108A06012E02546D0
:1034900024687460002229463868FEF762FE10B185
:1034A0000420FEF76DFF6879012808D085F80480B4
:1034B000002C02D0A0680028E9D0BDE8F0812846A1
:1034C000E968FFF707FDF3E7200000201000002067
:1034D00008B501211020FDF713FB1820ADF80000FE
:1034E00003208DF8020010208DF80300694604487F
:1034F000FDF772F9012218210148FDF7D3FA08BD42
:1035000000100140A10C00080000000001000000B4
:1035100000000000690C00084800002007000000BF
:10352000C80002110500010000A24A044800000082
:103530003F190100010000000200010052000400D8
:10354000E80300000000000078010000C004000053
:10355000B001000010000000552300080200000028
:1035600001000000C800000004000000E80800207E
:1035700000000000F521000800000000010000002C
:10358000C800000003020202000801400900000018
:10359000000801400A000000390600000038014020
:1035A00000A24A0488350008903500080000000099
:1035B00000000000000000002200220025000000A2
:1035C0000000000000000000280C00203C0C00203F
:1035D00041200008010D0008610D0008E90D0008F8
:1035E000750D0008A10D0008890D0008CD0D00081B
:1035F000410D0008210D0008E90C0008310D0008FC
:10360000B90D0008110D0008283600080000002040
:10361000480000006C0100087036000848000020D7
:10362000E012000088010008000000000000000017
:10363000000000000000000000000000000000008A
:10364000000000000000000000000000000000007A
:10365000000000000000000000000000000000006A
:10366000000000000000000000000000000000005A
:0400000508000131BD
:00000001FF
